:100000000C9434000C9451000C9451000C94510049
:100010000C94A7160C9451000C9451000C945100B0
:100020000C9451000C9451000C9451000C9451000C
:100030000C9451000C94DF140C9451000C9451005A
:100040000C9451000C9451000C9434150C945100F4
:100050000C9451000C9451000C9451000C945100DC
:100060000C9451000C94510011241FBECFEFD8E026
:10007000DEBFCDBF13E0A0E0B1E0E8E6F8E402C0E7
:1000800005900D92A83DB107D9F724E0A8EDB3E0A3
:1000900001C01D92A23BB207E1F70E9452170C94D7
:1000A00032240C940000EFE6F0E0208121602083F0
:1000B00090938500809384008FEF86BB84E08093CB
:1000C00081000895CF93DF9315BC16BC23B5216042
:1000D00023BD21E025BD22E427BD25E52093F603BD
:1000E0001092F5031092F403A99BFECF239A2FEFF1
:1000F00025BB27B52E5B27BD50E040E0A1E0B0E076
:10010000EFEF2091F603BD01042E01C0660F0A94A3
:10011000EAF726232093F403222329F03091F503F4
:100120003F5F3093F503A99BFECF222309F4DCC384
:100130002398E5BB27B52E5B27BD4F5F5F4F483047
:100140005105F9F62091F50320FFD0C321E020935B
:10015000F403A99BFECF2091F403222309F4C9C321
:1001600023982FEF25BB27B52E5B27BD21E02093D9
:10017000F403A99BFECF23982FEF25BB27B52E5B59
:1001800027BDA99BFECF2091F403222309F4B3C31A
:1001900023982FEF25BB27B52E5B27BD24E02093A6
:1001A000F6031092F5031092F403A99BFECF239A55
:1001B0002FEF25BB27B52E5B27BD50E040E0A1E027
:1001C000B0E0EFEF2091F603BD01042E01C0660FF1
:1001D0000A94EAF726232093F403222329F030918E
:1001E000F5033F5F3093F503A99BFECF222309F46B
:1001F00084C32398E5BB27B52E5B27BD4F5F5F4FB8
:1002000048305105F9F62091F50320FF78C321E02D
:100210002093F403A99BFECF2091F403222309F439
:1002200071C323982FEF25BB27B52E5B27BD21E097
:100230002093F403A99BFECF23982FEF25BB27B56E
:100240002E5B27BDA99BFECF2091F403222309F446
:100250005BC323982FEF25BB27B52E5B27BD80936B
:10026000F6031092F5031092F403A99BFECF239A94
:100270002FEF25BB27B52E5B27BD50E040E0A1E066
:10028000B0E0EFEF2091F603BD01042E01C0660F30
:100290000A94EAF726232093F403222329F03091CD
:1002A000F5033F5F3093F503A99BFECF222309F4AA
:1002B0002DC32398E5BB27B52E5B27BD4F5F5F4F4E
:1002C00048305105F9F62091F50320FF21C321E0C4
:1002D0002093F403A99BFECF2091F403222309F479
:1002E0001AC323982FEF25BB27B52E5B27BD21E02E
:1002F0002093F403A99BFECF23982FEF25BB27B5AE
:100300002E5B27BDA99BFECF2091F403222309F485
:1003100004C323982FEF25BB27B52E5B27BD9093F1
:10032000F6031092F5031092F403A99BFECF239AD3
:100330002FEF25BB27B52E5B27BD50E040E0A1E0A5
:10034000B0E0EFEF2091F603BD01042E01C0660F6F
:100350000A94EAF726232093F403222329F030910C
:10036000F5033F5F3093F503A99BFECF222309F4E9
:10037000D6C22398E5BB27B52E5B27BD4F5F5F4FE5
:1003800048305105F9F62091F50320FFCAC221E05B
:100390002093F403A99BFECF2091F403222309F4B8
:1003A000C3C223982FEF25BB27B52E5B27BD21E0C5
:1003B0002093F403A99BFECF23982FEF25BB27B5ED
:1003C0002E5B27BDA99BFECF2091F403222309F4C5
:1003D000ADC223982FEF25BB27B52E5B27BD10920A
:1003E000E6031092F5031B99FECF15BC16BC23B58E
:1003F000216023BD21E025BD21E227BDA99BFECFC1
:1004000027B52E5B27BD2FEF25BB30E020E0E1E0D4
:100410005FEFA1E0B0E0A99BFECF1B9B89C2E093F8
:10042000E50355BB47B54E5B47BD4091E50344230B
:1004300081F04091E603BD01022E01C0660F0A94CF
:10044000EAF7462B4093E6034091F5034F5F409354
:10045000F5032F5F3F4F28303105E9F6A99BFECF0A
:100460001B9B69C221E02093E5032FEF25BB27B535
:100470002E5B27BD2091E503222321F02091F50377
:1004800020FD0AC02091E7033091E8032F5F3F4F22
:100490003093E8032093E703A99BFECF1B9B4EC23A
:1004A00021E02093E5032FEF25BB27B52E5B27BD69
:1004B000A99BFECF1B9B45C221E02093E5032FEFB4
:1004C00025BB27B52E5B27BD15BC2091E60330E088
:1004D000322F2227BC016F5F7F4F15BC16BC83B53E
:1004E000816083BD81E085BD82E487BD85E5809321
:1004F000F6031092F5031092F403A99BFECF239A02
:100500008FEF85BB87B58E5B87BD50E040E0C1E0D3
:10051000D0E0AFEF9091F603FE01042E01C0EE0F84
:100520000A94EAF79E239093F403992329F080918B
:10053000F5038F5F8093F503A99BFECF992309F400
:1005400003C22398A5BB87B58E5B87BD4F5F5F4F06
:1005500048305105F9F68091F50380FFF7C181E03D
:100560008093F403A99BFECF8091F403882309F4C0
:10057000F0C123988FEF85BB87B58E5B87BD81E087
:100580008093F403A99BFECF23988FEF85BB87B59B
:100590008E5B87BDA99BFECF8091F403882309F46D
:1005A000DAC123988FEF85BB87B58E5B87BD84E06A
:1005B0008093F6031092F5031092F403A99BFECFEB
:1005C000239A8FEF85BB87B58E5B87BD50E040E0F7
:1005D000C1E0D0E0AFEF9091F603FE01042E01C020
:1005E000EE0F0A94EAF79E239093F403992329F0DF
:1005F0008091F5038F5F8093F503A99BFECF99232C
:1006000009F4ABC12398A5BB87B58E5B87BD4F5F4F
:100610005F4F48305105F9F68091F50380FF9FC187
:1006200081E08093F403A99BFECF8091F40388239B
:1006300009F498C123988FEF85BB87B58E5B87BD82
:1006400081E08093F403A99BFECF23988FEF85BBB5
:1006500087B58E5B87BDA99BFECF8091F40388236D
:1006600009F482C123988FEF85BB87B58E5B87BD68
:100670006093F6031092F5031092F403A99BFECF4A
:10068000239A8FEF85BB87B58E5B87BD50E040E036
:10069000C1E0D0E0AFEF9091F603FE01042E01C05F
:1006A000EE0F0A94EAF79E239093F403992329F01E
:1006B0008091F5038F5F8093F503A99BFECF99236B
:1006C00009F454C12398A5BB87B58E5B87BD4F5FE6
:1006D0005F4F48305105F9F68091F50380FF48C11E
:1006E00081E08093F403A99BFECF8091F4038823DB
:1006F00009F441C123988FEF85BB87B58E5B87BD19
:1007000081E08093F403A99BFECF23988FEF85BBF4
:1007100097B59E5B97BDA99BFECF8091F40388237C
:1007200009F42BC123988FEF85BB97B59E5B97BDCE
:100730007093F6031092F5031092F403A99BFECF79
:10074000239A8FEF85BB87B58E5B87BD50E040E075
:10075000A1E0B0E0EFEF8091F603BD01042E01C0EF
:10076000660F0A94EAF786238093F403882329F01E
:100770009091F5039F5F9093F503A99BFECF88238B
:1007800009F4FDC02398E5BB87B58E5B87BD4F5F3D
:100790005F4F48305105F9F68091F50380FFF1C0B5
:1007A00081E08093F403A99BFECF8091F40388231A
:1007B00009F4EAC023988FEF85BB87B58E5B87BDB0
:1007C00081E08093F403A99BFECF23988FEF85BB34
:1007D00087B58E5B87BDA99BFECF8091F4038823EC
:1007E00009F4D4C023988FEF85BB87B58E5B87BD96
:1007F0001092E6031092F5031B99FECF15BC16BCB0
:1008000083B5816083BD81E085BD81E287BDA99B01
:10081000FECF87B58E5B87BD8FEF85BB90E080E014
:10082000E1E05FEFA1E0B0E0A99BFECF1B9BB0C071
:10083000E093E50355BB47B54E5B47BD4091E503EB
:10084000442381F04091E603BD01082E01C0660FEC
:100850000A94EAF7462B4093E6034091F5034F5F75
:100860004093F503019688309105F1F6A99BFECFE0
:100870001B9B91C081E08093E5038FEF85BB87B51B
:100880008E5B87BD8091E503882321F08091F5037D
:1008900080FD09C08091E7039091E8030196909351
:1008A000E8038093E703A99BFECF1B9B77C081E001
:1008B0008093E5038FEF85BB87B58E5B87BDA99BD2
:1008C000FECF1B9B6EC081E08093E5038FEF85BB5D
:1008D00087B58E5B87BD15BC8091E603A901482BC7
:1008E000CA01DF91CF910895239A23CC1092F4038B
:1008F00030CC239A36CC239A4CCC239A7BCC1092C2
:10090000F40388CC239A8ECC239AA4CC239AD2CCFD
:100910001092F403DFCC239AE5CC239AFBCC239AE4
:1009200029CD1092F40336CD239A3CCD239A52CD93
:100930001092E50376CD1092E50397CD1092E50372
:10094000B2CD1092E503BBCD239AFCCD1092F403F7
:1009500009CE239A0FCE239A25CE239A54CE1092F5
:10096000F40361CE239A67CE239A7DCE239AABCE31
:100970001092F403B8CE239ABECE239AD4CE239AF3
:1009800002CF1092F4030FCF239A15CF239A2BCFC7
:100990001092E5034FCF1092E5036FCF1092E5035D
:1009A00089CF1092E50392CF9091850480918604BF
:1009B0009817D1F3E0918504F0E0EE0FFF1FE650A9
:1009C000FC4F8081918190938F0480938E0480915D
:1009D00085048F5F80938504809185048F73809355
:1009E00085048FB78093E403F89416BC83B58160C7
:1009F00083BD81E085BD82E487BD80918E048093B4
:100A0000F6031092F5031092F403A99BFECF239AEC
:100A10008FEF85BB87B58E5B87BD30E020E0E1E0DE
:100A2000F0E06FEF8091F603AF01022E01C0440F9A
:100A30000A94EAF784238093F403882329F09091A1
:100A4000F5039F5F9093F503A99BFECF882309F4DC
:100A50008CC1239865BB87B58E5B87BD2F5F3F4FE9
:100A600028303105F9F68091F50380FF80C181E0DF
:100A70008093F403A99BFECF8091F403882309F4AB
:100A800079C123988FEF85BB87B58E5B87BD81E0E9
:100A90008093F403A99BFECF23988FEF85BB87B586
:100AA0008E5B87BDA99BFECF8091F403882309F458
:100AB00063C123988FEF85BB87B58E5B87BD10928E
:100AC000E6031092F5031B99FECF15BC16BC83B547
:100AD000816083BD81E085BD81E287BDA99BFECF9A
:100AE00087B58E5B87BD8FEF85BB90E080E061E0CE
:100AF0003FEFE1E0F0E0A99BFECF1B9B3FC160937D
:100B0000E50335BB27B52E5B27BD2091E5032223E6
:100B100081F02091E603AF01082E01C0440F0A9432
:100B2000EAF7242B2093E6032091F5032F5F20930F
:100B3000F503019688309105F1F6A99BFECF1B9B2A
:100B400020C181E08093E5038FEF85BB87B58E5B85
:100B500087BD8091E503882321F08091F50380FD16
:100B600009C08091E7039091E80301969093E80310
:100B70008093E703A99BFECF1B9B06C181E0809376
:100B8000E5038FEF85BB87B58E5B87BDA99BFECF45
:100B90001B9BFDC081E08093E5038FEF85BB87B58C
:100BA0008E5B87BD15BC16BC83B5816083BD81E0BB
:100BB00085BD82E487BD80918F048093F6031092F7
:100BC000F5031092F403A99BFECF239A8FEF85BB08
:100BD00087B58E5B87BD30E020E0E1E0F0E06FEFAD
:100BE0008091F603AF01022E01C0440F0A94EAF788
:100BF00084238093F403882329F09091F5039F5F69
:100C00009093F503A99BFECF882309F4C3C02398D2
:100C100065BB87B58E5B87BD2F5F3F4F28303105A1
:100C2000F9F68091F50380FFB7C081E08093F4036B
:100C3000A99BFECF8091F403882309F4B0C02398C8
:100C40008FEF85BB87B58E5B87BD81E08093F40312
:100C5000A99BFECF23988FEF85BB87B58E5B87BDA1
:100C6000A99BFECF8091F403882309F49AC02398AE
:100C70008FEF85BB87B58E5B87BD1092E603109220
:100C8000F5031B99FECF15BC16BC83B5816083BDEF
:100C900081E085BD81E287BDA99BFECF87B58E5BD4
:100CA00087BD8FEF85BB90E080E061E03FEFE1E042
:100CB000F0E0A99BFECF1B9B76C06093E50335BB9C
:100CC00027B52E5B27BD2091E503222381F02091DB
:100CD000E603AF01082E01C0440F0A94EAF7242B63
:100CE0002093E6032091F5032F5F2093F5030196EF
:100CF00088309105F1F6A99BFECF1B9B57C081E080
:100D00008093E5038FEF85BB87B58E5B87BD8091B0
:100D1000E503882321F08091F50380FD09C08091CF
:100D2000E7039091E80301969093E8038093E7032B
:100D3000A99BFECF1B9B3DC081E08093E5038FEF15
:100D400085BB87B58E5B87BDA99BFECF1B9B34C03F
:100D500081E08093E5038FEF85BB87B58E5B87BD10
:100D600015BC8091E4038FBF0895239A73CE10922F
:100D7000F40380CE239A86CE239A9CCE1092E5036C
:100D8000C0CE1092E503E0CE1092E503FACE1092A9
:100D9000E50303CF239A3CCF1092F40349CF239A63
:100DA0004FCF239A65CF1092E50389CF1092E503C8
:100DB000A9CF1092E503C3CF1092E503CCCF880FE3
:100DC000991F9C0130588FB78093E403F89415BCA9
:100DD00016BC83B5816083BD81E085BD82E487BD9B
:100DE00085E58093F6031092F5031092F403A99B16
:100DF000FECF239A8FEF85BB87B58E5B87BD50E012
:100E000040E0A1E0B0E0EFEF9091F603BD01042EC9
:100E100001C0660F0A94EAF796239093F40399238E
:100E200029F08091F5038F5F8093F503A99BFECF96
:100E3000992309F4C8C32398E5BB87B58E5B87BDAA
:100E40004F5F5F4F48305105F9F68091F50380FF01
:100E5000BCC381E08093F403A99BFECF8091F4038F
:100E6000882309F4B5C323988FEF85BB87B58E5BC4
:100E700087BD81E08093F403A99BFECF23988FEF79
:100E800085BB87B58E5B87BDA99BFECF8091F403A0
:100E9000882309F49FC323988FEF85BB87B58E5BAA
:100EA00087BD89E68093F6031092F5031092F40350
:100EB000A99BFECF239A8FEF85BB87B58E5B87BD3D
:100EC00050E040E0A1E0B0E0EFEF9091F603BD010B
:100ED000042E01C0660F0A94EAF796239093F40358
:100EE000992329F08091F5038F5F8093F503A99BE7
:100EF000FECF992309F470C32398E5BB87B58E5BB9
:100F000087BD4F5F5F4F48305105F9F68091F5037B
:100F100080FF64C381E08093F403A99BFECF80919E
:100F2000F403882309F45DC323988FEF85BB87B54D
:100F30008E5B87BD81E08093F403A99BFECF23984D
:100F40008FEF85BB87B58E5B87BDA99BFECF809158
:100F5000F403882309F447C323988FEF85BB87B533
:100F60008E5B87BD2093F6031092F5031092F40375
:100F7000A99BFECF239A8FEF85BB87B58E5B87BD7C
:100F800050E040E0A1E0B0E0EFEF9091F603BD014A
:100F9000042E01C0660F0A94EAF796239093F40397
:100FA000992329F08091F5038F5F8093F503A99B26
:100FB000FECF992309F419C32398E5BB87B58E5B4F
:100FC00087BD4F5F5F4F48305105F9F68091F503BB
:100FD00080FF0DC381E08093F403A99BFECF809135
:100FE000F403882309F406C323988FEF85BB87B5E4
:100FF0008E5B87BD81E08093F403A99BFECF23988D
:101000008FEF85BB87B58E5B87BDA99BFECF809197
:10101000F403882309F4F0C223988FEF85BB87B5CA
:101020008E5B87BD3093F6031092F5031092F403A4
:10103000A99BFECF239A8FEF85BB87B58E5B87BDBB
:1010400030E020E0E1E0F0E06FEF8091F603AF01E7
:10105000022E01C0440F0A94EAF784238093F4031C
:10106000882329F09091F5039F5F9093F503A99B46
:10107000FECF882309F4C2C2239865BB87B58E5B77
:1010800087BD2F5F3F4F28303105F9F68091F5037A
:1010900080FFB6C281E08093F403A99BFECF8091CC
:1010A000F403882309F4AFC223988FEF85BB87B57B
:1010B0008E5B87BD81E08093F403A99BFECF2398CC
:1010C0008FEF85BB87B58E5B87BDA99BFECF8091D7
:1010D000F403882309F499C223988FEF85BB87B561
:1010E0008E5B87BD1092E6031092F5031B99FECF2D
:1010F00015BC16BC83B5816083BD81E085BD81E2EE
:1011000087BDA99BFECF87B58E5B87BD8FEF85BB63
:1011100090E080E061E03FEFE1E0F0E0A99BFECFEE
:101120001B9B75C26093E50335BB27B52E5B27BDBE
:101130002091E503222381F02091E603AF01082EE0
:1011400001C0440F0A94EAF7242B2093E603209170
:10115000F5032F5F2093F503019688309105F1F692
:10116000A99BFECF1B9B56C281E08093E5038FEFC6
:1011700085BB87B58E5B87BD8091E503882321F011
:101180008091F50380FD09C08091E7039091E80309
:1011900001969093E8038093E703A99BFECF1B9BE6
:1011A0003CC281E08093E5038FEF85BB87B58E5B02
:1011B00087BDA99BFECF1B9B33C281E08093E503D3
:1011C0008FEF85BB87B58E5B87BD15BC15BC16BC84
:1011D00083B5816083BD81E085BD82E487BD85E5FF
:1011E0008093F6031092F5031092F403A99BFECFAF
:1011F000239A8FEF85BB87B58E5B87BD30E020E0FB
:10120000E1E0F0E06FEF8091F603AF01022E01C044
:10121000440F0A94EAF784238093F403882329F087
:101220009091F5039F5F9093F503A99BFECF8823D0
:1012300009F4F9C1239865BB87B58E5B87BD2F5F25
:101240003F4F28303105F9F68091F50380FFEDC15D
:1012500081E08093F403A99BFECF8091F40388235F
:1012600009F4E6C123988FEF85BB87B58E5B87BDF8
:1012700081E08093F403A99BFECF23988FEF85BB79
:1012800087B58E5B87BDA99BFECF8091F403882331
:1012900009F4D0C123988FEF85BB87B58E5B87BDDE
:1012A00080EA8093F6031092F5031092F403A99B51
:1012B000FECF239A8FEF85BB87B58E5B87BD30E06D
:1012C00020E0E1E0F0E06FEF8091F603AF01022E45
:1012D00001C0440F0A94EAF784238093F40388231F
:1012E00029F09091F5039F5F9093F503A99BFECFA2
:1012F000882309F4A1C1239865BB87B58E5B87BDA0
:101300002F5F3F4F28303105F9F68091F50380FFBC
:1013100095C181E08093F403A99BFECF8091F403F3
:10132000882309F48EC123988FEF85BB87B58E5B28
:1013300087BD81E08093F403A99BFECF23988FEFB4
:1013400085BB87B58E5B87BDA99BFECF8091F403DB
:10135000882309F478C123988FEF85BB87B58E5B0E
:1013600087BD8FE38093F6031092F5031092F40388
:10137000A99BFECF239A8FEF85BB87B58E5B87BD78
:1013800030E020E0E1E0F0E06FEF8091F603AF01A4
:10139000022E01C0440F0A94EAF784238093F403D9
:1013A000882329F09091F5039F5F9093F503A99B03
:1013B000FECF882309F449C1239865BB87B58E5BAE
:1013C00087BD2F5F3F4F28303105F9F68091F50337
:1013D00080FF3DC181E08093F403A99BFECF809103
:1013E000F403882309F436C123988FEF85BB87B5B2
:1013F0008E5B87BD81E08093F403A99BFECF239889
:101400008FEF85BB87B58E5B87BDA99BFECF809193
:10141000F403882309F420C123988FEF85BB87B597
:101420008E5B87BD15BC15BC16BC83B5816083BDC2
:1014300081E085BD82E487BD85E58093F603109247
:10144000F5031092F403A99BFECF239A8FEF85BB7F
:1014500087B58E5B87BD30E020E0E1E0F0E06FEF24
:101460008091F603AF01022E01C0440F0A94EAF7FF
:1014700084238093F403882329F09091F5039F5FE0
:101480009093F503A99BFECF882309F4E7C0239826
:1014900065BB87B58E5B87BD2F5F3F4F2830310519
:1014A000F9F68091F50380FFDBC081E08093F403BF
:1014B000A99BFECF8091F403882309F4D4C023981C
:1014C0008FEF85BB87B58E5B87BD81E08093F4038A
:1014D000A99BFECF23988FEF85BB87B58E5B87BD19
:1014E000A99BFECF8091F403882309F4BEC0239802
:1014F0008FEF85BB87B58E5B87BD84E68093F6034F
:101500001092F5031092F403A99BFECF239A8FEF5C
:1015100085BB87B58E5B87BD30E020E0E1E0F0E081
:101520006FEF8091F603AF01022E01C0440F0A94C1
:10153000EAF784238093F403882329F09091F5033C
:101540009F5F9093F503A99BFECF882309F48FC07A
:10155000239865BB87B58E5B87BD2F5F3F4F2830D3
:101560003105F9F68091F50380FF83C081E0809317
:10157000F403A99BFECF8091F403882309F47CC077
:1015800023988FEF85BB87B58E5B87BD81E0809305
:10159000F403A99BFECF23988FEF85BB87B58E5BA5
:1015A00087BDA99BFECF8091F403882309F466C010
:1015B00023988FEF85BB87B58E5B87BD15BC809167
:1015C000E4038FBF0895239A37CC1092F40344CCE0
:1015D000239A4ACC239A60CC239A8FCC1092F4039E
:1015E0009CCC239AA2CC239AB8CC239AE6CC109216
:1015F000F403F3CC239AF9CC239A0FCD239A3DCD53
:101600001092F4034ACD239A50CD239A66CD1092BE
:10161000E5038ACD1092E503AACD1092E503C4CD6F
:101620001092E503CDCD239A06CE1092F40313CE8B
:10163000239A19CE239A2FCE239A5ECE1092F403CA
:101640006BCE239A71CE239A87CE239AB6CE109270
:10165000F403C3CE239AC9CE239ADFCE239A18CFA0
:101660001092F40325CF239A2BCF239A41CF239AAC
:1016700070CF1092F4037DCF239A83CF239A99CF12
:1016800080917B0490917C049093890480938804DA
:101690009C01207E3F713093810420938004AC0133
:1016A000421B530B5093E2034093E1032091E1036B
:1016B0003091E203877080937D0480E2821B8093E7
:1016C0007E04089590918504809186049817D1F343
:1016D000E0918504F0E0EE0FFF1FE650FC4F8081A3
:1016E00080937F04909185049F5F909385049091EF
:1016F00085049F7390938504282F87FF02C021E003
:10170000280F25952093E30390918B0490311CF4CE
:1017100091E09093840490918B0490937A04809349
:101720008B0490918504809186049817D1F3E09101
:101730008504F0E0EE0FFF1FE650FC4F80819181A1
:10174000309185043F5F30938504309185043F7369
:10175000309385049695879590937C0480937B04C1
:10176000AC0141505109420F511D27FD5A9550932C
:10177000F9034093F8032091E0032093F7039C01C1
:1017800027703327232B69F021E02093E003209179
:101790008804309189048217930711F4109287040A
:1017A00008951092E003F3CF93B5926093BD6093D8
:1017B000B2008093B100B89BFECFB89A1092B100EE
:1017C00008959091C00095FFFCCF8093C6000895C6
:1017D000880F991F9C0130588FB78093E403F894C9
:1017E00015BC16BC83B5816083BD81E085BD82E4F4
:1017F00087BD85E58093F6031092F5031092F403FC
:10180000A99BFECF239A8FEF85BB87B58E5B87BDE3
:1018100050E040E0A1E0B0E0EFEF9091F603BD01B1
:10182000042E01C0660F0A94EAF796239093F403FE
:10183000992329F08091F5038F5F8093F503A99B8D
:10184000FECF992309F4EFC52398E5BB87B58E5BDE
:1018500087BD4F5F5F4F48305105F9F68091F50322
:1018600080FFE3C581E08093F403A99BFECF8091C4
:10187000F403882309F4DCC523988FEF85BB87B573
:101880008E5B87BD81E08093F403A99BFECF2398F4
:101890008FEF85BB87B58E5B87BDA99BFECF8091FF
:1018A000F403882309F4C6C523988FEF85BB87B559
:1018B0008E5B87BD85E48093F6031092F50310924A
:1018C000F403A99BFECF239A8FEF85BB87B58E5B70
:1018D00087BD50E040E0A1E0B0E0EFEF9091F6036B
:1018E000BD01042E01C0660F0A94EAF79623909377
:1018F000F403992329F08091F5038F5F8093F5031A
:10190000A99BFECF992309F497C52398E5BB87B51A
:101910008E5B87BD4F5F5F4F48305105F9F6809170
:10192000F50380FF8BC581E08093F403A99BFECF74
:101930008091F403882309F484C523988FEF85BB35
:1019400087B58E5B87BD81E08093F403A99BFECFB2
:1019500023988FEF85BB87B58E5B87BDA99BFECF94
:101960008091F403882309F46EC523988FEF85BB1B
:1019700087B58E5B87BD88E08093F6031092F503F0
:101980001092F403A99BFECF239A8FEF85BB87B5F6
:101990008E5B87BD50E040E0A1E0B0E0EFEF9091BA
:1019A000F603BD01042E01C0660F0A94EAF79623E0
:1019B0009093F403992329F08091F5038F5F80932E
:1019C000F503A99BFECF992309F43FC52398E5BBF6
:1019D00087B58E5B87BD4F5F5F4F48305105F9F685
:1019E0008091F50380FF33C581E08093F403A99BC8
:1019F000FECF8091F403882309F42CC523988FEF40
:101A000085BB87B58E5B87BD81E08093F403A99B7E
:101A1000FECF23988FEF85BB87B58E5B87BDA99BD3
:101A2000FECF8091F403882309F416C523988FEF25
:101A300085BB87B58E5B87BD80E18093F6031092EE
:101A4000F5031092F403A99BFECF239A8FEF85BB79
:101A500087B58E5B87BD50E040E0A1E0B0E0EFEFDE
:101A60009091F603BD01042E01C0660F0A94EAF7B7
:101A700096239093F403992329F08091F5038F5FC7
:101A80008093F503A99BFECF992309F4E7C423981B
:101A9000E5BB87B58E5B87BD4F5F5F4F4830510513
:101AA000F9F68091F50380FFDBC481E08093F403B5
:101AB000A99BFECF8091F403882309F4D4C4239812
:101AC0008FEF85BB87B58E5B87BD81E08093F40384
:101AD000A99BFECF23988FEF85BB87B58E5B87BD13
:101AE000A99BFECF8091F403882309F4BEC42398F8
:101AF0008FEF85BB87B58E5B87BD1092E603109292
:101B0000F5031B99FECF15BC16BC83B5816083BD60
:101B100081E085BD81E287BDA99BFECF87B58E5B45
:101B200087BD8FEF85BB90E080E0E1E05FEFA1E053
:101B3000B0E0A99BFECF1B9B9AC4E093E50355BB85
:101B400047B54E5B47BD4091E503442381F040918A
:101B5000E603BD01082E01C0660F0A94EAF7462B82
:101B60004093E6034091F5034F5F4093F5030196E0
:101B700088309105F1F6A99BFECF1B9B7BC481E0C9
:101B80008093E5038FEF85BB87B58E5B87BD809122
:101B9000E503882321F08091F50380FD09C0809141
:101BA000E7039091E80301969093E8038093E7039D
:101BB000A99BFECF1B9B61C481E08093E5038FEF5F
:101BC00085BB87B58E5B87BDA99BFECF1B9B58C489
:101BD00081E08093E5038FEF85BB87B58E5B87BD82
:101BE00015BC16BC83B5816083BD81E085BD82E4F0
:101BF00087BD2093F6031092F5031092F403A99B7E
:101C0000FECF239A8FEF85BB87B58E5B87BD50E0F3
:101C100040E0A1E0B0E0EFEF9091F603BD01042EAB
:101C200001C0660F0A94EAF796239093F403992370
:101C300029F08091F5038F5F8093F503A99BFECF78
:101C4000992309F420C42398E5BB87B58E5B87BD33
:101C50004F5F5F4F48305105F9F68091F50380FFE3
:101C600014C481E08093F403A99BFECF8091F40318
:101C7000882309F40DC423988FEF85BB87B58E5B4D
:101C800087BD81E08093F403A99BFECF23988FEF5B
:101C900085BB87B58E5B87BDA99BFECF8091F40382
:101CA000882309F4F7C323988FEF85BB87B58E5B34
:101CB00087BD3093F6031092F5031092F403A99BAD
:101CC000FECF239A8FEF85BB87B58E5B87BD30E053
:101CD00020E0E1E0F0E06FEF8091F603AF01022E2B
:101CE00001C0440F0A94EAF784238093F403882305
:101CF00029F09091F5039F5F9093F503A99BFECF88
:101D0000882309F4C9C3239865BB87B58E5B87BD5B
:101D10002F5F3F4F28303105F9F68091F50380FFA2
:101D2000BDC381E08093F403A99BFECF8091F403AF
:101D3000882309F4B6C323988FEF85BB87B58E5BE4
:101D400087BD81E08093F403A99BFECF23988FEF9A
:101D500085BB87B58E5B87BDA99BFECF8091F403C1
:101D6000882309F4A0C323988FEF85BB87B58E5BCA
:101D700087BD1092E6031092F5031B99FECF15BCA8
:101D800016BC83B5816083BD81E085BD81E287BDDE
:101D9000A99BFECF87B58E5B87BD8FEF85BB90E09B
:101DA00080E061E03FEFE1E0F0E0A99BFECF1B9B0C
:101DB0007CC36093E50335BB27B52E5B27BD20911F
:101DC000E503222381F02091E603AF01082E01C034
:101DD000440F0A94EAF7242B2093E6032091F5039D
:101DE0002F5F2093F503019688309105F1F6A99BAA
:101DF000FECF1B9B5DC381E08093E5038FEF85BB26
:101E000087B58E5B87BD8091E503882321F08091A3
:101E1000F50380FD09C08091E7039091E8030196E6
:101E20009093E8038093E703A99BFECF1B9B43C3DA
:101E300081E08093E5038FEF85BB87B58E5B87BD1F
:101E4000A99BFECF1B9B3AC381E08093E5038FEFF4
:101E500085BB87B58E5B87BD15BC8AE20E94E10B0E
:101E600015BC16BC83B5816083BD81E085BD82E46D
:101E700087BD85E58093F6031092F5031092F40375
:101E8000A99BFECF239A8FEF85BB87B58E5B87BD5D
:101E900030E020E0E1E0F0E06FEF8091F603AF0189
:101EA000022E01C0440F0A94EAF784238093F403BE
:101EB000882329F09091F5039F5F9093F503A99BE8
:101EC000FECF882309F4FDC2239865BB87B58E5BDE
:101ED00087BD2F5F3F4F28303105F9F68091F5031C
:101EE00080FFF1C281E08093F403A99BFECF809133
:101EF000F403882309F4EAC223988FEF85BB87B5E2
:101F00008E5B87BD81E08093F403A99BFECF23986D
:101F10008FEF85BB87B58E5B87BDA99BFECF809178
:101F2000F403882309F4D4C223988FEF85BB87B5C7
:101F30008E5B87BD84E48093F6031092F5031092C4
:101F4000F403A99BFECF239A8FEF85BB87B58E5BE9
:101F500087BD30E020E0E1E0F0E06FEF8091F60334
:101F6000AF01022E01C0440F0A94EAF78423809344
:101F7000F403882329F09091F5039F5F9093F50374
:101F8000A99BFECF882309F4A5C2239865BB87B51A
:101F90008E5B87BD2F5F3F4F28303105F9F680916A
:101FA000F50380FF99C281E08093F403A99BFECFE3
:101FB0008091F403882309F492C223988FEF85BBA4
:101FC00087B58E5B87BD81E08093F403A99BFECF2C
:101FD00023988FEF85BB87B58E5B87BDA99BFECF0E
:101FE0008091F403882309F47CC223988FEF85BB8A
:101FF00087B58E5B87BD1092F6031092F5031092A1
:10200000F403A99BFECF239A8FEF85BB87B58E5B28
:1020100087BD30E020E0E1E0F0E06FEF8091F60373
:10202000AF01022E01C0440F0A94EAF78423809383
:10203000F403882329F09091F5039F5F9093F503B3
:10204000A99BFECF882309F44EC2239865BB87B5B0
:102050008E5B87BD2F5F3F4F28303105F9F68091A9
:10206000F50380FF42C281E08093F403A99BFECF79
:102070008091F403882309F43BC223988FEF85BB3A
:1020800087B58E5B87BD81E08093F403A99BFECF6B
:1020900023988FEF85BB87B58E5B87BDA99BFECF4D
:1020A0008091F403882309F425C223988FEF85BB20
:1020B00087B58E5B87BD80E18093F6031092F503B0
:1020C0001092F403A99BFECF239A8FEF85BB87B5AF
:1020D0008E5B87BD30E020E0E1E0F0E06FEF8091C3
:1020E000F603AF01022E01C0440F0A94EAF78423DD
:1020F0008093F403882329F09091F5039F5F9093D8
:10210000F503A99BFECF882309F4F6C1239865BB8C
:1021100087B58E5B87BD2F5F3F4F28303105F9F6BD
:102120008091F50380FFEAC181E08093F403A99BCD
:10213000FECF8091F403882309F4E3C123988FEF45
:1021400085BB87B58E5B87BD81E08093F403A99B37
:10215000FECF23988FEF85BB87B58E5B87BDA99B8C
:10216000FECF8091F403882309F4CDC123988FEF2B
:1021700085BB87B58E5B87BD1092E6031092F50391
:102180001B99FECF15BC16BC83B5816083BD81E071
:1021900085BD81E287BDA99BFECF87B58E5B87BDDC
:1021A0008FEF85BB90E080E061E03FEFE1E0F0E0A1
:1021B000A99BFECF1B9BA9C16093E50335BB27B547
:1021C0002E5B27BD2091E503222381F02091E603B9
:1021D000AF01082E01C0440F0A94EAF7242B209384
:1021E000E6032091F5032F5F2093F50301968830D5
:1021F0009105F1F6A99BFECF1B9B8AC181E08093DC
:10220000E5038FEF85BB87B58E5B87BD8091E503C6
:10221000882321F08091F50380FD09C08091E703B8
:102220009091E80301969093E8038093E703A99BBC
:10223000FECF1B9B70C181E08093E5038FEF85BBD0
:1022400087B58E5B87BDA99BFECF1B9B67C181E0D5
:102250008093E5038FEF85BB87B58E5B87BD15BC8B
:1022600016BC83B5816083BD81E085BD92E497BDD6
:102270008093F6031092F5031092F403A99BFECF0E
:10228000239A8FEF85BB87B58E5B87BD30E020E05A
:10229000E1E0F0E06FEF8091F603AF01022E01C0A4
:1022A000440F0A94EAF784238093F403882329F0E7
:1022B0009091F5039F5F9093F503A99BFECF882330
:1022C00009F42FC1239865BB87B58E5B87BD2F5F4F
:1022D0003F4F28303105F9F68091F50380FF23C187
:1022E00081E08093F403A99BFECF8091F4038823BF
:1022F00009F41CC123988FEF85BB87B58E5B87BD22
:1023000081E08093F403A99BFECF23988FEF85BBD8
:1023100087B58E5B87BDA99BFECF8091F403882390
:1023200009F406C123988FEF85BB87B58E5B87BD07
:102330001092E6031092F5031B99FECF15BC16BC54
:1023400083B5816083BD81E085BD81E287BDA99BA6
:10235000FECF87B58E5B87BD8FEF85BB90E080E0B9
:1023600061E03FEFE1E0F0E0A99BFECF1B9BE2C004
:102370006093E50335BB27B52E5B27BD2091E503B0
:10238000222381F02091E603AF01082E01C0440F03
:102390000A94EAF7242B2093E6032091F5032F5F9C
:1023A0002093F503019688309105F1F6A99BFECFA5
:1023B0001B9BC3C081E08093E5038FEF85BB87B58E
:1023C0008E5B87BD8091E503882321F08091F50322
:1023D00080FD09C08091E7039091E80301969093F6
:1023E000E8038093E703A99BFECF1B9BA9C081E074
:1023F0008093E5038FEF85BB87B58E5B87BDA99B77
:10240000FECF1B9BA0C081E08093E5038FEF85BBCF
:1024100087B58E5B87BD15BC8091E4038FBF64E4F4
:1024200086E00C94D40B239A10CA1092F4031DCAB0
:10243000239A23CA239A39CA239A68CA1092F403AA
:1024400075CA239A7BCA239A91CA239AC0CA10924A
:10245000F403CDCA239AD3CA239AE9CA239A18CB84
:102460001092F40325CB239A2BCB239A41CB1092C5
:10247000E50365CB1092E50385CB1092E5039FCB76
:102480001092E503A8CB239ADFCB1092F403ECCB98
:10249000239AF2CB239A08CC239A36CC1092F403D9
:1024A00043CC239A49CC239A5FCC1092E50383CC8A
:1024B0001092E503A3CC1092E503BDCC1092E50386
:1024C000C6CC239A02CD1092F4030FCD239A15CDDA
:1024D000239A2BCD239A5ACD1092F40367CD239AD9
:1024E0006DCD239A83CD239AB1CD1092F403BECD46
:1024F000239AC4CD239ADACD239A09CE1092F403FD
:1025000016CE239A1CCE239A32CE1092E50356CED5
:102510001092E50376CE1092E50390CE1092E5037B
:1025200099CE239AD0CE1092F403DDCE239AE3CE37
:10253000239AF9CE1092E5031DCF1092E5033DCF0B
:102540001092E50357CF1092E50360CF0F931F93CE
:10255000CF93DF93C1E0D0E28091E303882309F4B5
:102560004CC08091E30381508093E303C0938A04BD
:102570000E94D4048091E1039091E203019690932C
:10258000E2038093E103809188049091890401968D
:10259000909389048093880480917E048150809375
:1025A0007E048091920490919304019690939304F9
:1025B000809392048091E1039091E203809761F609
:1025C0000091800410918104C8010E94E80B1092D0
:1025D0008A041092E2031092E103D0937E0480916A
:1025E0007D0480917D04882309F4B6CFC0938704CD
:1025F000C80180960E94DF06AFCFDF91CF911F9177
:102600000F9108950F931F93CF93DF93EC018C01EB
:1026100008531F4F8991882329F00E94E10BC017AE
:10262000D107C1F7DF91CF911F910F910895EF92DC
:10263000FF920F931F93CF93DF9300D000D000D071
:10264000CDB7DEB7972FE0E0E82E880FFF088E01A8
:102650000F5F1F4F862FB7010E9404249B01D801F2
:10266000AE0FB11D8C938A303CF5805D8C93EF5F8B
:10267000622F932F232B71F7E43040F4D801AE0F73
:10268000B11D80E3EF5F8D93E430E1F7E00FF12FB0
:10269000F11D1082F8017F01E01AF10A8191811188
:1026A000FACFE00EF11E0E151F0541F0F7018291E1
:1026B0007F010E94E10BF7CF895CD8CF85E091E0E4
:1026C00026960FB6F894DEBF0FBECDBFDF91CF9137
:1026D0001F910F91FF90EF900C9402138091C00016
:1026E00087FFFCCF8091C600089521E43FE140912F
:1026F000C00047FD07C021503109C9F70197A9F76C
:1027000080E0089581E0089593B566BD85BDA89BDE
:10271000FECFA89A15BC0895EF92FF920F931F93D6
:10272000CF93DF9383B1182F187083FDFBCF6CED2F
:1027300082E00E948413D0E0C0E000E0EE24E39445
:10274000F12C6CED82E00E9484131B9B08C0C70132
:102750000C2E01C0880F0A94EAF7182B0F5F219600
:10276000C830D10571F76CED82E00E9484131B9B89
:1027700002C000FD09C08091E7039091E803019633
:102780009093E8038093E7036CED82E00E9484134A
:102790006CED82E00E948413812FDF91CF911F9115
:1027A0000F91FF90EF900895CF92DF92EF92FF92FA
:1027B0001F93CF93DF937C01239A6CED82E00E94FC
:1027C0008413D0E0C0E010E0CC24C394D12CC60127
:1027D0000C2E02C0880F991F0A94E2F78E219F21C8
:1027E000892B09F123981F5F6CED82E00E9484130E
:1027F0002196C830D10559F710FF17C023986CED0A
:1028000082E00E94841323986CED82E00E9484137E
:102810006CED82E0DF91CF911F91FF90EF90DF9000
:10282000CF900C948413239ADFCF239AE8CF0F9391
:102830001F93CF93DF938C0185E590E00E94D41322
:1028400080EE90E00E94D413E8016096298188818F
:1028500090ED980F9A3014F099EC980F80ED820F5C
:102860008A3014F089EC820F9295907F890F082EA0
:10287000000C990B0E94D41322970C171D0731F7F7
:10288000DF91CF911F910F9108950F931F93CF93D5
:102890008C01C62F85E590E00E94D41384E490E07B
:1028A0000E94D41388E090E10E94D41380E190E06C
:1028B0000E94D4130E948C136EEC83E00E94841358
:1028C000C8010E94D4130E948C136EEC83E00E9416
:1028D000841385E590E00E94D41384E490E00E9484
:1028E000D41389E090E10E94D41380E190E00E942B
:1028F000D4130E948C136EEC83E00E94841382E157
:1029000090E00E94D4130E948C136EEC83E00E942E
:10291000841385E590E00E94D41384E490E00E9443
:10292000D41386E090E10E94D41380E190E00E94ED
:10293000D4130E948C136EEC83E00E9484138C2FBE
:1029400090E00E94D4130E948C136EEC83E00E94EE
:10295000841385E590E00E94D41384E490E00E9403
:10296000D41380E090E10E94D41380E190E00E94B3
:10297000D4130E948C136EEC83E00E94841387E0D2
:1029800090E00E94D4130E948C1362EB85E0CF91FB
:102990001F910F910C9484131092DD031092DE03AB
:1029A00081E08093DF0380916C00806180936C00F4
:1029B00078948091DE038823E1F3F89408951F92C0
:1029C0000F920FB60F9211248F93EF93FF93809184
:1029D000F103811105C081E08093AE041092810063
:1029E0008091F1038130C1F58091F0038330A1F52E
:1029F0001092F1038091EF0381508093EF031092C6
:102A0000810080916F008E7F80936F00809186049B
:102A10008F5F80938604809186048F7380938604F1
:102A2000E0918604F0E0EE0FFF1FE650FC4F1182AC
:102A30001082809186048F5F809386048091860443
:102A40008F7380938604E0918604F0E0EE0FFF1F01
:102A5000E650FC4F11821082FF91EF918F910F9001
:102A60000FBE0F901F9018951F920F920FB60F92E6
:102A700011242F933F934F935F938F939F93EF93E3
:102A8000FF9380919504883409F0D0C0E091C6008E
:102A9000E153E63108F0F7C0F0E0EF5AFA4E0C943B
:102AA0002C24671523162516271629162B162D16E6
:102AB0002F1631163F164316431643164316431678
:102AC000431633163516371639163B163D1681E078
:102AD00020918204309183042330310509F412C11E
:102AE0000CF0D3C02130310509F40CC1223031057E
:102AF00009F4E0C02091820430918304293031052B
:102B00000CF486C040918204509183042091EB0321
:102B10003091EC03421753070CF07AC020918204E5
:102B200030918304237033272130310541F490E143
:102B3000899F900111243093EE032093ED0320919F
:102B4000820430918304237033272230310551F4FD
:102B50002091ED033091EE03280F311D3093EE03E9
:102B60002093ED0320918204309183042370332756
:102B70002330310541F490E1899F90011124309375
:102B8000EA032093E90320918204309183042370A7
:102B90003327232BE9F52091E9033091EA03820FD3
:102BA000932F911D9093EA038093E9038091E903A9
:102BB0009091EA03982F88279093EA038093E90382
:102BC0008091E9039091EA032091ED033091EE03A7
:102BD000820F931F9093EE038093ED03E0918604A0
:102BE00081E08E0F809386048091ED039091EE0337
:102BF000F0E0EE0FFF1FE650FC4F91838083809141
:102C00008C0490918D04019690938D0480938C0494
:102C10008091820490918304019690938304809321
:102C20008204809186048F7380938604FF91EF91D4
:102C30009F918F915F914F913F912F910F900FBE78
:102C40000F901F90189582E043CF83E041CF84E03E
:102C50003FCF85E03DCF86E03BCF87E039CF88E0AE
:102C600037CF89E035CF8AE033CF8BE031CF8CE0AE
:102C70002FCF8DE02DCF8EE02BCF8FE029CF10927C
:102C800083041092820480E023CF2530310509F4BB
:102C900053C00CF440C02630310509F02BCF2091F1
:102CA000ED033091EE03280F311D3093EE03209396
:102CB000ED0316C02091ED033091EE03280F311D76
:102CC0003093EE032093ED032091ED033091EE035A
:102CD000220F331F275F3F4F3093EC032093EB030A
:102CE000E091860491E09E0F909386042091ED037D
:102CF0003091EE03F0E0EE0FFF1FE650FC4F318302
:102D00002083F8CE90E1899F900111243093EE0347
:102D10002093ED03EFCE2091ED033091EE03280FC9
:102D2000311D3093EE032093ED032091ED0330919C
:102D3000EE03322F2227EACF4091ED035091EE03AC
:102D400090E1899F90011124240F351FDFCF1F923E
:102D50000F920FB60F9211242F933F934F935F93CF
:102D60006F937F938F939F93AF93BF93EF93FF9353
:102D700034996AC080916C008F7E80936C00809142
:102D8000DF038130C9F516BC82E085BD84E687BDCE
:102D9000A99BFECF8FEF85BB449A87B5885387BD2B
:102DA000A99BFECF8FEF85BB3C9A87B5885387BD23
:102DB000A99BFECF8FEF85BB27E030E04FEF8091DE
:102DC0009404082E000C990B022E02C0959587954D
:102DD0000A94E2F780FF64C0449A87B5885387BDA0
:102DE000A99BFECF45BB2150310948F73C98449838
:102DF00081E08093DE0315BC8091DF03823021F5F2
:102E000016BC85BD84E687BDA99BFECF8FEF85BB31
:102E100088E090E04FEF27B5285327BDA99BFECF50
:102E200045BB2091DD03220F330B2093DD03349B40
:102E300005C02091DD0321602093DD03019759F740
:102E400015BC81E08093DC03339919C09FEF21EE1C
:102E500084E0915020408040E1F700C00000339BA7
:102E6000FECF9FEF21EE84E0915020408040E1F7BB
:102E700000C0000087E4809394040E94CC14FF916A
:102E8000EF91BF91AF919F918F917F916F915F91E2
:102E90004F913F912F910F900FBE0F901F9018955B
:102EA00044989BCFA89584B7877F84BF80916000AA
:102EB0008861809360001092600080917C00806443
:102EC00080937C0085B78F7E85BF14B817B81AB879
:102ED00087EF85B98FEF88B98BB962EB85E00E94E7
:102EE00084131092C1001092C50084E48093C40042
:102EF00082E08093C00088E18093C10086E08093E7
:102F0000C20080E090E29093B1048093B00480E02E
:102F100091E00E9402138AEF90E00E9475138823CB
:102F2000B1F38091C6008093AF048F7D823579F72D
:102F30008CEB93E00E94021387E091E00E94021361
:102F40000E946E13813611F00C94FA2286E696EEFA
:102F50000E94530078941B9B65C0239A00000000D8
:102F60000000000023981B9BFECF6CE983E00E94C9
:102F7000841385E590E00E94D41389EC90E00E94D0
:102F8000D4138DEF90E00E94D4136EEC83E00E9486
:102F9000841385E590E00E94D41382EC90E00E94B7
:102FA000D41386E490E00E94D4136EEC83E00E9478
:102FB00084138AEB93E00E94021385E590E00E945F
:102FC000D41385EE90E00E94D4131B9B04C0809123
:102FD000AE048823D1F38091AE0481111AC00E94FF
:102FE0008C1380939604C7E9D4E006E914E026EA3E
:102FF000E22E24E0F22E0E948C138993EC16FD063B
:10300000D1F7F80181918F010E94E10BC017D10720
:10301000C1F78091AE04882351F084E591E00E94CD
:103020000213FFCF8EE391E00E940213FFCFF894CA
:103030001092810080916F008E7F80936F008BE6ED
:1030400091E00E9402138AE891E00E9402130E941C
:103050006E13893709F0D7C083EA91E00E9402130A
:1030600083EB91E00E94171485E590E00E94D41351
:1030700087E890E00E94D4130E948C1383FD04C063
:1030800086EC91E00E9402136EEC83E00E948413B0
:1030900085E590E00E94D41388EC90E00E94D41360
:1030A00089E590E00E94D4136EEC83E00E948413C3
:1030B00085E590E00E94D41388EC90E00E94D41340
:1030C00090E080E00E94D4136EEC83E00E948413B1
:1030D0001092AE0490E080E00E94530078946EEC71
:1030E00083E00E94841385E590E00E94D4138BE86E
:1030F00090E00E94D4130E948C132091F20330912F
:10310000F3032F5F3F4F3093F3032093F20390912B
:10311000AE04911102C080FDE2CFF8948091AE041C
:10312000882309F46DC08AED91E00E9402138CEBB4
:1031300093E00E94021382E292E00E94171485E558
:1031400090E00E94D41387E890E00E94D4130E947C
:103150008C136EEC83E00E94841385E590E00E945E
:10316000D41388EC90E00E94D41389E590E00E948B
:10317000D4136EEC83E00E94841385E590E00E94F6
:10318000D41388EC90E00E94D41390E080E00E9479
:10319000D4136EEC83E00E9484131092AE0490E08E
:1031A00080E00E94530078946EEC83E00E948413C8
:1031B00085E590E00E94D4138BE890E00E94D41340
:1031C0000E948C132091F2033091F3032F5F3F4F45
:1031D0003093F3032093F2039091AE04911102C057
:1031E00083FFE2CFF8948091AE04882379F085E3E1
:1031F00092E00E94021388E492E00E940213FFCF43
:103200008AEF91E092CF8FE092E08FCF8AE592E053
:103210000E94021385E792E00E940213C0E0D1E110
:1032200085E590E00E94D41384E090E00E94D413DE
:10323000CE010E94D41381E190E00E94D4130E9439
:103240008C13682F70E080E10E9417136EEC83E00E
:103250000E9484132196C330F1E1DF0709F78CEB5C
:1032600093E00E94021380E992E00E94021360E062
:1032700080E892E10E94451460E081E892E10E94BA
:10328000451461E082E892E10E94451467EF85E809
:1032900092E10E9445146DEF86E892E10E94451488
:1032A00060E087E892E10E94451460E088E892E1DE
:1032B0000E94451484EA92E00E9402130E946E1359
:1032C000893709F0EBC788E48093950489EC92E094
:1032D0000E940213109293041092920410928D0493
:1032E00010928C0480E180938B0410928A041092D7
:1032F0008904109288041092870410928604109218
:1033000085041092840410928304109282048091A8
:10331000C10080688093C10078940E94620B0E9473
:10332000400B80918004909181040E94DF060E94EE
:10333000A612C0E2D0E00E94620B80917F04882335
:1033400061F180918404882329F0813009F10E9481
:10335000A612F1CF80917D0420917E04AE01481B1E
:10336000510987FD53952417150689F720917B0491
:1033700030917C04C901807E9F7190938104809379
:1033800080042F713327232B11F70E94DF06DFCF34
:103390000E94400B10928404DACFF8948091C1000F
:1033A0008F778093C1008AE090E00E94751381308E
:1033B00019F48091C600F7CF80917A0480FF27C06E
:1033C000E0918604F0E0EE0FFF1FE650FC4F118203
:1033D0001082809186048F5F809386040E94D404BB
:1033E000809192049091930401969093930480931A
:1033F000920421E020938A048091F8039091F903CC
:1034000001968F719927892B11F020938704809161
:10341000F703882309F470C580918A048111C6C11D
:1034200080918704882309F4C1C115BC16BC83B5FB
:10343000816083BD81E085BD82E487BD85E58093A1
:10344000F6031092F5031092F403A99BFECF239A82
:103450008FEF85BB87B58E5B87BD30E020E0E1E074
:10346000F0E06FEF8091F603AF01022E01C0440F30
:103470000A94EAF784238093F403882329F0909137
:10348000F5039F5F9093F503A99BFECF882309F472
:1034900053C7239865BB87B58E5B87BD2F5F3F4FB2
:1034A00028303105F9F68091F50380FF47C7109267
:1034B000F403A99BFECF8091F403882309F442C74B
:1034C00023988FEF85BB87B58E5B87BD81E08093A6
:1034D000F403A99BFECF23988FEF85BB87B58E5B46
:1034E00087BDA99BFECF8091F403882309F42CC7E4
:1034F00023988FEF85BB87B58E5B87BD1092F40351
:103500008CE090E03FEFA99BFECF2091F4032223B3
:1035100009F41CC7239835BB27B52E5B27BD01973F
:1035200091F781E08093F403A99BFECF23988FEF5E
:1035300085BB87B58E5B87BDA99BFECF8091F403C9
:10354000882309F405C723988FEF85BB87B58E5B69
:1035500087BD15BC16BC83B5816083BD81E085BD88
:1035600082E487BD85E58093F6031092F5031092FF
:10357000F403A99BFECF239A8FEF85BB87B58E5BA3
:1035800087BD30E020E0E1E0F0E06FEF8091F603EE
:10359000AF01022E01C0440F0A94EAF784238093FE
:1035A000F403882329F09091F5039F5F9093F5032E
:1035B000A99BFECF882309F4CDC6239865BB87B5A8
:1035C0008E5B87BD2F5F3F4F28303105F9F6809124
:1035D000F50380FFC1C681E08093F403A99BFECF71
:1035E0008091F403882309F4BAC623988FEF85BB32
:1035F00087B58E5B87BD81E08093F403A99BFECFE6
:1036000023988FEF85BB87B58E5B87BDA99BFECFC7
:103610008091F403882309F4A4C623988FEF85BB17
:1036200087B58E5B87BD89EC8093F6031092F50316
:103630001092F403A99BFECF239A8FEF85BB87B529
:103640008E5B87BD30E020E0E1E0F0E06FEF80913D
:10365000F603AF01022E01C0440F0A94EAF7842357
:103660008093F403882329F09091F5039F5F909352
:10367000F503A99BFECF882309F475C6239865BB83
:1036800087B58E5B87BD2F5F3F4F28303105F9F638
:103690008091F50380FF69C681E08093F403A99BC4
:1036A000FECF8091F403882309F462C623988FEF3C
:1036B00085BB87B58E5B87BD81E08093F403A99BB2
:1036C000FECF23988FEF85BB87B58E5B87BDA99B07
:1036D000FECF8091F403882309F44CC623988FEF22
:1036E00085BB87B58E5B87BD81E08093F603109222
:1036F000F5031092F403A99BFECF239A8FEF85BBAD
:1037000087B58E5B87BD30E020E0E1E0F0E06FEF51
:103710008091F603AF01022E01C0440F0A94EAF72C
:1037200084238093F403882329F09091F5039F5F0D
:103730009093F503A99BFECF882309F41DC6239817
:1037400065BB87B58E5B87BD2F5F3F4F2830310546
:10375000F9F68091F50380FF11C681E08093F403B0
:10376000A99BFECF8091F403882309F40AC623980D
:103770008FEF85BB87B58E5B87BD81E08093F403B7
:10378000A99BFECF23988FEF85BB87B58E5B87BD46
:10379000A99BFECF8091F403882309F4F4C52398F4
:1037A0008FEF85BB87B58E5B87BD15BC80918A0482
:1037B000882309F4CFC180918704882309F4CAC102
:1037C00015BC16BC83B5816083BD81E085BD82E4F4
:1037D00087BD85E58093F6031092F5031092F403FC
:1037E000A99BFECF239A8FEF85BB87B58E5B87BDE4
:1037F00030E020E0E1E0F0E06FEF8091F603AF0110
:10380000022E01C0440F0A94EAF784238093F40344
:10381000882329F09091F5039F5F9093F503A99B6E
:10382000FECF882309F4B1C5239865BB87B58E5BAD
:1038300087BD2F5F3F4F28303105F9F68091F503A2
:1038400080FFA5C51092F403A99BFECF8091F403DD
:10385000882309F4A0C523988FEF85BB87B58E5BBD
:1038600087BD81E08093F403A99BFECF23988FEF5F
:1038700085BB87B58E5B87BDA99BFECF8091F40386
:10388000882309F48AC523988FEF85BB87B58E5BA3
:1038900087BD1092F4038CE090E03FEFA99BFECF30
:1038A0002091F403222309F47AC5239835BB27B568
:1038B0002E5B27BD019791F781E08093F403A99BCC
:1038C000FECF23988FEF85BB87B58E5B87BDA99B05
:1038D000FECF8091F403882309F463C523988FEF0A
:1038E00085BB87B58E5B87BD15BC16BC83B5816073
:1038F00083BD81E085BD82E487BD85E58093F603C5
:103900001092F5031092F403A99BFECF239A8FEF38
:1039100085BB87B58E5B87BD30E020E0E1E0F0E05D
:103920006FEF8091F603AF01022E01C0440F0A949D
:10393000EAF784238093F403882329F09091F50318
:103940009F5F9093F503A99BFECF882309F42BC5B5
:10395000239865BB87B58E5B87BD2F5F3F4F2830AF
:103960003105F9F68091F50380FF1FC581E0809352
:10397000F403A99BFECF8091F403882309F418C5B2
:1039800023988FEF85BB87B58E5B87BD81E08093E1
:10399000F403A99BFECF23988FEF85BB87B58E5B81
:1039A00087BDA99BFECF8091F403882309F402C54B
:1039B00023988FEF85BB87B58E5B87BD89EC80939D
:1039C000F6031092F5031092F403A99BFECF239AFD
:1039D0008FEF85BB87B58E5B87BD30E020E0E1E0EF
:1039E000F0E06FEF8091F603AF01022E01C0440FAB
:1039F0000A94EAF784238093F403882329F09091B2
:103A0000F5039F5F9093F503A99BFECF882309F4EC
:103A1000D3C4239865BB87B58E5B87BD2F5F3F4FAF
:103A200028303105F9F68091F50380FFC7C481E0A5
:103A30008093F403A99BFECF8091F403882309F4BB
:103A4000C0C423988FEF85BB87B58E5B87BD81E0AF
:103A50008093F403A99BFECF23988FEF85BB87B596
:103A60008E5B87BDA99BFECF8091F403882309F468
:103A7000AAC423988FEF85BB87B58E5B87BD81E095
:103A80008093F6031092F5031092F403A99BFECFE6
:103A9000239A8FEF85BB87B58E5B87BD30E020E032
:103AA000E1E0F0E06FEF8091F603AF01022E01C07C
:103AB000440F0A94EAF784238093F403882329F0BF
:103AC0009091F5039F5F9093F503A99BFECF882308
:103AD00009F47BC4239865BB87B58E5B87BD2F5FD8
:103AE0003F4F28303105F9F68091F50380FF6FC410
:103AF00081E08093F403A99BFECF8091F403882397
:103B000009F468C423988FEF85BB87B58E5B87BDAA
:103B100081E08093F403A99BFECF23988FEF85BBB0
:103B200087B58E5B87BDA99BFECF8091F403882368
:103B300009F452C423988FEF85BB87B58E5B87BD90
:103B400015BC809180049091810480960E94E80BBE
:103B500010928A0480918A04882309F4CDC180914F
:103B600087048111C9C115BC16BC83B5816083BDB2
:103B700081E085BD82E487BD85E58093F6031092E0
:103B8000F5031092F403A99BFECF239A8FEF85BB18
:103B900087B58E5B87BD30E020E0E1E0F0E06FEFBD
:103BA0008091F603AF01022E01C0440F0A94EAF798
:103BB00084238093F403882329F09091F5039F5F79
:103BC0009093F503A99BFECF882309F407C423989B
:103BD00065BB87B58E5B87BD2F5F3F4F28303105B2
:103BE000F9F68091F50380FFFBC31092F403A99BC3
:103BF000FECF8091F403882309F4F6C323988FEF56
:103C000085BB87B58E5B87BD81E08093F403A99B5C
:103C1000FECF23988FEF85BB87B58E5B87BDA99BB1
:103C2000FECF8091F403882309F4E0C323988FEF3B
:103C300085BB87B58E5B87BD1092F4038CE090E066
:103C40003FEFA99BFECF2091F403222309F4D0C3B8
:103C5000239835BB27B52E5B27BD019791F781E0EF
:103C60008093F403A99BFECF23988FEF85BB87B584
:103C70008E5B87BDA99BFECF8091F403882309F456
:103C8000B9C323988FEF85BB87B58E5B87BD15BC05
:103C900016BC83B5816083BD81E085BD82E487BDAC
:103CA00085E58093F6031092F5031092F403A99B27
:103CB000FECF239A8FEF85BB87B58E5B87BD30E043
:103CC00020E0E1E0F0E06FEF8091F603AF01022E1B
:103CD00001C0440F0A94EAF784238093F4038823F5
:103CE00029F09091F5039F5F9093F503A99BFECF78
:103CF000882309F481C3239865BB87B58E5B87BD94
:103D00002F5F3F4F28303105F9F68091F50380FF92
:103D100075C381E08093F403A99BFECF8091F403E7
:103D2000882309F46EC323988FEF85BB87B58E5B1C
:103D300087BD81E08093F403A99BFECF23988FEF8A
:103D400085BB87B58E5B87BDA99BFECF8091F403B1
:103D5000882309F458C323988FEF85BB87B58E5B02
:103D600087BD89EC8093F6031092F5031092F4035B
:103D7000A99BFECF239A8FEF85BB87B58E5B87BD4E
:103D800030E020E0E1E0F0E06FEF8091F603AF017A
:103D9000022E01C0440F0A94EAF784238093F403AF
:103DA000882329F09091F5039F5F9093F503A99BD9
:103DB000FECF882309F429C3239865BB87B58E5BA2
:103DC00087BD2F5F3F4F28303105F9F68091F5030D
:103DD00080FF1DC381E08093F403A99BFECF8091F7
:103DE000F403882309F416C323988FEF85BB87B5A6
:103DF0008E5B87BD81E08093F403A99BFECF23985F
:103E00008FEF85BB87B58E5B87BDA99BFECF809169
:103E1000F403882309F400C323988FEF85BB87B58B
:103E20008E5B87BD81E08093F6031092F5031092BC
:103E3000F403A99BFECF239A8FEF85BB87B58E5BDA
:103E400087BD30E020E0E1E0F0E06FEF8091F60325
:103E5000AF01022E01C0440F0A94EAF78423809335
:103E6000F403882329F09091F5039F5F9093F50365
:103E7000A99BFECF882309F4D1C2239865BB87B5DF
:103E80008E5B87BD2F5F3F4F28303105F9F680915B
:103E9000F50380FFC5C281E08093F403A99BFECFA8
:103EA0008091F403882309F4BEC223988FEF85BB69
:103EB00087B58E5B87BD81E08093F403A99BFECF1D
:103EC00023988FEF85BB87B58E5B87BDA99BFECFFF
:103ED0008091F403882309F4A8C223988FEF85BB4F
:103EE00087B58E5B87BD15BC80918004909181045D
:103EF0000E94E80B10928A048091F7038111CEC1D1
:103F000080918A04882309F4C9C115BC16BC83B505
:103F1000816083BD81E085BD82E487BD85E58093B6
:103F2000F6031092F5031092F403A99BFECF239A97
:103F30008FEF85BB87B58E5B87BD30E020E0E1E089
:103F4000F0E06FEF8091F603AF01022E01C0440F45
:103F50000A94EAF784238093F403882329F090914C
:103F6000F5039F5F9093F503A99BFECF882309F487
:103F70005EC2239865BB87B58E5B87BD2F5F3F4FC1
:103F800028303105F9F68091F50380FF52C2109276
:103F9000F403A99BFECF8091F403882309F44DC25A
:103FA00023988FEF85BB87B58E5B87BD81E08093BB
:103FB000F403A99BFECF23988FEF85BB87B58E5B5B
:103FC00087BDA99BFECF8091F403882309F437C2F3
:103FD00023988FEF85BB87B58E5B87BD1092F40366
:103FE0008CE090E03FEFA99BFECF2091F4032223C9
:103FF00009F427C2239835BB27B52E5B27BD01974F
:1040000091F781E08093F403A99BFECF23988FEF73
:1040100085BB87B58E5B87BDA99BFECF8091F403DE
:10402000882309F410C223988FEF85BB87B58E5B78
:1040300087BD15BC16BC83B5816083BD81E085BD9D
:1040400082E487BD85E58093F6031092F503109214
:10405000F403A99BFECF239A8FEF85BB87B58E5BB8
:1040600087BD30E020E0E1E0F0E06FEF8091F60303
:10407000AF01022E01C0440F0A94EAF78423809313
:10408000F403882329F09091F5039F5F9093F50343
:10409000A99BFECF882309F4D8C1239865BB87B5B7
:1040A0008E5B87BD2F5F3F4F28303105F9F6809139
:1040B000F50380FFCCC181E08093F403A99BFECF80
:1040C0008091F403882309F4C5C123988FEF85BB41
:1040D00087B58E5B87BD81E08093F403A99BFECFFB
:1040E00023988FEF85BB87B58E5B87BDA99BFECFDD
:1040F0008091F403882309F4AFC123988FEF85BB27
:1041000087B58E5B87BD89EC8093F6031092F5032B
:104110001092F403A99BFECF239A8FEF85BB87B53E
:104120008E5B87BD30E020E0E1E0F0E06FEF809152
:10413000F603AF01022E01C0440F0A94EAF784236C
:104140008093F403882329F09091F5039F5F909367
:10415000F503A99BFECF882309F480C1239865BB92
:1041600087B58E5B87BD2F5F3F4F28303105F9F64D
:104170008091F50380FF74C181E08093F403A99BD3
:10418000FECF8091F403882309F46DC123988FEF4B
:1041900085BB87B58E5B87BD81E08093F403A99BC7
:1041A000FECF23988FEF85BB87B58E5B87BDA99B1C
:1041B000FECF8091F403882309F457C123988FEF31
:1041C00085BB87B58E5B87BD81E08093F603109237
:1041D000F5031092F403A99BFECF239A8FEF85BBC2
:1041E00087B58E5B87BD30E020E0E1E0F0E06FEF67
:1041F0008091F603AF01022E01C0440F0A94EAF742
:1042000084238093F403882329F09091F5039F5F22
:104210009093F503A99BFECF882309F428C1239826
:1042200065BB87B58E5B87BD2F5F3F4F283031055B
:10423000F9F68091F50380FF1CC181E08093F403BF
:10424000A99BFECF8091F403882309F415C123981C
:104250008FEF85BB87B58E5B87BD81E08093F403CC
:10426000A99BFECF23988FEF85BB87B58E5B87BD5B
:10427000A99BFECF8091F403882309F4FFC0239803
:104280008FEF85BB87B58E5B87BD15BC80918004A1
:10429000909181040E94E80B10928A0487ED92E0CD
:1042A0000E9402130E946E138091920490919304D5
:1042B000892B31F480E090E49093930480939204EE
:1042C00089EF92E00E9402130E946E13D82F803370
:1042D00009F02FC11092910410929004E090920482
:1042E000F090930486E193E00E9402130E946E1303
:1042F000182F80E880938500109284008FEF86BB92
:1043000084E080938100B09BFECFB09A1092810030
:1043100081E090E00E947513882321F08091C6000F
:10432000D12F182F85E090E00E947513813009F09D
:10433000A7C08091C600F6CF239AACC881E08093D5
:10434000F403B7C8239ABDC8239AD3C8239AE3C8F5
:10435000239AFAC8239A32C91092F4033FC9239AC8
:1043600045C9239A5BC9239A8AC91092F40397C955
:10437000239A9DC9239AB3C9239AE2C91092F403E0
:10438000EFC9239AF5C9239A0BCA239A4ECA81E032
:104390008093F40359CA239A5FCA239A75CA239A51
:1043A00085CA239A9CCA239AD4CA1092F403E1CAFC
:1043B000239AE7CA239AFDCA239A2CCB1092F403BE
:1043C00039CB239A3FCB239A55CB239A84CB109297
:1043D000F40391CB239A97CB239AADCB239AF8CBB6
:1043E00081E08093F40303CC239A09CC239A1FCC59
:1043F000239A2FCC239A46CC239A7ECC1092F40396
:104400008BCC239A91CC239AA7CC239AD6CC10920A
:10441000F403E3CC239AE9CC239AFFCC239A2ECD44
:104420001092F4033BCD239A41CD239A57CD239A82
:10443000A1CD81E08093F403ACCD239AB2CD239A31
:10444000C8CD239AD8CD239AEFCD239A27CE1092A8
:10445000F40334CE239A3ACE239A50CE239A7FCEB9
:104460001092F4038CCE239A92CE239AA8CE239A4C
:10447000D7CE1092F403E4CE239AEACE239A00CF4B
:1044800086EC8D0F873008F40AC1C0EDCD0FC7311F
:1044900008F005C186EC810F873008F400C180ED7B
:1044A000810F873108F0FBC0C13110F0C9ECCD0F8E
:1044B00050E1C502E0011124813110F089EC810F37
:1044C000C80FD11D87FDDA95BE0180E10E94171348
:1044D00083E091E00E94021388248394912C00E0F1
:1044E00010E8712C612C540191E0A91AB108E11473
:1044F000F10409F0D7C08CEB93E00E94021387E22D
:1045000093E00E94021360919204709193048AE0F8
:104510000E9417138AE393E00E94021360919004B3
:10452000709191048AE00E94171381E493E00E9445
:1045300002138AE493E00E940213CFE7D2E12196AE
:10454000CE01835892410297D0F385E590E00E9416
:10455000D41384E090E00E94D413CE010E94D413BF
:1045600082E190E00E94D4130E948C13682F70E0C7
:1045700080E10E941713C538E2E1DE0719F489E0F3
:104580000E94E10B6EEC83E00E948413C838F2E1D4
:10459000DF07A9F66EEC83E00E94841385E590E0C6
:1045A0000E94D41388EC90E00E94D41389E590E037
:1045B0000E94D4136EEC83E00E94841385E590E0A2
:1045C0000E94D41388EC90E00E94D41390E080E025
:1045D0000E94D4136EEC83E00E94841385E590E082
:1045E0000E94D41383EC90E00E94D41387EE90E0F5
:1045F0000E94D4138FE793E00E9402130E946E136F
:10460000893709F0D2C08091680082608093680089
:1046100080916C00886080936C00449886E480935D
:1046200094040E94CC1412E678948FEB93E00E94DD
:1046300002138AEF90E00E9475138823B1F3C091B2
:10464000C600C093AF04C63611F0C93671F78CEBC3
:1046500093E00E940213C93639F788EC93E00E9478
:104660000213C1E6D0E0109394040E94CC14C093CE
:1046700094040E94CC14D09394040E94CC142FEF85
:1046800046E751E0215040405040E1F700C00000B3
:10469000DF5FD83041F7CF5FC83621F7C5CFD0E014
:1046A000C0E012CF6801E0E8CE0ED11CC8010E9424
:1046B00062001C0190938F0480938E040E5F1F4F45
:1046C0004090B0045090B1040415150509F413CFBF
:1046D000019609F075C00C151D0541F70CCF65E07A
:1046E00070E00E941824892B19F48AE20E94E10BE1
:1046F00080919004909191040196909391048093FD
:104700009004670141E0C41AD10858E0E51AF108A5
:1047100062EB87E00E94D40BC8010E9462009C01FA
:1047200090938F0480938E040E5F1F4F2F3F3207AC
:1047300011F191E0C91AD108209751F0C501BE01CD
:104740000E941824892B21F4B90180E10E941713DB
:10475000809190049091910401969093910480939C
:1047600090044016510609F44BC0CE14DF0481F6C4
:10477000209719F415C0209779F0C501BE010E9459
:104780001824892B49F4C30187709927892B21F4B8
:104790008CEB93E00E9402134016510609F4ABCE55
:1047A0008FEF881A980A76019ECE88E199E00FB6BD
:1047B000F894A895809360000FBE90936000FFCF9F
:1047C000C501209709F48BCFBE010E941824892BC4
:1047D00009F08ECF88E493E00E940213B801625082
:1047E000704880E10E94171385E091E00E94021357
:1047F0002FEF621A720AB10180E10E94171378CF7D
:10480000209709F0BACF77CEAA1BBB1B51E107C096
:10481000AA1FBB1FA617B70710F0A61BB70B881F50
:10482000991F5A95A9F780959095BC01CD010895DF
:1048300097FB072E16F4009407D077FD09D00E944D
:10484000042407FC05D03EF4909581959F4F089570
:10485000709561957F4F0895EE0FFF1F0590F491BD
:08486000E02D0994F894FFCF4C
:10486800523F20202020000D0A50726573732027C4
:10487800612720746F2070726F6772616D20746198
:1048880072676574206F7220414F4B20746F2072DD
:10489800756E20746167657420636F646500446594
:1048A80076696365206E6F742064657465637465EA
:1048B800640D0A00506F776572204379636C652038
:1048C80052657175697265640D0A000D0A496E6951
:1048D8007469616C6973696E67204E564D207072F9
:1048E8006F6772616D6D696E67000D0A457261735D
:1048F8006520636869703F202D792D206F722041F3
:104908004F4B000945726173696E6720636869706F
:104918000D0A00307834453536344434353732366C
:104928003137333635000D0A436869702065726186
:104938007365206661696C6564000D0A4661696C7F
:104948007572653A20446576696365207374696C8D
:104958006C206C6F636B656409000D0A44657669A9
:10496800636520756E6C6F636B65640909090009DE
:1049780043686970206E6F74206572617365640D99
:104988000A003078344535363444353037323646C7
:1049980036373230004E564D50524F4720666169C7
:1049A8006C7572653A2009000D0A504F5220746FD9
:1049B8002070726F636565642100526561647920B7
:1049C800666F72204E564D2070726F6772616D6D02
:1049D800696E6709000D0A5369676E6174757265BF
:1049E800206279746520726561646F7574090900C5
:1049F80050726F6772616D6D696E67206675736559
:104A0800730D0A000D0A50726F6772616D20666C33
:104A18006173682077697468206865783F202D790C
:104A28002D206F7220414F4B000D0A53656E642094
:104A380066696C652020000D0A5665726966796999
:104A48006E6720666C6173683A20414B20746F2052
:104A5800636F6E74696E7565000D0A5072657373C5
:104A68002030206F7220414F4B20746F2065736394
:104A78006170650D0A00496E746567657228302D8E
:104A88004646293F2020000D0A4865785F66696C14
:104A9800655F73697A653A20200020696E3A2020A4
:104AA80000206F75740D0A000D000D0A46757365B8
:104AB800733A095744542C20424F442C204F5343F7
:104AC8002C5359533009535953312C2041505045D8
:104AD8004E442C20424F4F54454E440D0A09000DB8
:104AE8000A0D0A52756E20747269616C20617070CB
:104AF8006C69636174696F6E3F202D792D206F7228
:104B080020414F4B2028504F52206D61792062651B
:104B1800207265717569726564290D0A0D0A00664F
:104B28002F693F20202020005365676D656E742033
:084B3800646973706C6179007F
:00000001FF
