:020000040000FA
:100000000C9475000C9487000C9487000C94D50216
:100010000C9472020C94D4000C9487000C9487000A
:100020000C9487000C9487000C9487000C94870034
:100030000C9487000C9487000C9487000C94870024
:100040000C9487000C9487000C9487000C94870014
:100050000C9487000C9487000C9487000C94870004
:100060000C9487000C94870007634236B79BD8A78F
:100070001A39685618AEBAAB558C1D3CB7CC5763CD
:10008000BD6DEDFD753EF6177231BF000000803F7B
:1000900008000000BE922449123EABAAAA2ABECD97
:1000A000CCCC4C3E00000080BEABAAAAAA3E000009
:1000B0000000BF000000803F000000000008417801
:1000C000D3BB4387D1133D190E3CC3BD4282AD2B38
:1000D0003E68EC8276BED98FE1A93E4C80EFFFBE30
:1000E00001C4FF7F3F000000000011241FBECFEFBE
:1000F000D8E0DEBFCDBF21E0A0E0B1E001C01D929D
:10010000A731B207E1F70E9470030C940D090C941B
:1001100000008AE090E022EB37E02093B2003093B9
:10012000B100B89BFECFB89A1092B1000197A9F721
:1001300008951092000181E08093010180916B008D
:10014000806180936B00809100018823E1F3089522
:10015000EF92FF920F931F93CF93DF937B018C015C
:10016000C8E6D0E088818D7F888384E4809316017F
:100170000E949900E09216010E949900F0921601E7
:100180000E949900009316010E9499001093160195
:100190000E949900888182608883DF91CF911F91AE
:1001A0000F91FF90EF9008951F920F920FB60F924C
:1001B0001124DF92EF92FF920F931F932F933F939F
:1001C0004F935F936F937F938F939F93AF93BF935F
:1001D000CF93DF93EF93FF934A9B04C04D9B02C0E4
:1001E0004F996FC04F9B28C010E305E68DE2F82EB3
:1001F00090EBE92E22E4D22E4A990EC180916D0037
:100200008F7780936D004F9BB0C080910E018F77E8
:1002100080930E01893309F49CC0853609F4EBC044
:100220008D3209F0F1C080910601882309F4DAC00B
:10023000863009F4D7C099C04D995BC0789483E6A5
:10024000809316010E949900F8944F9BFECF4D9B1E
:10025000FCCF10920F011092100110921101109218
:10026000120110921301109214011092150180E3F3
:1002700080930E018FB780930D0178948091680070
:100280008B7F8093680081E4809316010E9499001F
:10029000CEE0D1E08991809316010E94990021E07F
:1002A000C631D207B9F780910C01809316010E94E4
:1002B000990080910D018FBF8091680084608093C8
:1002C0006800FF91EF91DF91CF91BF91AF919F9126
:1002D0008F917F916F915F914F913F912F911F91DE
:1002E0000F91FF90EF90DF900F900FBE0F901F9037
:1002F000189581E080930B0180930A018FB780935A
:100300000D017894809168008B7F8093680082E46F
:10031000809316010E949900CEE0D1E006E111E041
:100320008991809316010E9499000C171D07C1F74F
:1003300080910C01809316010E94990080910D011B
:100340008FBF809168008460809368004F9BFECFD0
:10035000B8CF80910601833009F44AC00CF03EC04A
:10036000882309F442C08130E9F14F990EC0809191
:10037000090181110AC080910E018068982F9F7732
:10038000993309F045C0E0920E018FB780930D01BB
:100390007894809168008B7F80936800D0921601DA
:1003A0000E949900CEE0D1E08991809316010E94CD
:1003B000990081E0C631D807B9F780910C0180938C
:1003C00016010E94990080910D018FBF80916800F5
:1003D0008460809368000E9489000ECF863029F0E7
:1003E000873019F610930E01C0CFF0920E01BDCFE9
:1003F00000930E01BACF8091060187FDB6CF8230FF
:100400008CF3833079F3B1CF8F5F80930E01ADCF42
:100410008F5F80930E01B9CF4F9BFECF80916D000F
:10042000806880936D004D9957C080910E0187FFC1
:1004300007C081E08093090181E08093070107C034
:100440008536D1F781E080930801109207018091F1
:10045000080124E08202C001112420910901220F29
:10046000330B822B90910701892B8093060105E1C4
:1004700011E0E8018A91898381E0CE30D80781F5C7
:1004800080E380930E018FB780930D017894809163
:1004900068008B7F8093680082E4809316010E943D
:1004A0009900095F1F4F8991809316010E9499005E
:1004B000C017D107C1F780910C01809316010E94EB
:1004C000990080910D018FBF8091680084608093B6
:1004D000680081E080930B010E948900DA9AF1CED6
:1004E0008E01C7CF1F920F920FB60F9211242F9338
:1004F0003F934F935F936F937F938F939F93AF93AC
:10050000BF93EF93FF9335993FC02FE788E391E0C6
:10051000215080409040E1F700C00000359934C080
:100520002FE78CEF9AE0215080409040E1F700C027
:100530000000359B15C08CEF93E00E946A05682F80
:100540006D7F8CEF93E00E94720588E199E00FB611
:10055000F894A895809360000FBE90936000FFCF41
:10056000299A289A2FEF84E39CE021508040904004
:10057000E1F700C000003599E8CF789487E48093D4
:1005800016010E949900E1CFFF91EF91BF91AF91C9
:100590009F918F917F916F915F914F913F912F919B
:1005A0000F900FBE0F901F9018951F920F920FB6CD
:1005B0000F9211242F933F934F938F939F931C99E6
:1005C00083C080916B008F7E80936B0080910101CE
:1005D000813009F047C016BC17BC82E085BD809110
:1005E00004019091050197FD01969595879587BD2A
:1005F000A99BFECF8FEF85BB2C9A87B59091040104
:10060000890F87BDA99BFECF8FEF85BB249A87B545
:1006100090910401890F87BDA99BFECF8FEF85BB09
:1006200027E030E04FEF80911601082E000C990B67
:10063000022E02C0959587950A94E2F780FF4EC07E
:100640002C9A87B590910401890F87BDA99BFECF95
:1006500045BB2150310938F724982C9881E08093CC
:10066000000115BC80910101823071F516BC17BCE8
:1006700085BD809104019091050197FD01969595A6
:10068000879587BDA99BFECF8FEF85BB88E090E063
:100690004FEF27B530910401230F27BDA99BFECF53
:1006A00045BB20910301220F330B209303011C9BB8
:1006B00005C020910301216020930301019749F7B0
:1006C00015BC81E0809302019F918F914F913F91E2
:1006D0002F910F900FBE0F901F9018952C98B1CFAF
:1006E000CF93DF9300D000D0CDB7DEB7A89584B705
:1006F000877F84BF80916000886180936000109242
:10070000600080917C00806480937C0085B78F7E40
:1007100085BF14B817B81AB88FEF85B988B98BB9E7
:100720008FEF93E00E946A05F82E80EF8F0D803ED8
:1007300040F48EEF93E00E946A05F81202C0F09236
:10074000660086EF93E00E946A05F82E2FEC821770
:1007500094F081E38F157CF087EF93E00E946A05A7
:10076000F81209C08F2DFF0C990B88539F4F90935F
:100770000501809304018091680082608093680085
:1007800080916C00806280936C0080916800816031
:100790008093680080916B00806180936B002C983F
:1007A00084B1836084B92998289878941092C10004
:1007B0001092C50080E18093C40082E08093C00065
:1007C00088E18093C10086E08093C200EFE3FCE9FA
:1007D0003197F1F700C0000010920A0183E6809380
:1007E00016010E94990080916800846080936800DF
:1007F00080916D00846280936D0010920F011092C1
:100800001001109211011092120110921301109216
:1008100014011092150180E380930E018FB780932D
:100820000D017894809168008B7F8093680081E44B
:10083000809316010E9499003EE0C32E31E0D32E32
:1008400046E1A42E41E0B42E7601F70181917F01AB
:10085000809316010E949900AE14BF04B1F78091F5
:100860000C01809316010E94990080910D018FBFA9
:100870008091680084608093680080910A018111F2
:1008800004C080910B018823C1F380916D008068C2
:1008900080936D0010920B0180910A01882369F307
:1008A00010920A0181E080930C018FB780930D01B3
:1008B0007894809168008B7F8093680082E48093B5
:1008C00016010E949900F60181916F018093160133
:1008D0000E949900CE14DF04B1F780910C0180933F
:1008E00016010E94990080910D018FBF80916800D0
:1008F00084608093680010920C018FB780930D0183
:10090000789485E4809316010E949900FE01319647
:1009100092E09E012B5F3F4F109203011092020163
:100920009093010180916B00806180936B008091B6
:1009300002018823E1F3809103018193E217F30719
:1009400059F780910D018FBF80916D008B7D809351
:100950006D0080916D008F7780936D00C980DA8083
:10096000EB80FC8020E030E0A901C701B6010E94C5
:10097000ED0587FF11C0FFEF24E38CE0F15020402C
:100980008040E1F700C00000F7FAF094F7F8F09427
:10099000C701B6010E94A80020E030E040E85FE314
:1009A000C701B6010E94A40687FD19C010E000E04F
:1009B00020E030E040E050E4C701B6010E94A40608
:1009C00087FD0DC020E030E040E05FE3C701B601E5
:1009D0000E94A9066B017C010F5F1F4FE9CF20E049
:1009E00030E040E85FE3C701B6010E94ED0587FFF4
:1009F00014C010E000E0A7019601C701B6010E94F3
:100A000081056B017C010150110920E030E040E8D4
:100A10005FE30E94ED0587FDEECF4801110FAA08A4
:100A2000BB088B2DBB2787FDB0959B2FAB2F782E56
:100A3000C501BB2797FDB095AB2F682E592C23E439
:100A4000422E4A99FECFC701B6010E94A8004F99D5
:100A5000FECF809168008D7F8093680040921601E0
:100A60000E949900709216010E94990060921601EE
:100A70000E949900509216010E949900009316015D
:100A80000E949900809168008260809368004A9972
:100A9000FECFC501B4010E94F4059B01AC0160E0EA
:100AA00070E080E090E40E941607A70196010E9482
:100AB000A9060E94A8004F99FECF4D99C2CF88E1A8
:100AC00099E00FB6F894A895809360000FBE9093BC
:100AD0006000FFCFF999FECF92BD81BDF89A9927AA
:100AE00080B50895262FF999FECF1FBA92BD81BD1A
:100AF00020BD0FB6F894FA9AF99A0FBE01960895A0
:100B00005058BB27AA270E9498050C946A060E9499
:100B10005C0638F00E94630620F039F49F3F19F418
:100B200026F40C9459060EF4E095E7FB0C9453065A
:100B3000E92F0E947B0658F3BA17620773078407F0
:100B4000950720F079F4A6F50C949D060EF4E09537
:100B50000B2EBA2FA02D0B01B90190010C01CA0177
:100B6000A0011124FF27591B99F0593F50F4503E22
:100B700068F11A16F040A22F232F342F4427585F14
:100B8000F3CF469537952795A795F0405395C9F72C
:100B90007EF41F16BA0B620B730B840BBAF09150E4
:100BA000A1F0FF0FBB1F661F771F881FC2F70EC083
:100BB000BA0F621F731F841F48F487957795679556
:100BC000B795F7959E3F08F0B0CF9395880F08F042
:100BD0009927EE0F9795879508950E942F0608F4A0
:100BE00081E00895E89409C097FB3EF490958095C4
:100BF000709561957F4F8F4F9F4F9923A9F0F92FE3
:100C000096E9BB279395F695879577956795B79560
:100C1000F111F8CFFAF4BB0F11F460FF1BC06F5F46
:100C20007F4F8F4F9F4F16C0882311F096E911C058
:100C3000772321F09EE8872F762F05C0662371F079
:100C400096E8862F70E060E02AF09A95660F771F8D
:100C5000881FDAF7880F9695879597F90895990F69
:100C60000008550FAA0BE0E8FEEF16161706E80776
:100C7000F907C0F012161306E407F50798F0621B97
:100C8000730B840B950B39F40A2661F0232B242B6C
:100C9000252B21F408950A2609F4A140A6958FEF8B
:100CA000811D811D089597F99F6780E870E060E0DD
:100CB00008959FEF80EC089500240A9416161706F5
:100CC00018060906089500240A941216130614063D
:100CD00005060895092E0394000C11F4882352F0A0
:100CE000BB0F40F4BF2B11F460FF04C06F5F7F4F58
:100CF0008F4F9F4F089557FD9058440F551F59F03F
:100D00005F3F71F04795880F97FB991F61F09F3FF8
:100D100079F087950895121613061406551FF2CF21
:100D20004695F1DF08C0161617061806991FF1CF71
:100D300086957105610508940895E894BB27662798
:100D40007727CB0197F908950E942F0608F48FEFBB
:100D500008950E94BC060C946A060E945C0638F056
:100D60000E94630620F0952311F00C9453060C9416
:100D7000590611240C949E060E947B0670F3959FE1
:100D8000C1F3950F50E0551F629FF001729FBB2782
:100D9000F00DB11D639FAA27F00DB11DAA1F649F1E
:100DA0006627B00DA11D661F829F2227B00DA11DD1
:100DB000621F739FB00DA11D621F839FA00D611D57
:100DC000221F749F3327A00D611D231F849F600D78
:100DD000211D822F762F6A2F11249F5750409AF0A1
:100DE000F1F088234AF0EE0FFF1FBB1F661F771F2D
:100DF000881F91505040A9F79E3F510580F00C94F8
:100E000053060C949E065F3FE4F3983ED4F3869518
:100E100077956795B795F795E7959F5FC1F7FE2B97
:100E2000880F911D9695879597F90895FA01EE0F11
:100E3000FF1F309621053105A1F16115710561F49F
:100E40008038BFE39B0749F168949038810561F0D1
:100E50008038BFEF9B0741F099234AF5FF3FE1053A
:100E60003105210519F1E8940894E795D901AA23E1
:100E700029F4AB2FBE2FF85FD0F310C0FF5F70F4E2
:100E8000A695E0F7F73950F019F0FF3A38F49F775C
:100E90009F930DD00F9007FC9058089546F00C9446
:100EA000590660E070E080E89FE308954FE79F7780
:100EB0005F934F933F932F930E9411082F913F917F
:100EC0004F915F910E94A9060C946E0729F416F0C9
:100ED0000C9453060C949D060C9459060E948306AC
:100EE000A8F39638A0F707F80F92E8942BE33AEAB4
:100EF00048EB5FE70E94BF060F920F920F924DB72B
:100F00005EB70F920E945908E8E6F0E00E94A00741
:100F10004F915F91EF91FF91E595EE1FFF1F49F013
:100F2000FE57E0684427EE0F441FFA95E1F741951C
:100F3000550B0E94D3070F9007FE0C94C707089526
:100F4000DF93CF931F930F93FF92EF92DF927B017A
:100F50008C01689406C0DA2EEF010E94BC06FE01E7
:100F6000E894A5912591359145915591A6F3EF010E
:100F70000E949805FE019701A801DA9469F7DF90B5
:100F8000EF90FF900F911F91CF91DF9108959B01FA
:100F9000AC0160E070E080E89FE30C948D080C9455
:100FA00053060C94FF080E948306D8F39923C9F3D3
:100FB000940F511DA3F39150504094F059F08823A1
:100FC00032F0660F771F881F91505040C1F79E3F47
:100FD00051052CF7880F911D9695879597F90895DF
:100FE0005F3FACF0983E9CF0BB2786957795679560
:100FF000B79508F4B1609395C1F7BB0F58F711F49A
:1010000060FFE8CF6F5F7F4F8F4F9F4FE3CF0C9410
:101010009E0616F00C94FF080C94590668940C94E4
:1010200053060E948306A8F39923C1F3AEF3DF931E
:10103000CF931F930F93FF92C92FDD2788232AF0A8
:101040002197660F771F881FDAF720E030E040E82D
:101050005FEB9FE3883920F0803E38F021968F7750
:101060000E948105E0E9F0E004C00E948105EDEBFB
:10107000F0E00E94A0078B01BE01EC01FB2E6F5730
:1010800071097595771F880B990B0E94F40528E16B
:1010900032E741E35FE30E94BC06AF2D9801AE0149
:1010A000FF900F911F91CF91DF910E9498050C94B2
:1010B0006A06FA01DC01AA0FBB1F9B01AC01BF57F6
:1010C00028F4222733274427507820C0B75190F4C2
:1010D000AB2F0024469537952795011CA395D2F395
:1010E000002071F0220F331F441FB395DAF30ED0A6
:1010F0000C94800561307105A0E88A07B94630F488
:101100009B01AC016627772788279078309621F0DD
:10111000208331834283538308950E94A1080C9455
:101120006A060E94630658F00E945C0640F029F4AB
:101130005F3F29F00C94530651110C949E060C94B9
:1011400059060E947B0668F39923B1F3552391F366
:10115000951B550BBB27AA2762177307840738F026
:101160009F5F5F4F220F331F441FAA1FA9F335D083
:101170000E2E3AF0E0E832D091505040E695001C37
:10118000CAF72BD0FE2F29D0660F771F881FBB1FF1
:10119000261737074807AB07B0E809F0BB0B802DCF
:1011A000BF01FF2793585F4F3AF09E3F510578F0FB
:1011B0000C9453060C949E065F3FE4F3983ED4F3E0
:1011C000869577956795B795F7959F5FC9F7880FCF
:1011D000911D9695879597F90895E1E0660F771F21
:1011E000881FBB1F621773078407BA0720F0621BB2
:1011F000730B840BBA0BEE1F88F7E09508959F3FA1
:1012000031F0915020F4879577956795B795880FC1
:0E121000911D9695879597F90895F894FFCF54
:107E0000112484B714BE81FFF0D085E080938100F7
:107E100082E08093C00088E18093C10086E0809377
:107E2000C20080E18093C4008EE0C9D0259A86E02C
:107E300020E33CEF91E0309385002093840096BBD3
:107E4000B09BFECF1D9AA8958150A9F7CC24DD24C4
:107E500088248394B5E0AB2EA1E19A2EF3E0BF2EE7
:107E6000A2D0813461F49FD0082FAFD0023811F036
:107E7000013811F484E001C083E08DD089C08234E0
:107E800011F484E103C0853419F485E0A6D080C0E4
:107E9000853579F488D0E82EFF2485D0082F10E0AE
:107EA000102F00270E291F29000F111F8ED06801E7
:107EB0006FC0863521F484E090D080E0DECF843638
:107EC00009F040C070D06FD0082F6DD080E0C81688
:107ED00080E7D80618F4F601B7BEE895C0E0D1E017
:107EE00062D089930C17E1F7F0E0CF16F0E7DF06D8
:107EF00018F0F601B7BEE89568D007B600FCFDCFD4
:107F0000A601A0E0B1E02C9130E011968C91119780
:107F100090E0982F8827822B932B1296FA010C0160
:107F200087BEE89511244E5F5F4FF1E0A038BF0790
:107F300051F7F601A7BEE89507B600FCFDCF97BE46
:107F4000E89526C08437B1F42ED02DD0F82E2BD052
:107F50003CD0F601EF2C8F010F5F1F4F84911BD097
:107F6000EA94F801C1F70894C11CD11CFA94CF0C13
:107F7000D11C0EC0853739F428D08EE10CD085E9AC
:107F80000AD08FE07ACF813511F488E018D01DD067
:107F900080E101D065CF982F8091C00085FFFCCF94
:107FA0009093C60008958091C00087FFFCCF809118
:107FB000C00084FD01C0A8958091C6000895E0E648
:107FC000F0E098E1908380830895EDDF803219F02E
:107FD00088E0F5DFFFCF84E1DECF1F93182FE3DFCA
:107FE0001150E9F7F2DF1F91089580E0E8DFEE27F6
:047FF000FF270994CA
:027FFE00040479
:00000001FF
