:020000040000FA
:100000000C9434000C9446000C9446000C945B0154
:100010000C94F8000C9497000C9446000C94570034
:100020000C9446000C9446000C9446000C94460038
:100030000C9446000C9446000C9446000C94460028
:100040000C9446000C9446000C9446000C94460018
:100050000C9446000C9446000C9446000C94460008
:100060000C9446000C94460011241FBECFEFD8E03C
:10007000DEBFCDBF21E0A0E0B1E001C01D92A23102
:10008000B207E1F70E94F7010C94E3020C94000020
:100090001092020181E08093030180916B008061E6
:1000A00080936B00809102018823E1F308951F92F1
:1000B0000F920FB60F9211248F939F93AF93BF931C
:1000C00080910E0190910F01A0911001B09111014A
:1000D0000196A11DB11D80930E0190930F01A09375
:1000E0001001B09311018091B300875D8093B3003C
:1000F00080910D018F5F80930D0180910C018F5FC6
:1001000080930C0180910C01833641F48FEF809332
:100110000C018091B30084508093B300BF91AF91E4
:100120009F918F910F900FBE0F901F9018951F9267
:100130000F920FB60F9211242F933F934F935F931B
:100140006F937F938F939F93AF93BF93EF93FF939F
:100150004A9B04C04D9B02C04F9939C04D991DC0A8
:1001600080916D008F7D80936D0080910E01909144
:100170000F01A0911001B09111018093080190939B
:100180000901A0930A01B0930B0181E0809307015C
:1001900080916D00846080936D004A9910C08091B9
:1001A0006D008B7F80936D008FE4809306017894BF
:1001B0000E94480080916D00806280936D004F998D
:1001C00006C0789487E4809306010E944800FF915E
:1001D000EF91BF91AF919F918F917F916F915F91BF
:1001E0004F913F912F910F900FBE0F901F90189538
:1001F0001F920F920FB60F9211242F933F934F939C
:100200005F936F937F938F939F93AF93BF93EF937E
:10021000FF9335993FC02FE788E391E0215080405C
:100220009040E1F700C00000359934C02FE78CEF13
:100230009AE0215080409040E1F700C00000359BDB
:1002400015C08CEF93E00E94CD02682F6D7F8CEF7C
:1002500093E00E94D50288E199E00FB6F894A89542
:10026000809360000FBE90936000FFCF299A289A78
:100270002FEF84E39CE0215080409040E1F700C0E4
:1002800000003599E8CF789487E4809306010E94B6
:100290004800E1CFFF91EF91BF91AF919F918F9176
:1002A0007F916F915F914F913F912F910F900FBE72
:1002B0000F901F9018951F920F920FB60F92112456
:1002C0002F933F934F938F939F9378941C9983C060
:1002D00080916B008F7E80936B0080910301813051
:1002E00009F047C016BC17BC82E085BD80910401AF
:1002F0009091050197FD01969595879587BDA99BDE
:10030000FECF8FEF85BB2C9A87B590910401890FA2
:1003100087BDA99BFECF8FEF85BB249A87B59091AF
:100320000401890F87BDA99BFECF8FEF85BB27E016
:1003300030E04FEF80910601082E000C990B022E41
:1003400002C0959587950A94E2F780FF4EC02C9ADB
:1003500087B590910401890F87BDA99BFECF45BB4E
:100360002150310938F724982C9881E080930201BC
:1003700015BC80910301823071F516BC17BC85BD98
:10038000809104019091050197FD019695958795BF
:1003900087BDA99BFECF8FEF85BB88E090E04FEF34
:1003A00027B530910401230F27BDA99BFECF45BB84
:1003B00020910101220F330B209301011C9B05C0EA
:1003C00020910101216020930101019749F715BC9B
:1003D00081E0809300019F918F914F913F912F91E8
:1003E0000F900FBE0F901F9018952C98B1CFA89525
:1003F00084B7877F84BF80916000886180936000AC
:100400001092600080917C00806480937C0085B7AE
:100410008F7E85BF14B817B81AB88FEF85B988B921
:100420008BB98FEF93E00E94CD02C82F80EF8C0F25
:10043000803E40F48EEF93E00E94CD02C81302C0CC
:10044000C093660086EF93E00E94CD02C82F8F3CD8
:100450008CF082337CF487EF93E00E94CD02C813C6
:1004600009C08C2FCC0F990B88539F4F9093050197
:10047000809304018091680082608093680080917D
:100480006C00806280936C00809168008160809332
:10049000680080916B00806180936B002C9884B120
:1004A000836084B92998289880E28093B6001092DE
:1004B000B2001092B0008091B10082608093B100D0
:1004C0001092B400789486E4809306010E9448005C
:1004D0004D99FECF78941092070110920E01109260
:1004E0000F01109210011092110110920C01109244
:1004F000B20089E28093B3008091700082608093A3
:1005000070008091680084608093680080916D0025
:10051000846A80936D00CBE4DEE4809107019091C2
:100520000D019431E4F310920D01882389F181309B
:10053000B1F7C0900801D0900901E0900A01F09055
:100540000B01D09306010E9448008F2DBB2787FD29
:10055000B0959B2FAB2F809306010E944800C701E6
:10056000BB2797FDB095AB2F809306010E944800F2
:10057000BB27F7FCBA95AF2D9E2D8D2D80930601DC
:100580000E944800C09206010E9448001092070194
:10059000C09306010E944800C0CFF999FECF92BDDA
:1005A00081BDF89A992780B50895262FF999FECF35
:1005B0001FBA92BD81BD20BD0FB6F894FA9AF99A80
:0A05C0000FBE01960895F894FFCFD6
:107E0000112484B714BE81FFF0D085E080938100F7
:107E100082E08093C00088E18093C10086E0809377
:107E2000C20080E18093C4008EE0C9D0259A86E02C
:107E300020E33CEF91E0309385002093840096BBD3
:107E4000B09BFECF1D9AA8958150A9F7CC24DD24C4
:107E500088248394B5E0AB2EA1E19A2EF3E0BF2EE7
:107E6000A2D0813461F49FD0082FAFD0023811F036
:107E7000013811F484E001C083E08DD089C08234E0
:107E800011F484E103C0853419F485E0A6D080C0E4
:107E9000853579F488D0E82EFF2485D0082F10E0AE
:107EA000102F00270E291F29000F111F8ED06801E7
:107EB0006FC0863521F484E090D080E0DECF843638
:107EC00009F040C070D06FD0082F6DD080E0C81688
:107ED00080E7D80618F4F601B7BEE895C0E0D1E017
:107EE00062D089930C17E1F7F0E0CF16F0E7DF06D8
:107EF00018F0F601B7BEE89568D007B600FCFDCFD4
:107F0000A601A0E0B1E02C9130E011968C91119780
:107F100090E0982F8827822B932B1296FA010C0160
:107F200087BEE89511244E5F5F4FF1E0A038BF0790
:107F300051F7F601A7BEE89507B600FCFDCF97BE46
:107F4000E89526C08437B1F42ED02DD0F82E2BD052
:107F50003CD0F601EF2C8F010F5F1F4F84911BD097
:107F6000EA94F801C1F70894C11CD11CFA94CF0C13
:107F7000D11C0EC0853739F428D08EE10CD085E9AC
:107F80000AD08FE07ACF813511F488E018D01DD067
:107F900080E101D065CF982F8091C00085FFFCCF94
:107FA0009093C60008958091C00087FFFCCF809118
:107FB000C00084FD01C0A8958091C6000895E0E648
:107FC000F0E098E1908380830895EDDF803219F02E
:107FD00088E0F5DFFFCF84E1DECF1F93182FE3DFCA
:107FE0001150E9F7F2DF1F91089580E0E8DFEE27F6
:047FF000FF270994CA
:027FFE00040479
:00000001FF
