:100000000C9435000C945D000C945D000C94AE03D0
:100010000C94EE020C947F020C945D000C945D0035
:100020000C945D000C945D000C945D000C94D10266
:100030000C945D000C945D000C945D000C945D00CC
:100040000C945D000C945D000C944D020C942702FE
:100050000C945D000C945D000C945D000C945D00AC
:100060000C945D000C945D00490411241FBECFEF79
:10007000D8E0DEBFCDBF11E0A0E0B1E0E6EBFCE0F0
:1000800002C005900D92A433B107D9F721E0A4E393
:10009000B1E001C01D92A73EB207E1F710E0C5E351
:1000A000D0E004C02197FE010E945306C433D1075B
:1000B000C9F70E9476040C9459060C940000AF9284
:1000C000BF92CF92DF92EF92FF920F931F93CF9345
:1000D000DF936C017B018B01040F151FEB015E01A7
:1000E000AE18BF08C017D10759F06991D601ED913C
:1000F000FC910190F081E02DC6010995892B79F7DB
:10010000C501DF91CF911F910F91FF90EF90DF908C
:10011000CF90BF90AF900895FC01538D448D252F53
:1001200030E0842F90E0821B930B541710F0CF9691
:10013000089501970895FC01918D828D981761F0C3
:10014000A28DAE0FBF2FB11D5D968C91928D9F5FDA
:100150009F73928F90E008958FEF9FEF0895FC01B9
:10016000918D828D981731F0828DE80FF11D858D6C
:1001700090E008958FEF9FEF0895FC01918D228DFF
:10018000892F90E0805C9F4F821B91098F73992784
:100190000895FC01A48DA80FB92FB11DA35ABF4F1C
:1001A0002C91848D90E001968F739927848FA68976
:1001B000B7892C93A089B1898C91837080648C93CA
:1001C000938D848D981306C00288F389E02D808179
:1001D0008F7D80830895EF92FF920F931F93CF93AB
:1001E000DF93EC0181E0888F9B8D8C8D98131AC072
:1001F000E889F989808185FF15C09FB7F894EE8959
:10020000FF896083E889F9898081837080648083B5
:100210009FBF81E090E0DF91CF911F910F91FF9000
:10022000EF900895F62E0B8D10E00F5F1F4F0F73A8
:100230001127E02E8C8D8E110CC00FB607FCFACF63
:10024000E889F989808185FFF5CFCE010E94C90038
:10025000F1CFEB8DEC0FFD2FF11DE35AFF4FF08234
:100260009FB7F8940B8FEA89FB8980818062CFCF9A
:10027000CF93DF93EC01888D8823B9F0AA89BB89DD
:10028000E889F9898C9185FD03C0808186FD0DC0C8
:100290000FB607FCF7CF8C9185FFF2CF808185FFE9
:1002A000EDCFCE010E94C900E9CFDF91CF91089533
:1002B000AC0148535F4FFC012191CF01222349F04B
:1002C0003091C00035FFFCCF2093C60084179507FE
:1002D00091F708951092360181E080933701809163
:1002E0006B00806180936B00809136018823E1F37D
:1002F0000895CF92DF92EF92FF920F931F93CF93C7
:10030000DF93C82EE92ED62EF72EC8E6D0E08881DE
:100310008D7F888388818B7F888301E810E0F801D6
:10032000108281E6809338010E946A01C0923801F0
:100330000E946A01D09238010E946A01A895E09259
:1003400038010E946A01F09238010E946A01888196
:100350008260888383E0F801808388818460888359
:10036000DF91CF911F910F91FF90EF90DF90CF9091
:10037000089581E090E0909349018093480141E025
:1003800050E060E070E04093440150934501609379
:1003900046017093470140E050E860E070E0409310
:1003A00040015093410160934201709343012091B9
:1003B0000001213009F445C0223009F445C0211163
:1003C00036C0109249011092480120913F01022E3F
:1003D00002C0880F991F0A94E2F7092E000CAA0B9D
:1003E000BB0B8093440190934501A0934601B093C9
:1003F000470180E090E8022E02C0969587950A9406
:10040000E2F7B0E0A0E08093400190934101A09317
:100410004201B093430188E090E0821B910927FDDF
:100420009395880F991F90933E0180933D016091B1
:1004300040017091410180914401909145010C94DB
:10044000790181E190E0EFCF80E190E0ECCF1F9265
:100450000F920FB60F9211242F933F934F935F93F8
:100460006F937F938F939F93AF93BF93EF93FF937C
:100470008AE491E00E94C900FF91EF91BF91AF9192
:100480009F918F917F916F915F914F913F912F91AC
:100490000F900FBE0F901F9018951F920F920FB6DE
:1004A0000F9211242F938F939F93EF93FF93E091DB
:1004B0005A01F0915B018081E0916001F09161014E
:1004C00082FD1BC09081809163018F5F8F732091AB
:1004D0006401821741F0E0916301F0E0E65BFE4FBA
:1004E000958F80936301FF91EF919F918F912F9151
:1004F0000F900FBE0F901F9018958081F4CF1F9220
:100500000F920FB60F9211242F933F934F935F9347
:100510006F937F938F939F93AF93BF93EF93FF93CB
:100520004A9B04C04D9B02C04F992AC04A9905C0FE
:1005300060E090E080E00E9445064D9905C061E0D2
:1005400090E080E00E9445064F9905C062E090E08F
:1005500080E00E9445068CEF93E00E943D06682FE4
:100560006F7B8CEF93E00E94450688E199E00FB61F
:10057000F894A895809360000FBE90936000FFCF21
:10058000FF91EF91BF91AF919F918F917F916F916B
:100590005F914F913F912F910F900FBE0F901F9041
:1005A00018951F920F920FB60F9211248F939F935D
:1005B000EF93FF93E8E8F0E0808191818C529F4CAB
:1005C0009183808381E080933C01FF91EF919F9123
:1005D0008F910F900FBE0F901F9018951F920F9242
:1005E0000FB60F9211242F933F934F935F936F9306
:1005F0007F938F939F93AF93BF93EF93FF9335991F
:100600009CC02FE788E391E0215080409040E1F7C3
:1006100000C00000A895359990C02FE782E392E0D2
:10062000215080409040E1F700C00000A8952FE7DE
:1006300082E392E0215080409040E1F700C000004A
:10064000A8952FE782E392E0215080409040E1F7A7
:1006500000C00000A8952FE782E392E0215080407F
:100660009040E1F700C00000A8952FE782E392E0F8
:10067000215080409040E1F700C00000A895359BD4
:100680001FC08CEF93E00E943D06682F6B7F8CEFBC
:1006900093E00E9445068CEF93E00E943D06682F90
:1006A0006F7B8CEF93E00E94450688E199E00FB6DE
:1006B000F894A895809360000FBE90936000FFCFE0
:1006C000299A289A2FE782E392E0215080409040B7
:1006D000E1F700C00000A8952FE782E392E02150E7
:1006E00080409040E1F700C00000A8952FE782E32A
:1006F00092E0215080409040E1F700C00000A895B2
:100700002FE782E392E0215080409040E1F700C063
:100710000000A8952FE782E392E0215080409040AE
:10072000E1F700C00000A8953599B5CF789487E42B
:10073000809338010E946A01AECFFF91EF91BF9183
:10074000AF919F918F917F916F915F914F913F9169
:100750002F910F900FBE0F901F9018951F920F9220
:100760000FB60F9211242F933F934F938F939F9324
:100770001C9983C080916B008F7E80936B00809169
:100780003701813009F047C016BC17BC82E085BD37
:1007900080913A0190913B0197FD0196959587953F
:1007A00087BDA99BFECF8FEF85BB2C9A87B5909113
:1007B0003A01890F87BDA99BFECF8FEF85BB249A95
:1007C00087B590913A01890F87BDA99BFECF8FEF26
:1007D00085BB27E030E04FEF80913801082E000CF8
:1007E000990B022E02C0959587950A94E2F780FF37
:1007F0004EC02C9A87B590913A01890F87BDA99B6D
:10080000FECF45BB2150310938F724982C9881E060
:100810008093360115BC80913701823071F516BC8A
:1008200017BC85BD80913A0190913B0197FD0196DF
:100830009595879587BDA99BFECF8FEF85BB88E0F7
:1008400090E04FEF27B530913A01230F27BDA99BC8
:10085000FECF45BB20913501220F330B209335018C
:100860001C9B05C020913501216020933501019723
:1008700049F715BC81E0809334019F918F914F918E
:100880003F912F910F900FBE0F901F9018952C98AD
:10089000B1CFEAE4F1E01382128288EE93E0A0E0A7
:1008A000B0E084839583A683B78385E091E091834C
:1008B000808385EC90E09587848784EC90E097872F
:1008C000868780EC90E0918B808B81EC90E0938B1D
:1008D000828B82EC90E0958B848B86EC90E0978BFA
:1008E000868B118E128E138E148E0895A89584B760
:1008F000877F84BF80916000886180936000109240
:10090000600080917C00806480937C0085B78F7E3E
:1009100085BF14B817B81AB88FEF85B988B98BB9E5
:100920008FEF93E00E943D06C82F80EF8C0F803E32
:1009300040F48EEF93E00E943D06C81302C0C093BE
:10094000660086EF93E00E943D06C82F8F3C8CF036
:1009500082337CF487EF93E00E943D06C81309C000
:100960008C2FCC0F990B88539F4F90933B01809312
:100970003A018091680082608093680080916C00E9
:10098000806280936C008091680081608093680031
:1009900080916B00806180936B002C9884B18360A0
:1009A00084B92998289878941092C1001092C500B3
:1009B00080E18093C400D2E0D093C00088E18093AE
:1009C000C100C6E0C093C2008FE39CE90197F1F734
:1009D00000C000008CEF93E00E943D06873F09F4C1
:1009E000C6C050F48D3B09F4BFC08D3D09F4C1C0B1
:1009F0008D3A51F484E0B5C08E3F09F4B1C008F0DF
:100A0000BDC08D3F09F4B7C06FEF8CEF93E00E943B
:100A10004506A895809160008861809360008CE411
:100A20008093600080913901873009F0A9C083E18B
:100A300091E00E94580190E080E00E943D06809382
:100A40000001833010F010920001809168008460F2
:100A50008093680080916D00846A80936D0010928D
:100A60003C01109285001092840084ED90E39093F5
:100A700089008093880080916F00826080936F006E
:100A800083E0809381000E94B901C1E0D0E000E0E2
:100A900010E880913C018823E1F310923C01E09042
:100AA0004801F09049014091440150914501609105
:100AB0004601709147018091400190914101A091C0
:100AC0004201B091430120910001213009F461C03D
:100AD000223009F4A0C0211118C0440F551F661F11
:100AE000771F4093440150934501609346017093F2
:100AF0004701B595A7959795879580934001909369
:100B00004101A0934201B093430160914001709173
:100B1000410180914401909145010E9479018FEF3C
:100B2000E81AF80AF0924901E092480180913D01EB
:100B300090913E01E816F90609F0ABCF10924901F9
:100B40001092480180913F018F5F877887FF03C033
:100B50008150886F8F5F80933F010E94B90199CFC8
:100B600081E08093390150CFD09339014DCF83E09C
:100B7000F8CF85E0F6CFC093390146CF87E0F1CFBB
:100B8000863009F058CF88E291E00E945801A8957C
:100B9000FECF28E0E216F10438F59701220F331F4B
:100BA0004E01022E02C0880C991C0A94E2F7092C0F
:100BB000000CAA08BB08482959296A297B294093B7
:100BC0004401509345016093460170934701A80189
:100BD00002C0569547952A95E2F770E060E0842BB5
:100BE000952BA62BB72B89CFE2E0440F551F661F2C
:100BF000771FEA95D1F740934401509345016093E4
:100C0000460170934701F2E0B595A79597958795B2
:100C1000FA95D1F772CF2A013B01440C551C661C92
:100C2000771C4C015D01B594A7949794879425E0B7
:100C3000E216F10488F4442955296629772940935E
:100C40004401509345016093460170934701882900
:100C50009929AA29BB2951CF4092440150924501BC
:100C6000609246017092470180924001909241014A
:100C7000A0924201B092430148CFF999FECF92BDB4
:100C800081BDF89A992780B50895262FF999FECF4E
:100C90001FBA92BD81BD20BD0FB6F894FA9AF99A99
:100CA0000FBE01960895EE0FFF1F0590F491E02D01
:060CB0000994F894FFCF47
:100CB6000100000000EB005F008C003801BD009BC6
:100CC60000AF000D0A50726F6772616D2072657316
:100CD6007461727465642E000D0A5744546F7574FE
:040CE6000D0A0000F3
:00000001FF
