:100000000C9435000C945D000C945D000C94BD02C2
:100010000C945A020C945D000C945D000C945D00ED
:100020000C945D000C945D000C945D000C945D00DC
:100030000C945D000C945D000C945D000C945D00CC
:100040000C94B8010C945D000C9428020C940202EC
:100050000C945D000C945D000C945D000C945D00AC
:100060000C945D000C945D00580311241FBECFEF6B
:10007000D8E0DEBFCDBF22E0A2E7B1E001C01D9213
:10008000AF31B207E1F711E0A0E0B1E0ECEEF1E151
:1000900002C005900D92A237B107D9F710E0C5E371
:1000A000D0E004C02197FE010E94EE08C433D107BE
:1000B000C9F70E9485030C94F4080C940000AF92D9
:1000C000BF92CF92DF92EF92FF920F931F93CF9345
:1000D000DF936C017B018B01040F151FEB015E01A7
:1000E000AE18BF08C017D10759F06991D601ED913C
:1000F000FC910190F081E02DC6010995892B79F7DB
:10010000C501DF91CF911F910F91FF90EF90DF908C
:10011000CF90BF90AF900895FC01538D448D252F53
:1001200030E0842F90E0821B930B541710F0CF9691
:10013000089501970895FC01918D828D981761F0C3
:10014000A28DAE0FBF2FB11D5D968C91928D9F5FDA
:100150009F73928F90E008958FEF9FEF0895FC01B9
:10016000918D828D981731F0828DE80FF11D858D6C
:1001700090E008958FEF9FEF0895FC01918D228DFF
:10018000892F90E0805C9F4F821B91098F73992784
:100190000895FC01A48DA80FB92FB11DA35ABF4F1C
:1001A0002C91848D90E001968F739927848FA68976
:1001B000B7892C93A089B1898C91837080648C93CA
:1001C000938D848D981306C00288F389E02D808179
:1001D0008F7D80830895EF92FF920F931F93CF93AB
:1001E000DF93EC0181E0888F9B8D8C8D98131AC072
:1001F000E889F989808185FF15C09FB7F894EE8959
:10020000FF896083E889F9898081837080648083B5
:100210009FBF81E090E0DF91CF911F910F91FF9000
:10022000EF900895F62E0B8D10E00F5F1F4F0F73A8
:100230001127E02E8C8D8E110CC00FB607FCFACF63
:10024000E889F989808185FFF5CFCE010E94C90038
:10025000F1CFEB8DEC0FFD2FF11DE35AFF4FF08234
:100260009FB7F8940B8FEA89FB8980818062CFCF9A
:10027000CF93DF93EC01888D8823B9F0AA89BB89DD
:10028000E889F9898C9185FD03C0808186FD0DC0C8
:100290000FB607FCF7CF8C9185FFF2CF808185FFE9
:1002A000EDCFCE010E94C900E9CFDF91CF91089533
:1002B0001092740181E08093750180916B008061E0
:1002C00080936B00809174018823E1F30895FC0111
:1002D00001900020E9F73197AF01481B590BBC0191
:1002E00082E891E00C945F008F929F92AF92BF9250
:1002F0000F931F93CF93DF93CDB7DEB7A1970FB6C0
:10030000F894DEBF0FBECDBF19A2423008F44AE018
:100310008E010F5D1F4F842E912CB12CA12CA501B5
:1003200094010E94CC08E62FB901CA01EA30F4F426
:10033000E05DD801EE938D01232B242B252B79F73B
:1003400090E080E0109719F0CD010E946701A1961E
:100350000FB6F894DEBF0FBECDBFDF91CF911F91D6
:100360000F91BF90AF909F908F900895E95CE1CF7F
:100370001F920F920FB60F9211242F933F938F93DA
:100380009F93AF93BF9380917E0190917F01A09145
:100390008001B091810130917D0123E0230F2D3741
:1003A00058F50196A11DB11D20937D0180937E011A
:1003B00090937F01A0938001B09381018091790196
:1003C00090917A01A0917B01B0917C010196A11DD1
:1003D000B11D8093790190937A01A0937B01B09332
:1003E0007C01BF91AF919F918F913F912F910F9081
:1003F0000FBE0F901F90189526E8230F0296A11D9F
:10040000B11DD2CF1F920F920FB60F9211242F93CE
:100410003F934F935F936F937F938F939F93AF938C
:10042000BF93EF93FF9382E891E00E94C900FF9190
:10043000EF91BF91AF919F918F917F916F915F915C
:100440004F913F912F910F900FBE0F901F901895D5
:100450001F920F920FB60F9211242F938F939F9399
:10046000EF93FF93E0919201F09193018081E091ED
:100470009801F091990182FD1BC0908180919B01B0
:100480008F5F8F7320919C01821741F0E0919B0157
:10049000F0E0EE57FE4F958F80939B01FF91EF9117
:1004A0009F918F912F910F900FBE0F901F901895D5
:1004B0008081F4CF1F920F920FB60F9211242F93C9
:1004C0003F934F935F936F937F938F939F93AF93DC
:1004D000BF93EF93FF9335993FC02FE788E391E0F7
:1004E000215080409040E1F700C00000359934C0B1
:1004F0002FE78CEF9AE0215080409040E1F700C058
:100500000000359B15C08CEF93E00E947407682FA4
:100510006D7F8CEF93E00E947C0788E199E00FB635
:10052000F894A895809360000FBE90936000FFCF71
:10053000299A289A2FEF84E39CE021508040904034
:10054000E1F700C000003599E8CF789487E4809304
:1005500076010E945801E1CFFF91EF91BF91AF91D9
:100560009F918F917F916F915F914F913F912F91CB
:100570000F900FBE0F901F9018951F920F920FB6FD
:100580000F9211242F933F934F938F939F931C9916
:1005900083C080916B008F7E80936B00809175018A
:1005A000813009F047C016BC17BC82E085BD809140
:1005B00077019091780197FD01969595879587BD74
:1005C000A99BFECF8FEF85BB2C9A87B590917701C1
:1005D000890F87BDA99BFECF8FEF85BB249A87B576
:1005E00090917701890F87BDA99BFECF8FEF85BBC7
:1005F00027E030E04FEF80917601082E000C990B38
:10060000022E02C0959587950A94E2F780FF4EC0AE
:100610002C9A87B590917701890F87BDA99BFECF52
:1006200045BB2150310938F724982C9881E08093FC
:10063000740115BC80917501823071F516BC17BC30
:1006400085BD809177019091780197FD01969595F0
:10065000879587BDA99BFECF8FEF85BB88E090E093
:100660004FEF27B530917701230F27BDA99BFECF10
:1006700045BB20917301220F330B209373011C9B08
:1006800005C020917301216020937301019749F700
:1006900015BC81E0809372019F918F914F913F91A2
:1006A0002F910F900FBE0F901F9018952C98B1CFDF
:1006B000E2E8F1E01382128288EE93E0A0E0B0E07D
:1006C00084839583A683B78384E091E091838083BC
:1006D00085EC90E09587848784EC90E09787868707
:1006E00080EC90E0918B808B81EC90E0938B828BFF
:1006F00082EC90E0958B848B86EC90E0978B868BD8
:10070000118E128E138E148E0895CF93DF93CDB772
:10071000DEB764970FB6F894DEBF0FBECDBFA895C5
:1007200084B7877F84BF8091600088618093600078
:100730001092600080917C00806480937C0085B77B
:100740008F7E85BF14B817B81AB88FEF85B988B9EE
:100750008BB98FEF93E00E947407182F80EF810F01
:10076000803E40F48EEF93E00E947407181302C09D
:100770001093660086EF93E00E947407182F8F3C59
:100780008CF082337CF487EF93E00E947407181397
:1007900009C0812F110F990B88539F4F90937801B7
:1007A00080937701809168008260809368008091D7
:1007B0006C00806280936C008091680081608093FF
:1007C000680080916B00806180936B002C9884B1ED
:1007D000836084B929982898789486E48093760178
:1007E0000E945801E0919201F091930182E0808390
:1007F000E0918E01F0918F011082E0919001F091D3
:10080000910180E1808310929A01E0919601F0912C
:10081000970186E08083E0919401F09195018081B9
:1008200080618083E0919401F091950180818860DE
:100830008083E0919401F0919501808180688083AC
:10084000E0919401F091950180818F7D808382E118
:1008500091E00E94670182E891E00E9438019E01C8
:100860002F5F3F4F790110E000E019012FB7F89496
:1008700080917E0190917F01A0918001B0918101D2
:100880002FBF80938A0190938B01A0938C01B0932A
:100890008D0182E891E00E949B0097FF9BC12FB7DA
:1008A000F89480917E0190917F01A0918001B09198
:1008B00081012FBF40918A0150918B0160918C0181
:1008C00070918D01841B950BA60BB70B409186018F
:1008D0005091870160918801709189018417950773
:1008E000A607B707B0F2F101E00FF11F1082C101B6
:1008F0000E94F8052C01712C612C04E42AE0A1016E
:10090000C301B2010E941E06C1010E94670169E095
:1009100082E891E00E94EB00A3019201C301B201C1
:100920000E94BC086D877E878F87988BE1E0F0E09E
:10093000C12CD12C7601C394812C912C5401CF0170
:10094000B0E0A0E0481659066A067B06B0F1A301A4
:100950009201281B390B4A0B5B0BCA01B9010E949B
:10096000BC082D853E854F855889261B370B480BC3
:10097000590B298B3A8B4B8B5C8BA7019601C701D6
:10098000B6010E94BC0829893A894B895C892617DF
:1009900037074807590730F03FEFC31AD30AE30A75
:1009A000F30AEBCF41E0C41AD108E108F1088C0C3E
:1009B0009D1CAE1CBF1C3196C2CFC301B2010E9468
:1009C00055066B017C01C501B4010E945706A701C1
:1009D00096010E941108A70196010E94110820E0CB
:1009E00030E040E850E40E94B6066B017C0120E054
:1009F00030E0A9010E94500687FF3EC087E491E0E5
:100A00000E9467014D99FECF5FEF81EE94E0515057
:100A100080409040E1F700C00000AAE0B0E0A301F0
:100A200092010E948A0729E030E040E050E00E94F5
:100A3000CC0829013A01EDED4E16EFEF5E06610498
:100A4000710408F45BCF8FE591E00E94670182E8B2
:100A500091E00E94BD00892BD1F382E891E00E94D1
:100A60009B0088E199E00FB6F894A8958093600008
:100A70000FBE90936000FFCFA7019601C701B6019A
:100A80000E94B708882329F183E591E00E9467015D
:100A9000809168008D7F80936800009376010E94AA
:100AA0005801C09276010E945801D09276010E94AE
:100AB0005801E09276010E945801F09276010E945E
:100AC00058018091680082608093680084E491E01E
:100AD00097CF46015701E894B7F82FEF3FEF4FE764
:100AE0005FE7C501B4010E94B70881110DC02FEF67
:100AF0003FEF4FE75FE7C501B4010E9450061816AB
:100B00001CF487E591E0C2CF2FEF3FEF4FE75FE4A2
:100B1000C701B6010E94B20818161CF48BE591E0DB
:100B2000B5CF2FEF3FEF4FE75FECC701B6010E9453
:100B3000500687FDF3CF2CEB37E346E055E3C701C2
:100B4000B6010E94A5074B015C010E9483086D87D6
:100B50007E878F87988B0E9455069B01AC01C5014B
:100B6000B4010E94A4074B015C014AE06D857E85BB
:100B70008F8598890E9474016EE282E891E00E945C
:100B8000EB0017E0115009F483CF20E030E040E2A1
:100B900051E4C501B4010E94B6066D877E878F8738
:100BA000988B0E9483084B01B12CA12C4AE0C5010F
:100BB000B4010E947401C501B4010E9455069B0155
:100BC000AC016D857E858F8598890E94A4074B01B5
:100BD0005C01D8CF8D30910509F485CEF701819362
:100BE0007F010F5F1F4F0431110509F03FCE7BCE0F
:100BF000FC0188279927E89421912032E9F32930D4
:100C000010F02E30C8F32B3241F02D3239F46894B5
:100C100004C00E941606820F911D219120532A3094
:100C2000C0F31EF4909581959F4F08957AE0979FA9
:100C3000902D879F802D910D11240895BB27FA01D7
:100C4000A62F6217710581059105330B30FB66F005
:100C5000AA27660F771F881F991FAA1FA21710F0D7
:100C6000A21B63953850A9F7A05DAA3308F0A95DCF
:100C7000A19336F7B111B1931082CA010C944006CA
:100C8000DC01FC01672F71917723E1F7329704C0F3
:100C90007C916D9370836291AE17BF07C8F308957E
:100CA0000E94920608F481E00895E89409C097FB39
:100CB0003EF490958095709561957F4F8F4F9F4F33
:100CC0009923A9F0F92F96E9BB279395F695879577
:100CD00077956795B795F111F8CFFAF4BB0F11F43A
:100CE00060FF1BC06F5F7F4F8F4F9F4F16C08823E1
:100CF00011F096E911C0772321F09EE8872F762F17
:100D000005C0662371F096E8862F70E060E02AF057
:100D10009A95660F771F881FDAF7880F9695879543
:100D200097F90895990F0008550FAA0BE0E8FEEF18
:100D300016161706E807F907C0F012161306E4079F
:100D4000F50798F0621B730B840B950B39F40A2698
:100D500061F0232B242B252B21F408950A2609F476
:100D6000A140A6958FEF811D811D08950E94C9069F
:100D70000C943A070E942C0738F00E94330720F0A9
:100D8000952311F00C9423070C94290711240C943B
:100D90006E070E944B0770F3959FC1F3950F50E0CB
:100DA000551F629FF001729FBB27F00DB11D639F1D
:100DB000AA27F00DB11DAA1F649F6627B00DA11DC3
:100DC000661F829F2227B00DA11D621F739FB00D69
:100DD000A11D621F839FA00D611D221F749F3327D9
:100DE000A00D611D231F849F600D211D822F762F72
:100DF0006A2F11249F5750409AF0F1F088234AF04F
:100E0000EE0FFF1FBB1F661F771F881F91505040BA
:100E1000A9F79E3F510580F00C9423070C946E07B0
:100E20005F3FE4F3983ED4F3869577956795B79541
:100E3000F795E7959F5FC1F7FE2B880F911D96955B
:100E4000879597F9089597F99F6780E870E060E0CB
:100E500008959FEF80EC089500240A941616170653
:100E600018060906089500240A941216130614069B
:100E700005060895092E0394000C11F4882352F0FE
:100E8000BB0F40F4BF2B11F460FF04C06F5F7F4FB6
:100E90008F4F9F4F089557FD9058440F551F59F09D
:100EA0005F3F71F04795880F97FB991F61F09F3F57
:100EB00079F087950895121613061406551FF2CF80
:100EC0004695F1DF08C0161617061806991FF1CFD0
:100ED00086957105610508940895E894BB276627F7
:100EE0007727CB0197F90895F999FECF92BD81BD7F
:100EF000F89A992780B50895262FF999FECF1FBA41
:100F000092BD81BD20BD0FB6F894FA9AF99A0FBE32
:100F1000019608950E949507A59F900DB49F900D8E
:100F2000A49F800D911D11240895A29FB001B39F2D
:100F3000C001A39F700D811D1124911DB29F700DE2
:100F4000811D1124911D08955058BB27AA270E9486
:100F5000BC070C943A070E942C0738F00E94330714
:100F600020F039F49F3F19F426F40C9429070EF46D
:100F7000E095E7FB0C942307E92F0E944B0758F3F9
:100F8000BA17620773078407950720F079F4A6F56E
:100F90000C946D070EF4E0950B2EBA2FA02D0B01CB
:100FA000B90190010C01CA01A0011124FF27591BAE
:100FB00099F0593F50F4503E68F11A16F040A22FB4
:100FC000232F342F4427585FF3CF46953795279525
:100FD000A795F0405395C9F77EF41F16BA0B620B24
:100FE000730B840BBAF09150A1F0FF0FBB1F661F6B
:100FF000771F881FC2F70EC0BA0F621F731F841FAE
:1010000048F4879577956795B795F7959E3F08F0D3
:10101000B0CF9395880F08F09927EE0F9795879595
:1010200008950E9425080C943A070E94330758F04F
:101030000E942C0740F029F45F3F29F00C9423070D
:1010400051110C946E070C9429070E944B0768F30A
:101050009923B1F3552391F3951B550BBB27AA2771
:1010600062177307840738F09F5F5F4F220F331FAB
:10107000441FAA1FA9F335D00E2E3AF0E0E832D073
:1010800091505040E695001CCAF72BD0FE2F29D076
:10109000660F771F881FBB1F261737074807AB0748
:1010A000B0E809F0BB0B802DBF01FF2793585F4FBD
:1010B0003AF09E3F510578F00C9423070C946E078C
:1010C0005F3FE4F3983ED4F3869577956795B7959F
:1010D000F7959F5FC9F7880F911D9695879597F9AA
:1010E0000895E1E0660F771F881FBB1F6217730723
:1010F0008407BA0720F0621B730B840BBA0BEE1F38
:1011000088F7E09508950E94530788F09F5798F05C
:10111000B92F9927B751B0F0E1F0660F771F881FFC
:10112000991F1AF0BA95C9F714C0B13091F00E9416
:101130006D07B1E008950C946D07672F782F88270D
:10114000B85F39F0B93FCCF3869577956795B3953D
:10115000D9F73EF490958095709561957F4F8F4FAC
:101160009F4F08950E94920608F48FEF08950E9401
:101170009206880B990B0895DB018F939F930E9431
:101180008A07BF91AF91A29F800D911DA39F900DE3
:10119000B29F900D11240895A1E21A2EAA1BBB1B29
:1011A000FD010DC0AA1FBB1FEE1FFF1FA217B30733
:1011B000E407F50720F0A21BB30BE40BF50B661F49
:1011C000771F881F991F1A9469F76095709580950D
:1011D00090959B01AC01BD01CF010895EE0FFF1F5B
:0C11E0000590F491E02D0994F894FFCFE5
:1011EC0000000000EB005F008C003801BD009B008C
:1011FC00AF000D0A457374696D6174652076616C7E
:10120C00756520666F72205049452E20456E7465B9
:10121C007220726164697573202836353530302040
:10122C006D6178290D0A004F766572666C6F777365
:10123C000D0A006E616E00696E66006F7666000DB9
:10124C000A414B20746F207265706561742E0D0A13
:02125C00000090
:00000001FF
