:100000000C9435000C945D000C945D000C949303EB
:100010000C94DD020C94BF010C945D000C94B602AC
:100020000C945D000C945D000C945D000C945D00DC
:100030000C945D000C945D000C945D000C945D00CC
:100040000C945D000C945D000C948D010C94670180
:100050000C945D000C945D000C945D000C945D00AC
:100060000C945D000C945D002E0411241FBECFEF94
:10007000D8E0DEBFCDBF11E0A0E0B1E0EAE5FCE0F2
:1000800002C005900D92A431B107D9F721E0A4E197
:10009000B1E001C01D92A73CB207E1F710E0C5E353
:1000A000D0E004C02197FE010E941606C433D10798
:1000B000C9F70E945B040C942B060C940000AF92CD
:1000C000BF92CF92DF92EF92FF920F931F93CF9345
:1000D000DF936C017B018B01040F151FEB015E01A7
:1000E000AE18BF08C017D10759F06991D601ED913C
:1000F000FC910190F081E02DC6010995892B79F7DB
:10010000C501DF91CF911F910F91FF90EF90DF908C
:10011000CF90BF90AF900895FC01538D448D252F53
:1001200030E0842F90E0821B930B541710F0CF9691
:10013000089501970895FC01918D828D981761F0C3
:10014000A28DAE0FBF2FB11D5D968C91928D9F5FDA
:100150009F73928F90E008958FEF9FEF0895FC01B9
:10016000918D828D981731F0828DE80FF11D858D6C
:1001700090E008958FEF9FEF0895FC01918D228DFF
:10018000892F90E0805C9F4F821B91098F73992784
:100190000895FC01A48DA80FB92FB11DA35ABF4F1C
:1001A0002C91848D90E001968F739927848FA68976
:1001B000B7892C93A089B1898C91837080648C93CA
:1001C000938D848D981306C00288F389E02D808179
:1001D0008F7D80830895EF92FF920F931F93CF93AB
:1001E000DF93EC0181E0888F9B8D8C8D98131AC072
:1001F000E889F989808185FF15C09FB7F894EE8959
:10020000FF896083E889F9898081837080648083B5
:100210009FBF81E090E0DF91CF911F910F91FF9000
:10022000EF900895F62E0B8D10E00F5F1F4F0F73A8
:100230001127E02E8C8D8E110CC00FB607FCFACF63
:10024000E889F989808185FFF5CFCE010E94C90038
:10025000F1CFEB8DEC0FFD2FF11DE35AFF4FF08234
:100260009FB7F8940B8FEA89FB8980818062CFCF9A
:10027000CF93DF93EC01888D8823B9F0AA89BB89DD
:10028000E889F9898C9185FD03C0808186FD0DC0C8
:100290000FB607FCF7CF8C9185FFF2CF808185FFE9
:1002A000EDCFCE010E94C900E9CFDF91CF91089533
:1002B0001092140181E08093160180916B0080619F
:1002C00080936B00809114018823E1F308951F92BD
:1002D0000F920FB60F9211242F933F934F935F937A
:1002E0006F937F938F939F93AF93BF93EF93FF93FE
:1002F0008AE291E00E94C900FF91EF91BF91AF9116
:100300009F918F917F916F915F914F913F912F912D
:100310000F900FBE0F901F9018951F920F920FB65F
:100320000F9211242F938F939F93EF93FF93E0915C
:100330003A01F0913B018081E0914001F09141014F
:1003400082FD1BC09081809143018F5F8F7320914C
:100350004401821741F0E0914301F0E0E65DFE4F79
:10036000958F80934301FF91EF919F918F912F91F2
:100370000F900FBE0F901F9018958081F4CF1F92A1
:100380000F920FB60F9211240F931F932F933F9349
:100390004F935F936F937F938F939F93AF93BF938D
:1003A000CF93DF93EF93FF934A9B02C04F997BC09B
:1003B0004A9911C08091000190910101843091050A
:1003C00009F4B5C00CF084C08230910509F4C4C0B2
:1003D000039709F4B6C04F9926C08091000190910F
:1003E000010101979093010180930001E0910001C8
:1003F000F0910101EE5DFE4F80E3808320910001CA
:10040000309101012130310571F4809323018093F3
:10041000220181E08093210180916D008B77809390
:100420006D004F9BFECF80916D008B7780936D00A8
:1004300078948AE4809320010E94580102E211E03E
:10044000D0E0C0E0F80181918F01C430D10531F0D6
:10045000C630D10519F0C230D10509F48068809307
:1004600020010E9458012196C830D10559F78CEF20
:100470008093850082EF809384008FEF86BB85E0B8
:100480008093810086B38823E9F3B09A10928100AB
:1004900080916D00846A80936D0080916D008F7DE6
:1004A00080936D00DA9AFF91EF91DF91CF91BF9128
:1004B000AF919F918F917F916F915F914F913F91FC
:1004C0002F911F910F910F900FBE0F901F901895B5
:1004D0008630910579F004F1079709F07CCF80917F
:1004E000290190ED980F8F5F923008F080E38093A0
:1004F000290171CF8091280190912901923331F423
:1005000090ED980F933020F48F5F03C08933E1F7AB
:1005100080E3809328015FCF8091270190ED980FB1
:100520008F5F953008F080E38093270154CF80914E
:100530002601893321F480E3809326014CCF8F5F1D
:10054000FBCF8091250190ED980F8F5F953008F0DB
:1005500080E3809325013FCF80912401893321F4EA
:1005600080E38093240137CF8F5FFBCF1F920F92E0
:100570000FB60F9211248F938091B3008A59809304
:10058000B30080911D018F5F80931D018091150143
:100590008F5F8093150180911501893041F48FEFB1
:1005A000809315018091B3008C5F8093B3008F918D
:1005B0000F900FBE0F901F9018951F920F920FB6BD
:1005C0000F9211242F933F934F935F936F937F93D9
:1005D0008F939F93AF93BF93EF93FF93359992C0FF
:1005E0002FE788E391E0215080409040E1F700C080
:1005F0000000A895359986C02FE782E392E021504C
:1006000080409040E1F700C00000A8952FE782E30A
:1006100092E0215080409040E1F700C00000A89592
:100620002FE782E392E0215080409040E1F700C044
:100630000000A8952FE782E392E02150804090408F
:10064000E1F700C00000A8952FE782E392E0215077
:1006500080409040E1F700C00000A895359B15C090
:100660008CEF93E00E94B405682F6B7F8CEF93E0D2
:100670000E94BC0588E199E00FB6F894A895809394
:1006800060000FBE90936000FFCF299A289A2FE751
:1006900082E392E0215080409040E1F700C00000EA
:1006A000A8952FE782E392E0215080409040E1F747
:1006B00000C00000A8952FE782E392E0215080401F
:1006C0009040E1F700C00000A8952FE782E392E098
:1006D000215080409040E1F700C00000A8952FE72E
:1006E00082E392E0215080409040E1F700C000009A
:1006F000A8953599BFCF789487E4809320010E9414
:100700005801B8CFFF91EF91BF91AF919F918F9119
:100710007F916F915F914F913F912F910F900FBEFD
:100720000F901F9018951F920F920FB60F921124E1
:100730002F933F934F938F939F931C9983C08091E6
:100740006B008F7E80936B0080911601813009F0E1
:1007500047C016BC17BC82E085BD80911E019091F8
:100760001F0197FD01969595879587BDA99BFECFA3
:100770008FEF85BB2C9A87B590911E01890F87BD9D
:10078000A99BFECF8FEF85BB249A87B590911E0160
:10079000890F87BDA99BFECF8FEF85BB27E030E097
:1007A0004FEF80912001082E000C990B022E02C001
:1007B000959587950A94E2F780FF4EC02C9A87B5ED
:1007C00090911E01890F87BDA99BFECF45BB21508B
:1007D000310938F724982C9881E08093140115BCD6
:1007E00080911601823071F516BC17BC85BD8091D1
:1007F0001E0190911F0197FD01969595879587BDE4
:10080000A99BFECF8FEF85BB88E090E04FEF27B527
:1008100030911E01230F27BDA99BFECF45BB209120
:100820001C01220F330B20931C011C9B05C020913F
:100830001C01216020931C01019749F715BC81E040
:10084000809317019F918F914F913F912F910F901E
:100850000FBE0F901F9018952C98B1CFEAE2F1E0EF
:100860001382128288EE93E0A0E0B0E08483958347
:10087000A683B78386E091E09183808385EC90E046
:100880009587848784EC90E09787868780EC90E05A
:10089000918B808B81EC90E0938B828B82EC90E04B
:1008A000958B848B86EC90E0978B868B118E128EC5
:1008B000138E148E0895A89584B7877F84BF809186
:1008C00060008861809360001092600080917C00DD
:1008D000806480937C0085B78F7E85BF14B817B87D
:1008E0001AB88FEF85B988B98BB98FEF93E00E9462
:1008F000B405C82F80EF8C0F803E40F48EEF93E05C
:100900000E94B405C81302C0C093660086EF93E04E
:100910000E94B405C82F8F3C8CF082337CF487EFA3
:1009200093E00E94B405C81309C08C2FCC0F990B1B
:1009300088539F4F90931F0180931E018091680000
:1009400082608093680080916C00806280936C006C
:100950008091680081608093680080916B00806165
:1009600080936B002C9884B1836084B9299828986F
:1009700078941092C1001092C50080E18093C40069
:1009800082E08093C00088E18093C10086E080937C
:10099000C2008FE39CE90197F1F700C0000080E2FC
:1009A0008093B6001092B2001092B0008091B10016
:1009B00083608093B1001092B40083E6809320019D
:1009C0000E94580180916800846080936800809143
:1009D0006D00846A80936D0080916D008F7D80939F
:1009E0006D001092220110922301109224011092A6
:1009F00025011092260110922701109228011092D1
:100A00002901809121018823E1F310922101809135
:100A10006D008B7780936D004D99FECF109215017C
:100A20001092B20086E68093B300809170008260DD
:100A300080937000CBE4DDE40CE111E042E0742E21
:100A40005AE0852E912CA12CB12C6CE4662E80915D
:100A50001D018230E4F310921D01C09320010E9419
:100A600058014A9B02C04F99F2CF809170008D7F50
:100A700080937000D09320010E945801A8E1B1E05A
:100A8000FD0110921C0110921701709216018091C5
:100A90006B00806180936B00809117018823E1F3E4
:100AA00080911C0181930E171F0759F760E070E0D9
:100AB000CB01982F872F762F66272D91622BAE17AB
:100AC000BF07B9F7A50194010E94CA05AAE0B0E0EA
:100AD0000E94E9056B017C014A9B02C04F993CC012
:100AE0004A9934C09AE0C90ED11CE11CF11C6092F5
:100AF00020010E9458018F2DBB2787FDB0959B2FA9
:100B0000AB2F809320010E945801C701BB2797FD9E
:100B1000B095AB2F809320010E945801BB27F7FCB2
:100B2000BA95AF2D9E2D8D2D809320010E945801E6
:100B3000C09220010E9458018FE798E321E0815084
:100B400090402040E1F700C00000C6CF2AE0C21A62
:100B5000D108E108F108CBCF4D99FECF809170000C
:100B600082608093700073CFF999FECF92BD81BDF2
:100B7000F89A992780B50895262FF999FECF1FBAC4
:100B800092BD81BD20BD0FB6F894FA9AF99A0FBEB6
:100B900001960895052E97FB1EF400940E94E1052E
:100BA00057FD07D00E94F40507FC03D04EF40C94C7
:100BB000E10550954095309521953F4F4F4F5F4F40
:100BC000089590958095709561957F4F8F4F9F4FB9
:100BD00008950E941C06A59F900DB49F900DA49FA0
:100BE000800D911D11240895A1E21A2EAA1BBB1B92
:100BF000FD010DC0AA1FBB1FEE1FFF1FA217B307E9
:100C0000E407F50720F0A21BB30BE40BF50B661FFE
:100C1000771F881F991F1A9469F7609570958095C2
:100C200090959B01AC01BD01CF010895EE0FFF1F10
:100C30000590F491E02D0994A29FB001B39FC001EB
:100C4000A39F700D811D1124911DB29F700D811DF8
:0A0C50001124911D0895F894FFCFC0
:100C5A00070000000000EB005F008C003801BD00B7
:040C6A009B00AF003C
:00000001FF
