S01500004350323130325F6D696E694F532E7372656309
S11300000C948B010C949D010C949D010C949D0106
S11300100C949D010C949D010C949D010C949D01E4
S11300200C949D010C949D010C94330C0C949D0133
S11300300C949D010C94B50C0C949D010C949D01A1
S11300400C949D010C949D010C949D010C949D01B4
S11300500C949D010C949D010C949D010C949D01A4
S11300600C949D010C949D010C949D010C949D0194
S11300700C949D010C949D010C949D01CC02CC0226
S1130080F9022C03670392039203920392039203EF
S113009092039203920392039203920392039203B4
S11300A092039203920392039203920392039203A4
S11300B09203920392039203920392037902A2029F
S11300C0AA06AF06B606BD06C406CB06D206D706F8
S11300D0D706D706D706D706D706D706D706D70634
S11300E0D706D706D706D706D706D706D706D70624
S11300F0D706D706D706D706D706D706D706D70614
S1130100AA06AF06B606BD06C406CB06D206AB09E0
S1130110600A600A47095209580963096E09790996
S113012084098F099509A009600A600A600A600AB7
S1130130600A600A600A600A600A600A600AB1091B
S1130140600A600A600A600A600A600A600A600A5B
S1130150600A600A600A600A600A600A600A600A4B
S1130160600A600A600A600A600A600A600A600A3B
S1130170600A600A600A600A600A600A600AB109DB
S1130180600A600A600A600A600A600A600A600A1B
S1130190600A600A600A600A600A600A600A600A0B
S11301A0600A600A600A600A600A600A600A600AFB
S11301B0600A600A600A600A600A600A600A600AEB
S11301C0600A600A600A600A600A600A600A600ADB
S11301D0600A600A600A600A600A600A600A600ACB
S11301E0600A600A600A600A600A600A600A600ABB
S11301F0600A600A600A600A600A600A600A600AAB
S1130200600A600A600A600A600A600A600A560AA4
S1130210600A600ABC09CD09D609E709F809090A88
S11302201A0A2B0A340A450A6C0A7A0A6E0A700AF8
S1130230720A740A760A780AD60ADC0AE20AE80A1A
S1130240EE0AF40AFA0A000B210B420B630B840B2F
S1130250A60BC70BE80B090C07634236B79BD8A75C
S11302601A39685618AEBAAB558C1D3CB7CC5763D7
S1130270BD6DEDFD753EF6177231BF000000803F85
S113028008000000BE922449123EABAAAA2ABECDA1
S1130290CCCC4C3E00000080BEABAAAAAA3E000013
S11302A00000BF000000803F00000000000841780B
S11302B0D3BB4387D1133D190E3CC3BD4282AD2B42
S11302C03E68EC8276BED98FE1A93E4C80EFFFBE3A
S11302D001C4FF7F3F00000000004E414E494E49DB
S11302E05459494E46CDCCCC3D0AD7233C17B7D1FF
S11302F03877CC2B329595E6241FB14F0A000020A5
S1130300410000C84200401C4620BCBE4CCA1B0E23
S11303105AAEC59D740011241FBECFEFCDBFDFE3DD
S1130320DEBF2CE3A0E0BCE301C01D92A035B20700
S1130330E1F70E940F060C944C130C940000CF9329
S1130340DF93EBE0FAE0808184FFFDCFEBE0FAE09D
S1130350808180618083E0E4F4E08081877F808312
S1130360E8E2FAE08081918188539F4F80839183F2
S1130370EBE0FAE0808184FFFDCFEBE0FAE08081DE
S11303808061808348E050E080E0A8E2BAE0C8E4FD
S1130390D4E02D913C91119728533F4F2D933C93DA
S11303A01197908194FFFDCF908190619083880F85
S11303B0988193FD81604150510959F7DF91CF91A4
S11303C00895CF93DF9327E030E0EBE0FAE0482F85
S11303D050E0C0E4D4E0A8E2BAE0808184FFFDCF1D
S11303E0808180618083CA01022E02C09595879521
S11303F00A94E2F780FF04C08881877F888303C062
S11304008881886088838D919C91119788539F4F30
S11304108D939C93119721503109F8F6EBE0FAE0A3
S1130420808184FFFDCFEBE0FAE0808180618083EE
S1130430E0E4F4E08081877F8083DF91CF910895A9
S1130440CF93DF938091073C811144C00E949F01A8
S113045080933B3C80913B3C8F3F09F463C1809186
S1130460043C9091053C892BA9F581E090E08093B0
S1130470043C9093053C80913B3C8093073C8091E5
S1130480073C863431F488ED84BF83E08093000117
S1130490FFCF8091073C873409F044C18091173C19
S11304A09091183C863D964039F48AEF90E0809311
S11304B0173C9093183C06C086ED96E08093173C59
S11304C09093183C81E08093063C1092043C109277
S11304D0053C28C1E091073C8E2F90E0FC01E154DB
S11304E0F109E232F10508F01DC1E25CFF4F0C9402
S11304F0D210C091043CD091053C0E949F01C75E7C
S1130500D34C88838091043C9091053C0196809360
S1130510043C9093053C8091043C9091053C0597E4
S113052009F000C1EEE1FCE389E29CE31192E817D3
S1130530F907E1F781E08093063C1092043C1092A5
S1130540053CF0C08091043C9091053C81309105BC
S113055019F0029791F0E6C00E949F0190E0809309
S1130560323C9093333C8091043C9091053C01963D
S11305708093043C9093053CD5C00E949F0190E079
S113058080934C3C90934D3C1092043C1092053C5B
S113059081E08093063CC6C00E949F0180933B3C4F
S11305A080913B3C813021F410923B3C8093033C8E
S11305B0E091043CF091053C80913B3CE75EF34CB8
S11305C080838091043C9091053C01968093043C87
S11305D09093053C8091043C9091053C0A9709F066
S11305E0A1C081E08093063C1092043C1092053C2B
S11305F099C00E949F0180933B3C20913B3C809199
S11306002E3C90912F3CA091303CB091313CBA2FBC
S1130610A92F982F8827822B80932E3C90932F3CD0
S1130620A093303CB093313C8091043C9091053CC4
S113063001968093043C9093053C8091043C9091F6
S1130640053C059709F06EC081E08093063C10924A
S1130650043C1092053C66C08091043C9091053C9A
S1130660019751F48FE09CE380930D3C90930E3CF2
S11306708093343C9093353C0E949F0180933B3C93
S1130680E091343CF091353C80913B3C80838091F7
S1130690043C9091053C01968093043C9093053C66
S11306A08091343C9091353C01968093343C9093F6
S11306B0353C8091043C9091053C059799F581E087
S11306C08093063C1092043C1092053C2BC0809110
S11306D0013C9091023C9C012F5F3F4F2093013CD1
S11306E03093023CFC01E75FF34C80810E94E101FE
S11306F08091043C9091053C01968093043C909336
S1130700053C8091043C9091053C059759F481E0A7
S11307108093063C1092043C1092053C1092013CDC
S11307201092023CDF91CF9108959B012150310931
S11307301216130684F4FC01E60FF71FDC0180E0B7
S113074090E04C9152915D93408301962150310980
S113075082179307B4F308958F929F92AF92BF923A
S1130760CF92DF92EF92FF920F931F93CF93DF9379
S11307706A0179016115710581059105E9F08A0124
S1130780C0E0D0E00F2EFAE08F2E912CA12CB12CDA
S1130790F02D2196A50194010E94B310605DF8012B
S11307A061938F01622F732F842F952F611571052B
S11307B08105910571F702C0C0E0D0E0CE15DF05D8
S11307C05CF4CC0DDD1D96012E0D3F1D80E3899355
S11307D0C217D307E1F701C07E01B701C6010E9429
S11307E09503F601EE0DFF1D1082B701FF0C880B77
S11307F0990BDF91CF911F910F91FF90EF90DF90B4
S1130800CF90BF90AF909F908F9008954F925F923A
S11308106F927F928F929F92AF92BF92CF92DF920C
S1130820EF92FF920F931F93CF93DF93CDB7DEB771
S11308302697CDBFDEBF6B017C0120E030E0A9012B
S11308400E94490D882324F08BE28093083C07C062
S11308508DE28093083CF7FAF094F7F8F094EDE316
S1130860FCE38CE49CE31192E817F907E1F7EAE171
S1130870FCE389E29CE311928E179F07E1F7C7011D
S1130880B6010E94C00D6A307105810591052CF4F2
S113089025E030E02D833E8302C01D821E828B0141
S11308A09C010A501109210931090A351105210554
S11308B0310520F424E030E02D833E838B019C013C
S11308C00456110921093109043813402105310561
S11308D020F423E030E02D833E83DC01CB01885EED
S11308E09340A109B10988329342A105B10520F4CE
S11308F082E090E08D839E831092193C20E030E4E6
S11309004CE156E4C701B6010E94A80E882344F1C5
S113091020E030E040E251E4C701B6010E94A80E95
S113092088230CF4C5C091E0998320E030E040E2D4
S113093051E4C701B6010E944E0D6B017C0129816F
S11309402D83322F3F5F398320E030E040E251E4D1
S11309500E94A80E88234CF74D814093193CA8C0EF
S11309602AE037ED43E25CE3C701B6010E94490D7A
S1130970882334F520E030E040E85FE3C701B601A6
S11309800E94490D88232CF01BC085E090E08D83E4
S11309909E831091193C20E030E040E251E4C7010D
S11309A0B6010E94AD0E6B017C01115020E030E0D5
S11309B040E85FE30E94490D88236CF31093193CCF
S11309C00D811E811127101611063CF019C005E097
S11309D010E025E030E02D833E83A12CB12C60E0B3
S11309E070E080E89FE320E030E040E251E40E94C0
S11309F04E0D3FEFA31AB30AA016B106A4F304C028
S1130A0060E070E080E89FE32DEC3CEC4CE05FE3B9
S1130A100E94AD0EA70196010E94DD0C4B015C0102
S1130A200E94C00D2B013C0120E030E04DE35CE36B
S1130A300E94AC036B017C018D819E81892B09F49A
S1130A4054C0F601E35CF34C8EE280832D813E8139
S1130A50B901330F880B990B0E94F80D9B01AC016F
S1130A6060E070E080E291E40E941A0F69837A8367
S1130A708B839C83C301B2010E94F80D9B01AC01DE
S1130A80C501B4010E94DC0C96012F5F3F4F890120
S1130A90035C134C29813A814B815C810E94AD0E29
S1130AA00E94C00D2D813E81A8010E94AC031DC08F
S1130AB02AE037ED43E25CE3C701B6010E94490D29
S1130AC088230CF084CF20E030E040E85FE3C701E6
S1130AD0B6010E94490D88230CF457CF05E010E0BD
S1130AE085E090E08D839E8378CF2696CDBFDEBFD0
S1130AF0DF91CF911F910F91FF90EF90DF90CF90F6
S1130B00BF90AF909F908F907F906F905F904F9029
S1130B1008958091193C8A3014F093E001C092E06A
S1130B20873F0CF45DC0382F29E0280F293060F08E
S1130B30933051F0923009F05AC0EAE1FCE3805D51
S1130B40808385E481830895181634F5EAE1FCE393
S1130B5027E68202912D11249595959587FD93950D
S1130B60592F550F452F440F440F450F582F541B31
S1130B70452F405D40839202212D11242595259512
S1130B8097FD2395220F422F440F440F240F921BED
S1130B90905D918395E4928388234CF5EAE1FCE32C
S1130BA080E3831B80838DE2818385E482830895BF
S1130BB0992781950CF49095EAE1FCE32AE030E072
S1130BC0B9010E949F10805D8083CB01B9010E940E
S1130BD09F10805D81838DE2828385E48383089501
S1130BE0382F99E0980F993008F4AECFE1CF0895EB
S1130BF01092293C10922A3C1092200A1092210A49
S1130C0080ED97E08093280A9093290A81E08093ED
S1130C10000AEAE0FAE0808180618083089598ED1B
S1130C2094BF87E080936100E1E7F0E08081815028
S1130C3094BF80838AEF90E08093173C9093183C94
S1130C40CAE1DCE309E21CE3FE0111920E171F075F
S1130C50E1F781E48093363CEAE1FCE387E090E04D
S1130C609C01992324F422273327281B390B205D68
S1130C7021930297873F2FEF920791F7E0E0F4E08A
S1130C8080818E6F8083E0E2F4E080818F638083D3
S1130C90E0E4F4E08081876080838081877F8083C3
S1130CA08481877F848383898860838B0E94F8058D
S1130CB078940F2EFCE4EF2EFCE3FF2EF02D0F2E84
S1130CC0F2E2AF2EFCE3BF2EF02D0F2EF5E48F2EB3
S1130CD0FCE39F2EF02D0F2EFAE1CF2EFCE3DF2E46
S1130CE0F02D0F2EFCE36F2EFCE37F2EF02D442419
S1130CF04394512C6894222425F8332432F88091AB
S1130D00063C8823E1F31092063C81E08093003C8A
S1130D108091073C833409F48CC138F4813409F49C
S1130D20A0C0823409F4DFC065C2853409F444C22A
S1130D3008F4BAC1823609F05DC2E091323CF09108
S1130D40333CE154F109E732F10588F5E05AFF4FED
S1130D500C94D2101092323C1092333C58C283E06F
S1130D6090E08093323C9093333C51C284E090E015
S1130D708093323C9093333C4AC282E090E080936B
S1130D80323C9093333C43C285E090E08093323C04
S1130D909093333C3CC2A6E0B0E0A093323CB093C5
S1130DA0333C35C24092323C5092333C30C2E8E08E
S1130DB0F0E0E093323CF093333C1CC22091323C8F
S1130DC03091333C4091073C4336E9F440910404AC
S1130DD0417040930404D10114964C9114974E7FB2
S1130DE014964C93149714964C9114974E6314963E
S1130DF04C9340914404476040934404FE01119293
S1130E000E171F07E1F74091073C423609F0F2C183
S1130E10F901E65EF34C4081642F70E0082E02C0B5
S1130E20759567950A94E2F760FF0EC0F901E65ED6
S1130E30F34C920102C0220F331F8A95E2F7C901D5
S1130E40809548234083D6C1F901E65EF34CD20174
S1130E5002C0AA0FBB1F8A95E2F7CD01842B8083C1
S1130E60C9C18091033C813009F0C4C11092033C94
S1130E70ADE3BCE3FD011192EE16FF06E1F7F601C6
S1130E808685811110C0E8E2FCE381E09291992308
S1130E9031F02EE030E0281B31093AF411C08F5FA5
S1130EA08F30A1F70DC02EE030E0F901E55EF34C80
S1130EB080E090E042914D93019628173907D4F7CA
S1130EC08DE39CE30E9412116093373C7093383C8D
S1130ED08093393C90933A3CE9E0FCE3908381832E
S1130EE07283638387C18091033C813009F082C19E
S1130EF01092033CD6011E968C91882364F1A8E2DB
S1130F00BCE32BE13CE3FD0103C0E217F30721F04E
S1130F1082918823D4F71FC0FE0180E090E040E076
S1130F2050E061916F7D653409F4AC0101968F3016
S1130F309105B9F74115510559F0FA01E55EF34CF5
S1130F4080818068808307C02A173B0709F467C142
S1130F508E918823CCF7ADE3BCE3FD011192EE162C
S1130F60FF06E1F761C19291992331F02EE030E060
S1130F70281B31093AF460C18F5F8F30A1F75CC13F
S1130F802EE030E0F901E55EF34C80E090E0429120
S1130F904D93019628173907D4F74EC181918823C0
S1130FA054F04F5F5F4F4F305105C1F722E030E0FE
S1130FB040E050E00BC0FA01E35CF34C8F77808390
S1130FC09A012E5F3F4F2F30310554F4EBE4FCE3DC
S1130FD08EE090E001976291618382179307D4F7C2
S1130FE0FA01E35CF34C8EE281838DE39CE30E947F
S1130FF00E116093133C7093143C8093153C9093B2
S1131000163C83E19CE38093343C9093353CA9E007
S1131010BCE32DE03CE3E091343CF091353C81911C
S11310208D93E093343CF093353CA217B30799F7C2
S1131030E1C0FE0111920E171F07E1F7EDE3FCE397
S11310401192EE15FF05E1F760912E3C70912F3C53
S11310508091303C9091313C2AE04DE35CE30E9466
S1131060391180914B3C811110C0EBE4FCE381E029
S11310709291992331F02EE030E0281B31093AF4A3
S1131080B9C08F5F8F30A1F7B5C02EE030E0D90131
S1131090A25CB34CFE0180E090E04E914193019636
S11310A028173907D4F7A6C0E0910D3CF0910E3C07
S11310B0608171818281938160930F3C7093103CB5
S11310C08093113C9093123C0E94060480913D3C15
S11310D08E3221F480EB80933D3C1EC0EEE3FCE3B2
S11310E081E090E021912E3229F001968F30910514
S11310F0C9F7ABC0FC01E45CF34C20812068208379
S11311008E3091054CF4FC01E35CF34C0196218193
S113111021938E309105D4F38091083C8D3261F493
S1131120EBE4FCE32DE33CE382918183E217F307D4
S1131130D9F78DE280933D3CECE4FCE301C01C92C2
S11311403197DF0180818823D1F38033C1F380910B
S11311504B3C811110C0EBE4FCE381E092919923B4
S113116031F02EE030E0281B31093AF412C08F5FD1
S11311708F30A1F70EC02EE030E0D901A25CB34C51
S1131180FE0180E090E04E914193019628173907C3
S1131190D4F78091193C882369F1E8E2FCE3829159
S11311A08183EC17FD07D9F7F60110828781882324
S11311B0A1F30E9489051EC0ADE3BCE3CD01FE018D
S11311C0AD012191DC012D93CD01AE16BF06C9F707
S11311D0DA01FE0111920E171F07E1F7E7EAF1E6C3
S11311E03197F1F700C00000FE018D918193A8159D
S11311F0B905D9F78091073C873421F08091073CE9
S11312008093363C1092073C1092003C78CD80913C
S11312104C3C90914D3C8830910560F7CFCDD60180
S11312208C9180688C9397CEF60186858111A8CE27
S1131230E8E2FCE381E097CE80913D3C882364F0B2
S1131240EEE3FCE341E050E0A9CED3018C91806849
S11312508C9380E090E057CF8F7780933D3C22E0E1
S113126030E040E050E0B2CEE091293CF0912A3CDD
S1131270E65EF34CE0818E2F90E0FC01BD97ED38E3
S1131280F10508F01DC1E957FF4F0C94D210E0E2BC
S1131290F4E08481857C8483E0E4F4E08481897FC4
S11312A084830895E0E2F4E084818D7E848308954C
S11312B0E0E2F4E08481877C8483E0E4F4E08481E8
S11312C08A7F84830895E0E2F4E08481857C8483CA
S11312D0E0E4F4E084818E7F84830895E0E2F4E026
S11312E084818D7E8483E0E4F4E084818C7F848334
S11312F00895E0E2F4E08481857D8483E0E4F4E011
S113130084818C7F84830895E0E2F4E08481857F86
S11313108483E0E4F4E08481887F84830895E0E2B8
S1131320F4E084818D7C84830895E0E2F4E0848198
S1131330857C8483E0E4F4E08481887F8483089559
S1131340E0E2F4E084818D7C8483E0E4F4E0848151
S11313508C7F84830895E0E4F4E084818E7F848329
S11313600895E0E2F4E08481877D8483E0E4F4E09E
S11313708481887F84830895E0E2F4E08481857C1D
S11313808483A0E4B4E014968C911497897F149616
S11313908C9384818B7F84830895E0E2F4E08481DC
S11313A08D7E848384818B7F84830895E0E2F4E0DE
S11313B08481877C8483A0E4B4E014968C91149790
S11313C08A7F14968C9384818B7F84830895E0E2D2
S11313D0F4E08481857C8483A0E4B4E014968C9149
S11313E014978E7F14968C9384818B7F84830895C5
S11313F0E0E2F4E084818D7E8483A0E4B4E014967A
S11314008C9114978C7F14968C9384818B7F848326
S11314100895E0E2F4E08481857D8483A0E4B4E06F
S113142014968C9114978C7F14968C9384818B7F63
S113143084830895E0E2F4E08481857F8483A0E4DA
S1131440B4E014968C911497887F14968C938481BD
S11314508B7F84830895E0E2F4E084818D7C84832F
S113146084818B7F84830895E0E2F4E08481857C29
S11314708483A0E4B4E014968C911497887F149626
S11314808C9384818B7F84830895E0E2F4E08481EB
S11314908D7C8483A0E4B4E014968C9114978C7FA3
S11314A014968C9384818B7F84830895E0E4F4E024
S11314B084818E7F8483E0E2F4E084818B7F848363
S11314C00895E091293CF0912A3CE830F105E8F4D4
S11314D0EC5EFE4F0C94D21081E00DC084E00BC092
S11314E088E009C080E107C080E205C080E403C051
S11314F080E801C082E090911A3C982339F0E0E240
S1131500F4E094819F7D948301C080E090911B3C22
S1131510982329F0E0E4F4E094819E7F94839091F1
S11315201C3C982329F0E0E2F4E09481977F9483B3
S113153090911D3C982329F0E0E2F4E094819F7E91
S1131540948390911E3C982329F0E0E2F4E0948186
S11315509D7F948390911F3C982329F0E0E4F4E06C
S113156094819B7F94839091203C892329F0E0E42B
S1131570F4E084818D7F8483089510924A0A109246
S11315804B0A80934C0A90934D0A81E08093400A61
S11315908093450A0895E091293CF0912A3CE83073
S11315A0F10598F5E45EFE4F0C94D210E0E0F4E00F
S11315B084818068848329C0E0E0F4E084818064CD
S11315C0848323C0E0E0F4E08481806284831DC0CE
S11315D0E0E0F4E084818061848317C0E0E2F4E019
S11315E084818160848311C0E0E0F4E084818860B8
S11315F084830BC0E0E0F4E084818460848305C0CC
S1131600E0E0F4E08481826084838091363C81361A
S113161061F020F48154853028F01EC1823609F42B
S113162019C11AC10E94340917C1E091293CF091F3
S11316302A3CE830F10508F00FC1EC5DFE4F0C9434
S1131640D21080911A3C80FF05C0E0E2F4E094815E
S11316509F7E948381FF05C0E0E4F4E084818D7F64
S1131660848380911B3C80FF05C0E0E2F4E0948118
S11316709D7F948381FFF0C0E0E4F4E084818B7F5C
S11316808483EAC080911A3C82FF05C0E0E2F4E062
S113169094819F7E948383FF05C0E0E4F4E0848119
S11316A08D7F848380911B3C82FF05C0E0E2F4E0DF
S11316B094819D7F948383FFCFC0E0E4F4E0848130
S11316C08B7F8483C9C080911A3C84FF05C0E0E20B
S11316D0F4E094819F7E948385FF05C0E0E4F4E008
S11316E084818D7F848380911B3C84FF05C0E0E26C
S11316F0F4E094819D7F948385FFAEC0E0E4F4E040
S113170084818B7F8483A8C080911A3C86FF05C0A6
S1131710E0E2F4E094819F7E948388232CF4E0E457
S1131720F4E084818D7F848380911B3C86FF05C017
S1131730E0E2F4E094819D7F948388230CF08CC0D4
S1131740E0E4F4E084818B7F848386C080911C3C38
S113175080FF05C0E0E2F4E094819F7E948381FFE2
S113176005C0E0E4F4E084818D7F848380911D3C96
S113177080FF05C0E0E2F4E094819D7F948381FFC3
S11317806BC0E0E4F4E084818B7F848365C0809146
S11317901C3C82FF05C0E0E2F4E094819F7E9483C8
S11317A083FF05C0E0E4F4E084818D7F848380912D
S11317B01D3C82FF05C0E0E2F4E094819D7F9483A8
S11317C083FF4AC0E0E4F4E084818B7F848344C0D7
S11317D080911C3C84FF05C0E0E2F4E094819F7E8C
S11317E0948385FF05C0E0E4F4E084818D7F8483E5
S11317F080911D3C84FF05C0E0E2F4E094819D7F6C
S1131800948385FF29C0E0E4F4E084818B7F8483A2
S113181023C080911C3C86FF05C0E0E2F4E0948183
S11318209F7E948388232CF4E0E4F4E084818D7F0C
S1131830848380911D3C86FF05C0E0E2F4E094813E
S11318409D7F9483882344F4E0E4F4E084818B7FD7
S1131850848302C00E94610A8091173C9091183CD5
S11318600E94BD0A08951F920F920FB60F92112481
S11318702F933F934F935F936F937F938F939F9394
S1131880AF93BF93EF93FF93EBE0FAE08081806125
S113189080838091293C90912A3C08971CF50E94F2
S11318A0CB0A8091293C90912A3C07974CF4E8E2BA
S11318B0FAE0808191818053984F8083918308C09E
S11318C0E8E2FAE080819181885F984F8083918378
S11318D08091293C90912A3C01968093293C9093D5
S11318E02A3C32C08091293C90912A3C01968093F5
S11318F0293C90932A3C8091280A9091290A885681
S1131900974F80932C3C90932D3C8091003C811107
S11319100FC0E8E2FAE08081918188539F4F808371
S11319209183E0E4F4E08081886080830E94200257
S113193080912C3C90912D3C8093280A9093290A05
S11319401092293C10922A3CFF91EF91BF91AF91E4
S11319509F918F917F916F915F914F913F912F91C3
S11319600F900FBE0F901F9018951F920F920FB6F5
S11319700F9211248F93EF93FF9381E08093460A93
S11319801092400AE0E0F4E0848181708483E0E214
S1131990F4E084818E7F848384818E638483E0E495
S11319A0F4E0848187608483FF91EF918F910F909D
S11319B00FBE0F901F9018955058BB27AA270E945E
S11319C0F40C0C946E0E0E94600E38F00E94670EA8
S11319D020F039F49F3F19F426F40C945D0E0EF4B4
S11319E0E095E7FB0C94570EE92F0E947F0E58F305
S11319F0BA17620773078407950720F079F4A6F5F0
S1131A000C94A10E0EF4E0950B2EBA2FA02D0B0111
S1131A10B90190010C01CA01A0011124FF27591B2F
S1131A2099F0593F50F4503E68F11A16F040A22F35
S1131A30232F342F4427585FF3CF469537952795A6
S1131A40A795F0405395C9F77EF41F16BA0B620BA5
S1131A50730B840BBAF09150A1F0FF0FBB1F661FEC
S1131A60771F881FC2F70EC0BA0F621F731F841F2F
S1131A7048F4879577956795B795F7959E3F08F055
S1131A80B0CF9395880F08F09927EE0F9795879517
S1131A9008950E94330E08F481E008950E94620DB7
S1131AA00C946E0E0E94670E58F00E94600E40F077
S1131AB029F45F3F29F00C94570E51110C94A20E97
S1131AC00C945D0E0E947F0E68F39923B1F35523A5
S1131AD091F3951B550BBB27AA276217730784073D
S1131AE038F09F5F5F4F220F331F441FAA1FA9F3D3
S1131AF035D00E2E3AF0E0E832D091505040E695C1
S1131B00001CCAF72BD0FE2F29D0660F771F881F21
S1131B10BB1F261737074807AB07B0E809F0BB0B14
S1131B20802DBF01FF2793585F4F3AF09E3F510528
S1131B3078F00C94570E0C94A20E5F3FE4F3983E99
S1131B40D4F3869577956795B795F7959F5FC9F711
S1131B50880F911D9695879597F90895E1E0660F92
S1131B60771F881FBB1F621773078407BA0720F00B
S1131B70621B730B840BBA0BEE1F88F7E095089574
S1131B800E94C70D6894B1110C94A20E08950E948E
S1131B90870E88F09F5798F0B92F9927B751B0F066
S1131BA0E1F0660F771F881F991F1AF0BA95C9F7DD
S1131BB014C0B13091F00E94A10EB1E008950C94CC
S1131BC0A10E672F782F8827B85F39F0B93FCCF37F
S1131BD0869577956795B395D9F73EF4909580955A
S1131BE0709561957F4F8F4F9F4F0895E89409C07A
S1131BF097FB3EF490958095709561957F4F8F4F3C
S1131C009F4F9923A9F0F92F96E9BB279395F69551
S1131C10879577956795B795F111F8CFFAF4BB0FCF
S1131C2011F460FF1BC06F5F7F4F8F4F9F4F16C033
S1131C30882311F096E911C0772321F09EE8872FBD
S1131C40762F05C0662371F096E8862F70E060E079
S1131C502AF09A95660F771F881FDAF7880F9695F2
S1131C60879597F90895990F0008550FAA0BE0E896
S1131C70FEEF16161706E807F907C0F0121613064A
S1131C80E407F50798F0621B730B840B950B39F48A
S1131C900A2661F0232B242B252B21F408950A26F0
S1131CA009F4A140A6958FEF811D811D089597F930
S1131CB09F6780E870E060E008959FEF80EC0895EE
S1131CC000240A9416161706180609060895002417
S1131CD00A9412161306140605060895092E039491
S1131CE0000C11F4882352F0BB0F40F4BF2B11F405
S1131CF060FF04C06F5F7F4F8F4F9F4F089557FD64
S1131D009058440F551F59F05F3F71F04795880F65
S1131D1097FB991F61F09F3F79F0879508951216FC
S1131D2013061406551FF2CF4695F1DF08C01616A8
S1131D3017061806991FF1CF869571056105089459
S1131D400895E894BB2766277727CB0197F9089570
S1131D500E94330E08F48FEF08950E94C00E0C9475
S1131D606E0E0E94600E38F00E94670E20F09523DC
S1131D7011F00C94570E0C945D0E11240C94A20EC9
S1131D800E947F0E70F3959FC1F3950F50E0551F8D
S1131D90629FF001729FBB27F00DB11D639FAA27BC
S1131DA0F00DB11DAA1F649F6627B00DA11D661F0B
S1131DB0829F2227B00DA11D621F739FB00DA11D2C
S1131DC0621F839FA00D611D221F749F3327A00DE6
S1131DD0611D231F849F600D211D822F762F6A2F82
S1131DE011249F5750409AF0F1F088234AF0EE0FE7
S1131DF0FF1FBB1F661F771F881F91505040A9F714
S1131E009E3F510580F00C94570E0C94A20E5F3F38
S1131E10E4F3983ED4F3869577956795B795F7954F
S1131E20E7959F5FC1F7FE2B880F911D96958795C7
S1131E3097F90895FA01EE0FFF1F30962105310539
S1131E40A1F16115710561F48038BFE39B0749F185
S1131E5068949038810561F08038BFEF9B0741F0AA
S1131E6099234AF5FF3FE1053105210519F1E8946D
S1131E700894E795D901AA2329F4AB2FBE2FF85F64
S1131E80D0F310C0FF5F70F4A695E0F7F73950F077
S1131E9019F0FF3A38F49F779F930DD00F9007FC09
S1131EA09058089546F00C945D0E60E070E080E870
S1131EB09FE308954FE79F775F934F933F932F934B
S1131EC00E9415102F913F914F915F910E94AD0E8A
S1131ED00C94720F29F416F00C94570E0C94A10E66
S1131EE00C945D0E0E94870EA8F39638A0F707F8AD
S1131EF00F92E8942BE33AEA48EB5FE70E94C30EA3
S1131F000F920F920F924DB75EB70F920E945D1021
S1131F10E8E5F2E00E94A40F4F915F91EF91FF91E9
S1131F20E595EE1FFF1F49F0FE57E0684427EE0FCA
S1131F30441FFA95E1F74195550B0E94D70F0F9076
S1131F4007FE0C94CB0F0895DF93CF931F930F9349
S1131F50FF92EF92DF927B018C01689406C0DA2E27
S1131F60EF010E94C00EFE01E894A59125913591E0
S1131F7045915591A6F3EF010E94F40CFE019701DF
S1131F80A801DA9469F7DF90EF90FF900F911F9109
S1131F90CF91DF9108959B01AC0160E070E080E88F
S1131FA09FE30C944E0D0C94570E0C9491100E94C8
S1131FB0870ED8F39923C9F3940F511DA3F39150BD
S1131FC0504094F059F0882332F0660F771F881F31
S1131FD091505040C1F79E3F51052CF7880F911D39
S1131FE09695879597F908955F3FACF0983E9CF0DD
S1131FF0BB27869577956795B79508F4B160939557
S1132000C1F7BB0F58F711F460FFE8CF6F5F7F4F44
S11320108F4F9F4FE3CF0C94A20E16F00C949110A7
S11320200C945D0E68940C94570E0E94870EA8F3CE
S11320309923C1F3AEF3DF93CF931F930F93FF92D2
S1132040C92FDD2788232AF02197660F771F881F61
S1132050DAF720E030E040E85FEB9FE3883920F0D6
S1132060803E38F021968F770E94DD0CE0E8F2E0A4
S113207004C00E94DD0CEDEAF2E00E94A40F8B0183
S1132080BE01EC01FB2E6F5771097595771F880B04
S1132090990B0E94F80D28E132E741E35FE30E94C7
S11320A0C00EAF2D9801AE01FF900F911F91CF91FB
S11320B0DF910E94F40C0C946E0EFA01DC01AA0F5D
S11320C0BB1F9B01AC01BF5728F4222733274427A9
S11320D0507820C0B75190F4AB2F00244695379523
S11320E02795011CA395D2F3002071F0220F331F12
S11320F0441FB395DAF30ED00C94DC0C61307105F7
S1132100A0E88A07B94630F49B01AC01662777271B
S113211088279078309621F020833183428353833B
S113212008959F3F31F0915020F4879577956795F6
S1132130B795880F911D9695879597F9089597FB04
S1132140072E16F4009407D077FD09D00E94D8100A
S113215007FC05D03EF4909581959F4F08957095A6
S113216061957F4F0895052E97FB1EF400940E94FD
S1132170CA1057FD07D00E94EC1007FC03D04EF4A0
S11321800C94CA1050954095309521953F4F4F4F70
S11321905F4F089590958095709561957F4F8F4F0F
S11321A09F4F0895EE0FFF1F0590F491E02D0994C1
S11321B0AA1BBB1B51E107C0AA1FBB1FA617B70769
S11321C010F0A61BB70B881F991F5A95A9F7809585
S11321D09095BC01CD010895A1E21A2EAA1BBB1B48
S11321E0FD010DC0AA1FBB1FEE1FFF1FA217B307DF
S11321F0E407F50720F0A21BB30BE40BF50B661FF5
S1132200771F881F991F1A9469F7609570958095B8
S113221090959B01AC01BD01CF01089566277727F6
S11322200C947F111F93FC0199278827BC01E89423
S113223011911032E9F3193010F01E30C8F31B323B
S113224051F01D3249F4689406C00E944811610F90
S1132250711D811D911D119110531A30B0F33EF47C
S113226090958095709561957F4F8F4F9F4F1F91EB
S11322700895BB272A3051F4992342F4BDE2909586
S11322808095709561957F4F8F4F9F4F0C945E1191
S1132290592F482F372F262F660F771F881F991F16
S11322A0660F771F881F991F620F731F841F951F66
S11322B0660F771F881F991F0895BB27FA01A62F61
S11322C06217710581059105330B30FB66F0AA276F
S11322D0660F771F881F991FAA1FA21710F0A21B51
S11322E063953850A9F7A05DAA3308F0A95DA193BE
S11322F036F7B111B1931082CA010C94EE12A0E02A
S1132300B0E0E5E8F1E10C941213EC016B01611506
S1132310710519F0FB01808391837E01FFEFEF1AB1
S1132320FF0A0881802F90E00E94CD12892B11F0C2
S1132330E701F3CF0D3239F47E0182E0E80EF11C9F
S1132340098111E008C00B3229F47E0192E0E90E04
S1132350F11C098110E0E701219743E050E062EEAF
S113236072E0CE010E94D612892BC1F4239645E077
S113237050E06DED72E0CE010E94D612892B09F473
S11323802596C114D10419F0F601C083D18311112B
S1132390F6C060E070E080E89FE7FAC043E050E0F8
S11323A06AED72E0CE010E94D612892B59F4C11451
S11323B0D10409F4E9C0F2E0EF0EF11CF601E08269
S11323C0F182E2C020E030E0A901C0E0D0E0F701F2
S11323D080EDA82EA00E89E08A1530F1912F92602D
S11323E0B92E812F887012FF04C0811124C0219658
S11323F022C081112197A5E0B0E00E940113DC0105
S1132400CB01880F991FAA1FBB1F9C01AD012A0D88
S1132410311D411D511D283989E93807480789E1D3
S1132420580748F0166006C09EEFA9120AC013FDB3
S113243040C01860B12E8FEFE81AF80A00811B2DF6
S1132440C6CF802F8F7D8534A1F580818D3211F424
S1132450106106C08B3221F0319661E070E004C057
S11324608181329662E070E080538A3018F0E61B76
S1132470F70B1FC060E070E060389CE079075CF403
S1132480DB01AA0FBB1FAA0FBB1F6A0F7B1F660FBE
S1132490771F680F711D3196DF0111978C9180535E
S11324A08A3050F314FF03C0719561957109C60F0A
S11324B0D71F11FF08C0C114D10429F0CF0101971F
S11324C0F60180839183CA01B9010E94F60D212F80
S11324D02370233019F04B015C0106C04B015C01F1
S11324E0B7FAB094B7F8B09420E030E0A901C50180
S11324F0B4010E94490D882309F43EC0D7FF06C0E9
S1132500D195C195D10909EF12E002C001E113E0B0
S11325106801F8E1CF1AD10890E2E92EF12CCE152A
S1132520DF0574F0F8012591359145915491C50169
S1132530B4010E94AD0E4B015C01CE19DF09EFCF4F
S113254004501109F594E7940C151D0541F78A2DE3
S1132550880F8B2D881F8F3F49F020E030E0A901C0
S1132560C501B4010E94490D811106C082E290E0C8
S113257080934E3C90934F3CC501B40109C060E088
S113258070E080E89FEF04C060E070E080EC9FE7BB
S1132590CDB7DEB7ECE00C942B1391110C94FE1222
S11325A0803219F089508550C8F70895FB01DC0189
S11325B04150504088F08D9181341CF08B350CF4DF
S11325C0805E659161341CF06B350CF4605E861B93
S11325D0611171F3990B0895881BFCCFDC01FC0198
S11325E0672F71917723E1F7329704C07C916D9343
S11325F070836291AE17BF07C8F30895992788279F
S113260008950E943D13A59F900DB49F900DA49F23
S1132610800D911D112408952F923F924F925F9245
S11326206F927F928F929F92AF92BF92CF92DF92DE
S1132630EF92FF920F931F93CF93DF93CDB7DEB743
S1132640CA1BDB0BCDBFDEBF09942A8839884888B2
S11326505F846E847D848C849B84AA84B984C884BA
S1132660DF80EE80FD800C811B81AA81B981CE0FB1
S1132670D11DCDBFDEBFED010895A29FB001B39F70
S1132680C001A39F700D811D1124911DB29F700D77
S10F2690811D1124911D0895F894FFCFC2
S9030000FC
