:100000000C9475000C9492000C9492000C94920045
:100010000C94BB010C9492000C9492000C949200EE
:100020000C9492000C9492000C9492000C94920008
:100030000C9492000C9492000C9492000C949200F8
:100040000C9492000C9492000C9492000C949200E8
:100050000C9492000C9492000C9492000C949200D8
:100060000C9492000C94920007634236B79BD8A779
:100070001A39685618AEBAAB558C1D3CB7CC5763CD
:10008000BD6DEDFD753EF6177231BF000000803F7B
:1000900008000000BE922449123EABAAAA2ABECD97
:1000A000CCCC4C3E00000080BEABAAAAAA3E000009
:1000B0000000BF000000803F000000000008417801
:1000C000D3BB4387D1133D190E3CC3BD4282AD2B38
:1000D0003E68EC8276BED98FE1A93E4C80EFFFBE30
:1000E00001C4FF7F3F000000000011241FBECFEFBE
:1000F000D8E0DEBFCDBF11E0A0E0B1E0EEE7FEE06A
:1001000002C005900D92A037B107D9F721E0A0E712
:10011000B1E001C01D92A538B207E1F70E94660266
:100120000C943D070C940000AC0148535F4FFC0158
:100130002191CF01222349F03091C00035FFFCCF3F
:100140002093C6008417950791F7089510927501C2
:100150001092720181E08093730180916C00806144
:1001600080936C007894809172018823E1F3F89475
:100170000895AF92BF92CF92DF92EF92FF920F93CA
:100180001F93CF93DF9300D000D0CDB7DEB7198295
:100190001A821B821C82DFB6789410928201109220
:1001A00076011092770110927801109279011092E5
:1001B0007A0110927B0110927C0110927D01809156
:1001C000C00087FFFCCF8091C60090ED980F9A3059
:1001D00030F08D3231F08E3291F780EB02C08E32EA
:1001E000E1F38093760182E4809384010E94A6006B
:1001F00026E7E22E21E0F22E3EE7A32E31E0B32ED9
:100200008701F80181918F01809384010E94A600EB
:10021000A016B106B1F780918201809384010E94FB
:10022000A60092E4C92E8091C00087FFFCCF809188
:10023000C6008D3019F08A3009F05BC081E49FE17F
:100240002091C00027FD52C00197D1F781E0809333
:10025000820182E4809384010E94A600F7018191CB
:100260007F01809384010E94A6000E151F05B1F73F
:1002700080918201809384010E94A60010928201E5
:1002800085E4809384010E94A600FE01319692E0ED
:100290009E012B5F3F4F1092750110927401909355
:1002A000730180916C00806180936C0078948091E0
:1002B00074018823E1F3F894809175018193E2172A
:1002C000F30749F7DFBE69817A818B819C810F90AA
:1002D0000F900F900F90DF91CF911F910F91FF9092
:1002E000EF90DF90CF90BF90AF9008958091C600BF
:1002F000ADCF90ED980F9A30B0F08E32C1F18830CA
:10030000A1F08D3229F0982F9F7D953409F08BCF85
:10031000EDE7F1E09291918391E0E637F907D1F7AB
:100320008093760109C0883001F5E6E7F1E081812C
:100330008193E017F107D9F7C09284010E94A600CB
:1003400086E7A82E81E0B82EF50181915F018093A8
:1003500084010E94A600A016B106B1F78091820127
:10036000809384010E94A6005ECF8E3289F6809130
:1003700076018068D5CF1F920F920FB60F9211248D
:100380002F933F934F935F936F937F938F939F939D
:10039000AF93BF93EF93FF9334996AC080916C0041
:1003A0008F7E80936C00809173018130C9F516BCFB
:1003B00082E085BD84E687BDA99BFECF8FEF85BB1C
:1003C000449A87B5885387BDA99BFECF8FEF85BB25
:1003D0003C9A87B5885387BDA99BFECF8FEF85BB1D
:1003E00027E030E04FEF80918401082E000C990B3C
:1003F000022E02C0959587950A94E2F780FF64C0AB
:10040000449A87B5885387BDA99BFECF45BB215031
:10041000310948F73C98449881E08093720115BCFB
:1004200080917301823021F516BC85BD84E687BDBD
:10043000A99BFECF8FEF85BB88E090E04FEF27B5FB
:10044000285327BDA99BFECF45BB20917501220FE4
:10045000330B20937501349B05C0209175012160F9
:1004600020937501019759F715BC81E080937401C1
:10047000339919C09FEF21EE84E0915020408040D5
:10048000E1F700C00000339BFECF9FEF21EE84E038
:10049000915020408040E1F700C0000087E4809345
:1004A00084010E94A600FF91EF91BF91AF919F91AF
:1004B0008F917F916F915F914F913F912F910F900D
:1004C0000FBE0F901F90189544989BCFA89584B7A6
:1004D000877F84BF80916000886180936000109264
:1004E000600080917C00806480937C0085B78F7E63
:1004F00085BF14B817B81AB88FEF85B988B98BB90A
:100500001092C1001092C50080E18093C40082E087
:100510008093C00088E18093C10086E08093C20090
:100520008091680082608093680080916C00886090
:1005300080936C00449886E4809384010E94A60016
:1005400054E4E52E789480E091E00E94940090E0DD
:1005500080E02AEF30E04091C00047FD7DC0019669
:1005600081344FE1940724F02150310990E080E07C
:100570002115310581F7E7CFC63621F789E091E0F3
:100580000E9494000E94B9008B01D82FC92FD12C52
:10059000C12CC114D10421F480E391E00E949400A5
:1005A0008091C00087FFFCCFF090C60090E3F91661
:1005B00049F20E94B9009B01AC018DE2F816D1F11D
:1005C0008F1518F19AE2F916D9F18BE2F81649F174
:1005D000E09284010E94A600009384010E94A6007C
:1005E000109384010E94A600D09384010E94A6006B
:1005F000C09384010E94A60078949FEFC91AD90A7B
:1006000045E6C416D10429F69DCF9FE2F916F1F014
:100610008EE5F812DDCFB8018D2F9C2F0E942005AA
:1006200005C0B8018D2F9C2F0E9484038B01D82F09
:10063000C92FCECFB8018D2F9C2F0E948303F6CFF8
:10064000B8018D2F9C2F0E94B304F0CFB8018D2FDD
:100650009C2F0E94F003EACFC091C600C093830193
:10066000C63619F0C93609F06ECF8DE291E00E94CE
:100670009400C93609F080CF13E449E0842E912C10
:10068000A12CB12CCEE9D0E03AE0C32ED12CE12C44
:10069000F12C109384010E94A6008F2DBB2787FDAB
:1006A000B0959B2FAB2F809384010E94A600C701B9
:1006B000BB2797FDB095AB2F809384010E94A600C5
:1006C000BB27F7FCBA95AF2D9E2D8D2D809384010D
:1006D0000E94A600C09284010E94A6008FE39CE9BC
:1006E0000197F1F700C00000AAE0B0E0A701960171
:1006F0000E940107A50194010E94E20669017A01A6
:10070000219739F6BFCF5058BB27AA270E949B03D9
:100710000C9479040E946B0438F00E94720420F05B
:1007200039F49F3F19F426F40C9468040EF4E09514
:10073000E7FB0C946204E92F0E948A0458F3BA176D
:10074000620773078407950720F079F4A6F50C94E7
:10075000AC040EF4E0950B2EBA2FA02D0B01B901BD
:1007600090010C01CA01A0011124FF27591B99F027
:10077000593F50F4503E68F11A16F040A22F232F33
:10078000342F4427585FF3CF469537952795A79583
:10079000F0405395C9F77EF41F16BA0B620B730B2A
:1007A000840BBAF09150A1F0FF0FBB1F661F771F9B
:1007B000881FC2F70EC0BA0F621F731F841F48F450
:1007C000879577956795B795F7959E3F08F0B0CFD9
:1007D0009395880F08F09927EE0F979587950895C0
:1007E0000E9404040C9479040E94720458F00E9440
:1007F0006B0440F029F45F3F29F00C94620451111E
:100800000C94AD040C9468040E948A0468F3992344
:10081000B1F3552391F3951B550BBB27AA276217FC
:100820007307840738F09F5F5F4F220F331F441F09
:10083000AA1FA9F335D00E2E3AF0E0E832D091503D
:100840005040E695001CCAF72BD0FE2F29D0660F2A
:10085000771F881FBB1F261737074807AB07B0E86D
:1008600009F0BB0B802DBF01FF2793585F4F3AF073
:100870009E3F510578F00C9462040C94AD045F3FE8
:10088000E4F3983ED4F3869577956795B795F795F9
:100890009F5FC9F7880F911D9695879597F90895E1
:1008A000E1E0660F771F881FBB1F6217730784077D
:1008B000BA0720F0621B730B840BBA0BEE1F88F78C
:1008C000E095089597F99F6780E870E060E00895EB
:1008D0009FEF80EC089500240A9416161706180658
:1008E0000906089500240A94121613061406050634
:1008F0000895092E0394000C11F4882352F0BB0FC5
:1009000040F4BF2B11F460FF04C06F5F7F4F8F4F27
:100910009F4F089557FD9058440F551F59F05F3F62
:1009200071F04795880F97FB991F61F09F3F79F011
:1009300087950895121613061406551FF2CF469593
:10094000F1DF08C0161617061806991FF1CF869515
:100950007105610508940895E894BB2766277727F9
:10096000CB0197F908950E94C6040C9479040E9463
:100970006B0438F00E94720420F0952311F00C945F
:1009800062040C94680411240C94AD040E948A043F
:1009900070F3959FC1F3950F50E0551F629FF001D2
:1009A000729FBB27F00DB11D639FAA27F00DB11DEB
:1009B000AA1F649F6627B00DA11D661F829F222774
:1009C000B00DA11D621F739FB00DA11D621F839FFB
:1009D000A00D611D221F749F3327A00D611D231FD1
:1009E000849F600D211D822F762F6A2F11249F571F
:1009F00050409AF0F1F088234AF0EE0FFF1FBB1F22
:100A0000661F771F881F91505040A9F79E3F5105E0
:100A100080F00C9462040C94AD045F3FE4F3983EC4
:100A2000D4F3869577956795B795F795E7959F5F8A
:100A3000C1F7FE2B880F911D9695879597F908951C
:100A4000FA01EE0FFF1F309621053105A1F1611566
:100A5000710561F48038BFE39B0749F168949038D1
:100A6000810561F08038BFEF9B0741F099234AF57B
:100A7000FF3FE1053105210519F1E8940894E79558
:100A8000D901AA2329F4AB2FBE2FF85FD0F310C0F1
:100A9000FF5F70F4A695E0F7F73950F019F0FF3AD0
:100AA00038F49F779F930DD00F9007FC90580895CE
:100AB00046F00C94680460E070E080E89FE30895DD
:100AC0004FE79F775F934F933F932F930E941B06AF
:100AD0002F913F914F915F910E94B3040C94780540
:100AE00029F416F00C9462040C94AC040C94680481
:100AF0000E949204A8F39638A0F707F80F92E894A2
:100B00002BE33AEA48EB5FE70E94C9040F920F9289
:100B10000F924DB75EB70F920E946306E8E6F0E0D1
:100B20000E94AA054F915F91EF91FF91E595EE1F0D
:100B3000FF1F49F0FE57E0684427EE0F441FFA9567
:100B4000E1F74195550B0E94DD050F9007FE0C94CF
:100B5000D1050895DF93CF931F930F93FF92EF92E8
:100B6000DF927B018C01689406C0DA2EEF010E94AF
:100B7000C604FE01E894A5912591359145915591C2
:100B8000A6F3EF010E949B03FE019701A801DA94EE
:100B900069F7DF90EF90FF900F911F91CF91DF9158
:100BA00008959B01AC0160E070E080E89FE30C9445
:100BB000F0030C9462040C94D4060E949204D8F3BF
:100BC0009923C9F3940F511DA3F39150504094F011
:100BD00059F0882332F0660F771F881F91505040DC
:100BE000C1F79E3F51052CF7880F911D969587956B
:100BF00097F908955F3FACF0983E9CF0BB2786952F
:100C000077956795B79508F4B1609395C1F7BB0FD9
:100C100058F711F460FFE8CF6F5F7F4F8F4F9F4F02
:100C2000E3CF0C94AD0416F00C94D4060C94680435
:100C300068940C9462040E949204A8F39923C1F36F
:100C4000AEF3DF93CF931F930F93FF92C92FDD274E
:100C500088232AF02197660F771F881FDAF720E094
:100C600030E040E85FEB9FE3883920F0803E38F0C9
:100C700021968F770E948403E0E9F0E004C00E948F
:100C80008403EDEBF0E00E94AA058B01BE01EC01AC
:100C9000FB2E6F5771097595771F880B990B0E9472
:100CA000990628E132E741E35FE30E94C604AF2DD5
:100CB0009801AE01FF900F911F91CF91DF910E949B
:100CC0009B030C947904FA01DC01AA0FBB1F9B0162
:100CD000AC01BF5728F4222733274427507820C07F
:100CE000B75190F4AB2F0024469537952795011CFA
:100CF000A395D2F3002071F0220F331F441FB39548
:100D0000DAF30ED00C94830361307105A0E88A07F2
:100D1000B94630F49B01AC01662777278827907885
:100D2000309621F020833183428353830895E894E1
:100D300009C097FB3EF490958095709561957F4F23
:100D40008F4F9F4F9923A9F0F92F96E9BB279395D1
:100D5000F695879577956795B795F111F8CFFAF4E1
:100D6000BB0F11F460FF1BC06F5F7F4F8F4F9F4F12
:100D700016C0882311F096E911C0772321F09EE870
:100D8000872F762F05C0662371F096E8862F70E0D6
:100D900060E02AF09A95660F771F881FDAF7880FB0
:100DA0009695879597F908959F3F31F0915020F4DB
:100DB000879577956795B795880F911D9695879537
:100DC00097F90895052E97FB1EF400940E94F906EA
:100DD00057FD07D00E940C0707FC03D04EF40C947B
:100DE000F90650954095309521953F4F4F4F5F4FF5
:100DF000089590958095709561957F4F8F4F9F4F87
:100E000008950E942E07A59F900DB49F900DA49F5A
:100E1000800D911D11240895A1E21A2EAA1BBB1B5F
:100E2000FD010DC0AA1FBB1FEE1FFF1FA217B307B6
:100E3000E407F50720F0A21BB30BE40BF50B661FCC
:100E4000771F881F991F1A9469F760957095809590
:100E500090959B01AC01BD01CF010895A29FB00107
:100E6000B39FC001A39F700D811D1124911DB29FDE
:0E0E7000700D811D1124911D0895F894FFCF7F
:100E7E00662F693F2020202000456E746572204643
:100E8E00504E2066726F6D204B424420287465725E
:100E9E006D696E61746520696E206372290D0A009A
:100EAE000D0A456E746572207A65726F20746F201C
:100EBE0065786974206F72202B2C2D2C2A2C2F20F4
:100ECE006F72205E20666F6C6C6F7765642062793E
:100EDE00206E6577206E756D6265722E0D0A0000AC
:00000001FF
