:020000040000FA
:100000000C9434000C9446000C9446000C94BC00F4
:100010000C9459000C9446000C9446000C94460035
:100020000C9446000C9446000C9446000C94460038
:100030000C9446000C9446000C9446000C94460028
:100040000C9446000C9446000C9446000C94460018
:100050000C9446000C9446000C9446000C94460008
:100060000C9446000C94460011241FBECFEFD8E03C
:10007000DEBFCDBF21E0A0E0B1E001C01D92A930FC
:10008000B207E1F70E9457010C9415020C9400008E
:10009000109203011092040181E080930501809188
:1000A0006B00806180936B00809104018823E1F3F1
:1000B00008951F920F920FB60F9211242F933F9322
:1000C0004F935F936F937F938F939F93AF93BF9360
:1000D000EF93FF9335993FC02FE788E391E02150DC
:1000E00080409040E1F700C00000359934C02FE710
:1000F0008CEF9AE0215080409040E1F700C0000072
:10010000359B15C08CEF93E00E94FF01682F6D7F37
:100110008CEF93E00E94070288E199E00FB6F89413
:10012000A895809360000FBE90936000FFCF299A3E
:10013000289A2FEF84E39CE0215080409040E1F723
:1001400000C000003599E8CF789487E480930601D9
:100150000E944800E1CFFF91EF91BF91AF919F9135
:100160008F917F916F915F914F913F912F910F9060
:100170000FBE0F901F9018951F920F920FB60F92FF
:1001800011242F933F934F938F939F931C9983C078
:1001900080916B008F7E80936B0080910501813090
:1001A00009F047C016BC17BC82E085BD80910701ED
:1001B0009091080197FD01969595879587BDA99B1C
:1001C000FECF8FEF85BB2C9A87B590910701890FE1
:1001D00087BDA99BFECF8FEF85BB249A87B59091F1
:1001E0000701890F87BDA99BFECF8FEF85BB27E055
:1001F00030E04FEF80910601082E000C990B022E83
:1002000002C0959587950A94E2F780FF4EC02C9A1C
:1002100087B590910701890F87BDA99BFECF45BB8C
:100220002150310938F724982C9881E080930401FB
:1002300015BC80910501823071F516BC17BC85BDD7
:10024000809107019091080197FD019695958795FA
:1002500087BDA99BFECF8FEF85BB88E090E04FEF75
:1002600027B530910701230F27BDA99BFECF45BBC2
:1002700020910301220F330B209303011C9B05C027
:1002800020910301216020930301019749F715BCD8
:1002900081E0809302019F918F914F913F912F9127
:1002A0000F900FBE0F901F9018952C98B1CFA89566
:1002B00084B7877F84BF80916000886180936000ED
:1002C0001092600080917C00806480937C0085B7F0
:1002D0008F7E85BF14B817B81AB88FEF85B988B963
:1002E0008BB98FEF93E00E94FF01C82F80EF8C0F36
:1002F000803E40F48EEF93E00E94FF01C81302C0DD
:10030000C093660086EF93E00E94FF01C82F8F3CE8
:100310008CF082337CF487EF93E00E94FF01C813D6
:1003200009C08C2FCC0F990B88539F4F90930801D5
:1003300080930701809168008260809368008091BB
:100340006C00806280936C001092C1001092C50016
:1003500080E18093C40082E08093C00088E18093B4
:10036000C10086E08093C200809168008160809324
:10037000680080916B00806180936B002C9884B141
:10038000836084B9299828987894789431E6D32E9C
:1003900020E1E22EF12CC0E0D0E801E010E08091F5
:1003A00068008D7F80936800D09206010E9448000B
:1003B000009306010E944800C09306010E94480075
:1003C000109306010E944800D09306010E94480045
:1003D000809168008260809368009FEF26E781E04B
:1003E000915020408040E1F700C00000000F111F35
:1003F000D695C79591E0E91AF10889F6C9CFF99920
:10040000FECF92BD81BDF89A992780B50895262F19
:10041000F999FECF1FBA92BD81BD20BD0FB6F894E9
:0E042000FA9AF99A0FBE01960895F894FFCF4C
:107E0000112484B714BE81FFF0D085E080938100F7
:107E100082E08093C00088E18093C10086E0809377
:107E2000C20080E18093C4008EE0C9D0259A86E02C
:107E300020E33CEF91E0309385002093840096BBD3
:107E4000B09BFECF1D9AA8958150A9F7CC24DD24C4
:107E500088248394B5E0AB2EA1E19A2EF3E0BF2EE7
:107E6000A2D0813461F49FD0082FAFD0023811F036
:107E7000013811F484E001C083E08DD089C08234E0
:107E800011F484E103C0853419F485E0A6D080C0E4
:107E9000853579F488D0E82EFF2485D0082F10E0AE
:107EA000102F00270E291F29000F111F8ED06801E7
:107EB0006FC0863521F484E090D080E0DECF843638
:107EC00009F040C070D06FD0082F6DD080E0C81688
:107ED00080E7D80618F4F601B7BEE895C0E0D1E017
:107EE00062D089930C17E1F7F0E0CF16F0E7DF06D8
:107EF00018F0F601B7BEE89568D007B600FCFDCFD4
:107F0000A601A0E0B1E02C9130E011968C91119780
:107F100090E0982F8827822B932B1296FA010C0160
:107F200087BEE89511244E5F5F4FF1E0A038BF0790
:107F300051F7F601A7BEE89507B600FCFDCF97BE46
:107F4000E89526C08437B1F42ED02DD0F82E2BD052
:107F50003CD0F601EF2C8F010F5F1F4F84911BD097
:107F6000EA94F801C1F70894C11CD11CFA94CF0C13
:107F7000D11C0EC0853739F428D08EE10CD085E9AC
:107F80000AD08FE07ACF813511F488E018D01DD067
:107F900080E101D065CF982F8091C00085FFFCCF94
:107FA0009093C60008958091C00087FFFCCF809118
:107FB000C00084FD01C0A8958091C6000895E0E648
:107FC000F0E098E1908380830895EDDF803219F02E
:107FD00088E0F5DFFFCF84E1DECF1F93182FE3DFCA
:107FE0001150E9F7F2DF1F91089580E0E8DFEE27F6
:047FF000FF270994CA
:027FFE00040479
:00000001FF
