:020000040000FA
:100000000C9453000C947B000C947B000C94B00473
:100010000C944D040C947B000C947B000C947B009E
:100020000C947B000C947B000C947B000C947B0064
:100030000C947B000C947B000C947B000C947B0054
:100040000C94AB030C947B000C941B040C94F503F0
:100050000C947B000C947B000C947B000C947B0034
:100060000C947B000C947B004E414E494E495459F0
:10007000494E46CDCCCC3D0AD7233C17B7D1387773
:10008000CC2B329595E6241FB14F0A000020410089
:1000900000C84200401C4620BCBE4CCA1B0E5AAED3
:1000A000C59D74004B0511241FBECFEFD8E0DEBF05
:1000B000CDBF22E0AAEBB1E001C01D92A936B20784
:1000C000E1F711E0A0E0B1E0E8E2F7E102C005905D
:1000D0000D92AA3BB107D9F710E0C3E5D0E004C008
:1000E0002197FE010E948C0BC235D107C9F70E94EF
:1000F00078050C94920B0C940000AF92BF92CF92B3
:10010000DF92EF92FF920F931F93CF93DF936C01D7
:100110007B018B01040F151FEB015E01AE18BF08B8
:10012000C017D10759F06991D601ED91FC9101906A
:10013000F081E02DC6010995892B79F7C501DF9182
:10014000CF911F910F91FF90EF90DF90CF90BF90D4
:10015000AF900895FC01538D448D252F30E0842FFE
:1001600090E0821B930B541710F0CF9608950197DF
:100170000895FC01918D828D981761F0A28DAE0FCC
:10018000BF2FB11D5D968C91928D9F5F9F73928F53
:1001900090E008958FEF9FEF0895FC01918D828D7F
:1001A000981731F0828DE80FF11D858D90E008954C
:1001B0008FEF9FEF0895FC01918D228D892F90E0A4
:1001C000805C9F4F821B91098F7399270895FC01D2
:1001D000A48DA80FB92FB11DA35ABF4F2C91848DA8
:1001E00090E001968F739927848FA689B7892C9305
:1001F000A089B1898C91837080648C93938D848D58
:10020000981306C00288F389E02D80818F7D80835A
:100210000895EF92FF920F931F93CF93DF93EC011A
:1002200081E0888F9B8D8C8D98131AC0E889F9899D
:10023000808185FF15C09FB7F894EE89FF896083A0
:10024000E889F98980818370806480839FBF81E021
:1002500090E0DF91CF911F910F91FF90EF90089563
:10026000F62E0B8D10E00F5F1F4F0F731127E02E3E
:100270008C8D8E110CC00FB607FCFACFE889F98976
:10028000808185FFF5CFCE010E94E700F1CFEB8D95
:10029000EC0FFD2FF11DE35AFF4FF0829FB7F8944A
:1002A0000B8FEA89FB8980818062CFCFCF93DF9368
:1002B000EC01888D8823B9F0AA89BB89E889F9897E
:1002C0008C9185FD03C0808186FD0DC00FB607FCB3
:1002D000F7CF8C9185FFF2CF808185FFEDCFCE01E6
:1002E0000E94E700E9CFDF91CF9108951092BC0101
:1002F00081E08093BD0180916B00806180936B00F1
:100300008091BC018823E1F30895FC010190002055
:10031000E9F73197AF01481B590BBC018AEC91E01A
:100320000C947D00009711F00C94850190E080E022
:1003300008958F929F92AF92BF920F931F93CF9386
:10034000DF93CDB7DEB7A1970FB6F894DEBF0FBE2F
:10035000CDBF19A2423008F44AE08E010F5D1F4F55
:10036000842E912CB12CA12CA50194010E946A0B22
:10037000E62FB901CA01EA30D4F4E05DD801EE936A
:100380008D01232B242B252B79F7CD010E9492017F
:10039000A1960FB6F894DEBF0FBECDBFDF91CF910F
:1003A0001F910F91BF90AF909F908F900895E95C3F
:1003B000E5CF8F929F92AF92BF92CF92DF92EF9252
:1003C000FF921F93CF93DF936B017C01DC01CB0184
:1003D000009720E8A2072FE7B20779F482E191E0C5
:1003E0000E94920188E199E00FB6F894A895809355
:1003F00060000FBE90936000FFCF009720E8A20737
:100400002FEFB20779F486E291E00E94920188E131
:1004100099E00FB6F894A895809360000FBE909372
:100420006000FFCF0097A105B10579F48AE391E060
:100430000E94920188E199E00FB6F894A895809304
:1004400060000FBE90936000FFCF0097A105B048F9
:1004500079F48EE491E00E94920188E199E00FB670
:10046000F894A895809360000FBE90936000FFCF32
:1004700020E030E0A901C7010E94C4081BE287FF09
:1004800005C0F7FAF094F7F8F0941DE2D0E0C0E070
:1004900020E030E040E85FE3C701B6010E94600B56
:1004A00087FD0CC020E030E040E251E4C701B60116
:1004B0000E94BF0A6B017C012196EACF20E030E068
:1004C00040E85FE3C701B6010E94C408181664F053
:1004D00020E030E040E251E4C701B6010E942A0961
:1004E0006B017C012197EACF1D3221F4F7FAF094D9
:1004F000F7F8F094A7019601C701B6010E94650BB9
:10050000882399F182E691E00E9485012097E9F025
:1005100065E48AEC91E00E9409016E01DD0FEE08AE
:10052000FF084AE0C701B601F7FE0DC06DE28AEC94
:1005300091E00E94090166277727CB016C197D099C
:100540008E099F094AE00E9499016DE08AEC91E0D2
:10055000DF91CF911F91FF90EF90DF90CF90BF90F0
:10056000AF909F908F900C94090146015701E89439
:10057000B7F82FEF3FEF4FE75FE7C501B4010E94E7
:10058000650B81110DC02FEF3FEF4FE75FE7C5010E
:10059000B4010E94C40818161CF486E691E0B4CF9A
:1005A0002FEF3FEF4FE75FE4C701B6010E94600BFA
:1005B00018161CF48AE691E0A7CF2FEF3FEF4FE724
:1005C0005FECC701B6010E94C40887FDF3CF20E0AD
:1005D00030E0A901C701B6010E94C40887FF09C025
:1005E0006DE28AEC91E00E940901F7FAF094F7F8C5
:1005F000F0942BEA35EC47EA56E3C701B6010E94B6
:10060000530A6B017C010E94310B4B015C010E947B
:10061000C9089B01AC01C701B6010E94520A6B01D7
:100620007C014AE0C501B4010E9499016EE28AECA6
:1006300091E00E94090116E0115009F467CF20E013
:1006400030E040E251E4C701B6010E942A094B01A3
:100650005C010E94310B6B01F12CE12C4AE0C701D7
:10066000B6010E949901C701B6010E94C9089B0109
:10067000AC01C501B4010E94520A6B017C01DCCFC0
:10068000EF92FF920F931F93CF93DF938C018AEC2D
:1006900091E00E9456017801D0E0C0E02FB7F894B5
:1006A0008091C6019091C701A091C801B091C90184
:1006B0002FBF8093D2019093D301A093D401B09324
:1006C000D5018AEC91E00E94B90097FF38C02FB79E
:1006D000F8948091C6019091C701A091C801B09192
:1006E000C9012FBF4091D2015091D3016091D40133
:1006F0007091D501841B950BA60BB70B4091CE01D1
:100700005091CF016091D0017091D101841795076C
:10071000A607B707B0F2C00FD11F1882C8010E9408
:10072000920169E08AEC91E00E940901C801DF9121
:10073000CF911F910F91FF90EF900C944F078D3048
:10074000910549F3F70181937F012196C431D105C9
:1007500009F0A4CFE0CF1F920F920FB60F92112491
:100760002F933F938F939F93AF93BF938091C60135
:100770009091C701A091C801B091C9013091C50104
:1007800023E0230F2D3758F50196A11DB11D2093AD
:10079000C5018093C6019093C701A093C801B0938F
:1007A000C9018091C1019091C201A091C301B09192
:1007B000C4010196A11DB11D8093C1019093C20196
:1007C000A093C301B093C401BF91AF919F918F914A
:1007D0003F912F910F900FBE0F901F90189526E814
:1007E000230F0296A11DB11DD2CF1F920F920FB6FB
:1007F0000F9211242F933F934F935F936F937F93A7
:100800008F939F93AF93BF93EF93FF938AEC91E005
:100810000E94E700FF91EF91BF91AF919F918F915F
:100820007F916F915F914F913F912F910F900FBEEC
:100830000F901F9018951F920F920FB60F921124D0
:100840002F938F939F93EF93FF93E091DA01F091B1
:10085000DB018081E091E001F091E10182FD1BC0AC
:1008600090818091E3018F5F8F732091E401821763
:1008700041F0E091E301F0E0E653FE4F958F809365
:10088000E301FF91EF919F918F912F910F900FBEF8
:100890000F901F9018958081F4CF1F920F920FB682
:1008A0000F9211242F933F934F935F936F937F93F6
:1008B0008F939F93AF93BF93EF93FF9335993FC06F
:1008C0002FE788E391E0215080409040E1F700C09D
:1008D0000000359934C02FE78CEF9AE0215080401A
:1008E0009040E1F700C00000359B15C08CEF93E00D
:1008F0000E94EB09682F6D7F8CEF93E00E94F30953
:1009000088E199E00FB6F894A895809360000FBE37
:1009100090936000FFCF299A289A2FEF84E39CE000
:10092000215080409040E1F700C000003599E8CFA9
:10093000789487E48093BE010E947601E1CFFF9115
:10094000EF91BF91AF919F918F917F916F915F9147
:100950004F913F912F910F900FBE0F901F901895C0
:100960001F920F920FB60F9211242F933F934F9324
:100970008F939F931C9983C080916B008F7E80938F
:100980006B008091BD01813009F047C016BC17BCD7
:1009900082E085BD8091BF019091C00197FD0196D5
:1009A0009595879587BDA99BFECF8FEF85BB2C9A28
:1009B00087B59091BF01890F87BDA99BFECF8FEFAF
:1009C00085BB249A87B59091BF01890F87BDA99BEC
:1009D000FECF8FEF85BB27E030E04FEF8091BE0167
:1009E000082E000C990B022E02C0959587950A944B
:1009F000E2F780FF4EC02C9A87B59091BF01890F16
:100A000087BDA99BFECF45BB2150310938F72498FB
:100A10002C9881E08093BC0115BC8091BD0182308F
:100A200071F516BC17BC85BD8091BF019091C001C6
:100A300097FD01969595879587BDA99BFECF8FEF72
:100A400085BB88E090E04FEF27B53091BF01230FC1
:100A500027BDA99BFECF45BB2091BB01220F330BC5
:100A60002093BB011C9B05C02091BB0121602093FA
:100A7000BB01019749F715BC81E08093BA019F91B2
:100A80008F914F913F912F910F900FBE0F901F901C
:100A900018952C98B1CFEAECF1E01382128288EE1F
:100AA00093E0A0E0B0E084839583A683B78384E0DD
:100AB00091E09183808385EC90E09587848784EC36
:100AC00090E09787868780EC90E0918B808B81EC1B
:100AD00090E0938B828B82EC90E0958B848B86ECFC
:100AE00090E0978B868B118E128E138E148E089544
:100AF000CF93DF93CDB7DEB769970FB6F894DEBF1B
:100B00000FBECDBFA89584B7877F84BF809160005A
:100B10008861809360001092600080917C00806406
:100B200080937C0085B78F7E85BF14B817B81AB83C
:100B30008FEF85B988B98BB98FEF93E00E94EB09ED
:100B4000182F80EF810F803E40F48EEF93E00E94DB
:100B5000EB09181302C01093660086EF93E00E9421
:100B6000EB09182F8F3C8CF082337CF487EF93E0F5
:100B70000E94EB09181309C0812F110F990B88539C
:100B80009F4F9093C0018093BF0180916800826065
:100B90008093680080916C00806280936C008091EB
:100BA000680081608093680080916B008061809311
:100BB0006B002C9884B1836084B929982898789424
:100BC000E091DA01F091DB0182E08083E091D601CF
:100BD000F091D7011082E091D801F091D90180E124
:100BE00080831092E201E091DE01F091DF0186E066
:100BF0008083E091DC01F091DD0180818061808360
:100C0000E091DC01F091DD01808188608083E091DA
:100C1000DC01F091DD01808180688083E091DC015E
:100C2000F091DD0180818F7D80838EE691E00E94CE
:100C30009201CE0101960E94400320E030E040E89E
:100C40005FE30E94520A6A8B7B8B8C8B9D8B86E4C0
:100C50008093BE010E94760101E010E060E070E048
:100C600080E89FE32A893B894C895D890E942A0993
:100C70002B013C01B801012E000C880B990B0E943E
:100C8000CB084B015C01AC019B01C301B2010E9486
:100C9000BF0A362E272E8D87998B0130110509F456
:100CA0004DC0262F372F00FF40C0AC016D2D7E2D8B
:100CB0008F2D9C2D0E94530AD62EE72EF82EC92E7A
:100CC0002E893F89488D598D0E94520AF62FE72FB1
:100CD000DC012D2D3E2D4F2D5C2D6F2F7E2FCD0154
:100CE0000E94BF0A2B013C012DEB37E346E855EB90
:100CF0000E94600B181654F42DEB37E346E855E3D9
:100D0000C301B2010E94C40887FD20C0232D322DEB
:100D10004D855989C501B4010E942A090F5F1F4FF3
:100D2000DE8AEF8AF88EC98E9DCF4D8559896D2D4B
:100D30007E2D8F2D9C2D0E94520ABECFF101AD85D4
:100D4000B989D62EE72EFA2ECB2EC3CF8BE991E0B0
:100D50000E9492016D2D7E2D8F2D9C2D0E94D90118
:100D60008CEA91E00E949201CE0101960E9440031C
:100D70009B01AC016D2D7E2D8F2D9C2D0E942A098B
:100D80006D877E878F87988B412C512C320143943D
:100D9000C12CD12C90E8E92E9FE3F92EB12CA12C87
:100DA00020E8922E3FE3832E2D853E854F8558897E
:100DB000C701B6010E942A096B017C01C301B2017F
:100DC0000E94CB089B01AC01C701B6010E94BF0A7B
:100DD0006B017C018FEF481A580A680A780AA7014C
:100DE00096016B2D7A2D892D982D0E94530A162F6E
:100DF000072F382E292E2B2D3A2D492D582D0E94A4
:100E0000520A212F302F432D522D0E94BF0A4B0131
:100E10005C0125E93FEB46ED53EB0E94600B181691
:100E20000CF03AC025E93FEB46ED53E3C501B401B0
:100E30000E94C40887FF30C0809168008D7F809336
:100E4000680084E48093BE010E9476011093BE0185
:100E50000E9476010093BE010E9476013092BE018D
:100E60000E9476012092BE010E9476018091680066
:100E7000826080936800612F702F832D922D0E94D5
:100E8000D90188E199E00FB6F894A89580936000A5
:100E90000FBE90936000FFCF5801410185CF6627B8
:100EA00077270C945307B0E0A0E0E9E5F7E00C9455
:100EB000120A5C017B016115710519F0DB018D934C
:100EC0009C9385010F5F1F4FF501D0818D2F90E01E
:100ED0000E94A3086C01892BB9F5DD32B9F50F5FCB
:100EE0001F4FD5011196DC91C1E05801F1E0AF1A16
:100EF000B10843E050E060E770E0C5010E94AC0833
:100F0000892B69F5680182E0C80ED11C45E050E0EC
:100F10006BE670E0C6010E94AC08892B21F46801E1
:100F200097E0C90ED11CE114F10419F0D701CD925C
:100F3000DC9260E070E080E89FEFC111FFC060E0EC
:100F400070E080E89FE7FAC05801BBCFDB3229F49C
:100F500085010E5F1F4FF501D181C0E0C6CF43E090
:100F600050E068E670E0C5010E94AC08892BE9F00A
:100F7000F80110E000E020E030E0A9015F01B0EDF1
:100F80008B2E8D0E89E08815C8F19C2E689491F8FF
:100F90008C2F8870C2FF16C0811102C00F5F1F4FD7
:100FA0003196D501DC91C92DE9CFE114F10429F086
:100FB0000E5F1F4FF7011183008360E070E080EC4B
:100FC0009FE7BCC0882311F001501109A5E0B0E0F3
:100FD0000E94010A9B01AC01220F331F441F551FC1
:100FE000280D311D411D511D283999E9390749073F
:100FF00099E15907A8F2C6609C2ED2CFAEEF8A12B3
:1010000006C0C3FD3CC09C2E689493F8C9CFDF7D19
:10101000D534A9F580818D3239F4C061DF01129693
:10102000818162E070E006C0DF018B32C1F311966E
:1010300061E070E080535D01A61AB70A8A30F8F4C7
:10104000E0E8CE16ECE0DE065CF4B601660F771F32
:10105000660F771FC60ED71ECC0CDD1CC80ED11C28
:101060005D01FFEFAF1ABF0A8C9180538A30A8F15F
:10107000C4FF03C0D194C194D1080C0D1D1DC1FF44
:1010800009C0E114F10431F081E0A81AB108D701D8
:10109000AD92BC92CA01B9010E94C908C370C330A5
:1010A00009F490584B015C0120E030E0A9010E9456
:1010B000C408882309F440C0CFE9D0E017FF05C079
:1010C000119501951109C7E8D0E06E01B8E1CB1A7E
:1010D000D10880E2E82EF12C0FC0D501B1CFFE017E
:1010E00025913591459154910E191F09C501B401FF
:1010F0000E942A094B015C01D501C4010E151F0590
:1011000074F72497F594E794CC16DD06A9F78A2F97
:10111000880F8B2F881F8F3F49F020E030E0A90116
:10112000C501B4010E94C408811106C082E290E0AA
:101130009093680280936702C501B401CDB7DEB712
:10114000ECE00C942E0A91110C949709803219F05E
:1011500089508550C8F70895FB01DC01415050408B
:1011600088F08D9181341CF08B350CF4805E659194
:1011700061341CF06B350CF4605E861B611171F3F9
:10118000990B0895881BFCCF0E94060908F481E0A2
:101190000895E89409C097FB3EF49095809570956A
:1011A00061957F4F8F4F9F4F9923A9F0F92F96E9B3
:1011B000BB279395F695879577956795B795F11128
:1011C000F8CFFAF4BB0F11F460FF1BC06F5F7F4FC5
:1011D0008F4F9F4F16C0882311F096E911C07723D7
:1011E00021F09EE8872F762F05C0662371F096E8E0
:1011F000862F70E060E02AF09A95660F771F881FAF
:10120000DAF7880F9695879597F90895990F000852
:10121000550FAA0BE0E8FEEF16161706E807F907C8
:10122000C0F012161306E407F50798F0621B730B63
:10123000840B950B39F40A2661F0232B242B252BE4
:1012400021F408950A2609F4A140A6958FEF811D87
:10125000811D08950E943D090C94B1090E94A309C3
:1012600038F00E94AA0920F0952311F00C949A09F5
:101270000C94A00911240C94E5090E94C20970F392
:10128000959FC1F3950F50E0551F629FF001729F2B
:10129000BB27F00DB11D639FAA27F00DB11DAA1F3A
:1012A000649F6627B00DA11D661F829F2227B00D87
:1012B000A11D621F739FB00DA11D621F839FA00D12
:1012C000611D221F749F3327A00D611D231F849F62
:1012D000600D211D822F762F6A2F11249F575040B9
:1012E0009AF0F1F088234AF0EE0FFF1FBB1F661F34
:1012F000771F881F91505040A9F79E3F510580F0FD
:101300000C949A090C94E5095F3FE4F3983ED4F3FA
:10131000869577956795B795F795E7959F5FC1F7A0
:10132000FE2B880F911D9695879597F9089599271B
:101330008827089597F99F6780E870E060E0089536
:101340009FEF80EC089500240A94161617061806DD
:101350000906089500240A941216130614060506B9
:101360000895092E0394000C11F4882352F0BB0F4A
:1013700040F4BF2B11F460FF04C06F5F7F4F8F4FAD
:101380009F4F089557FD9058440F551F59F05F3FE8
:1013900071F04795880F97FB991F61F09F3F79F097
:1013A00087950895121613061406551FF2CF469519
:1013B000F1DF08C0161617061806991FF1CF86959B
:1013C0007105610508940895E894BB27662777277F
:1013D000CB0197F90895F999FECF92BD81BDF89A96
:1013E000992780B50895262FF999FECF1FBA92BD8F
:1013F00081BD20BD0FB6F894FA9AF99A0FBE0196F6
:1014000008950E94430AA59F900DB49F900DA49F3C
:10141000800D911D112408952F923F924F925F925B
:101420006F927F928F929F92AF92BF92CF92DF92F4
:10143000EF92FF920F931F93CF93DF93CDB7DEB759
:10144000CA1BDB0B0FB6F894DEBF0FBECDBF0994ED
:101450002A88398848885F846E847D848C849B8444
:10146000AA84B984C884DF80EE80FD800C811B8152
:10147000AA81B981CE0FD11D0FB6F894DEBF0FBE81
:10148000CDBFED010895A29FB001B39FC001A39FFE
:10149000700D811D1124911DB29F700D811D1124AD
:1014A000911D08955058BB27AA270E946A0A0C94E0
:1014B000B1090E94A30938F00E94AA0920F039F46A
:1014C0009F3F19F426F40C94A0090EF4E095E7FB75
:1014D0000C949A09E92F0E94C20958F3BA176207BF
:1014E00073078407950720F079F4A6F50C94E409B6
:1014F0000EF4E0950B2EBA2FA02D0B01B90190012F
:101500000C01CA01A0011124FF27591B99F0593F72
:1015100050F4503E68F11A16F040A22F232F342FBA
:101520004427585FF3CF469537952795A795F04008
:101530005395C9F77EF41F16BA0B620B730B840B1D
:10154000BAF09150A1F0FF0FBB1F661F771F881FD5
:10155000C2F70EC0BA0F621F731F841F48F487952D
:1015600077956795B795F7959E3F08F0B0CF93951F
:10157000880F08F09927EE0F9795879508950E9498
:10158000D30A0C94B1090E94AA0958F00E94A30939
:1015900040F029F45F3F29F00C949A0951110C9402
:1015A000E5090C94A0090E94C20968F39923B1F3DC
:1015B000552391F3951B550BBB27AA276217730779
:1015C000840738F09F5F5F4F220F331F441FAA1F0D
:1015D000A9F335D00E2E3AF0E0E832D091505040C9
:1015E000E695001CCAF72BD0FE2F29D0660F771F77
:1015F000881FBB1F261737074807AB07B0E809F05D
:10160000BB0B802DBF01FF2793585F4F3AF09E3FE1
:10161000510578F00C949A090C94E5095F3FE4F3C6
:10162000983ED4F3869577956795B795F7959F5F24
:10163000C9F7880F911D9695879597F90895E1E070
:10164000660F771F881FBB1F621773078407BA07CF
:1016500020F0621B730B840BBA0BEE1F88F7E0952A
:1016600008950E94CA0988F09F5798F0B92F9927CA
:10167000B751B0F0E1F0660F771F881F991F1AF07D
:10168000BA95C9F714C0B13091F00E94E409B1E0F5
:1016900008950C94E409672F782F8827B85F39F0F4
:1016A000B93FCCF3869577956795B395D9F73EF416
:1016B00090958095709561957F4F8F4F9F4F0895BE
:1016C0000E94060908F48FEF08950E940609880B0E
:1016D000990B0895A1E21A2EAA1BBB1BFD010DC098
:1016E000AA1FBB1FEE1FFF1FA217B307E407F507D2
:1016F00020F0A21BB30BE40BF50B661F771F881FAE
:10170000991F1A9469F760957095809590959B0143
:10171000AC01BD01CF010895EE0FFF1F0590F491BC
:10172000E02D0994F894FFCF0000000009017D002E
:10173000AA005601DB00B900CD002B7665204E755E
:101740006D20746F6F206C617267650D0A002D76D5
:1017500065204E756D20746F6F206C617267650D2A
:101760000A002B7665204E756D20746F6F20736DA7
:10177000616C6C0D0A002D7665204E756D20746FBE
:101780006F20736D616C6C0D0A006E616E00696E86
:1017900066006F7666000D0A506F77657220667579
:1017A0006E6374696F6E3A20456E746572206E7553
:1017B0006D626572203120746F20312E39393939CC
:1017C0000D0A004E61747572616C206C6F67206940
:1017D00073202000456E74657220706F77657220EB
:0217E0002000E7
:107E0000112484B714BE81FFF0D085E080938100F7
:107E100082E08093C00088E18093C10086E0809377
:107E2000C20080E18093C4008EE0C9D0259A86E02C
:107E300020E33CEF91E0309385002093840096BBD3
:107E4000B09BFECF1D9AA8958150A9F7CC24DD24C4
:107E500088248394B5E0AB2EA1E19A2EF3E0BF2EE7
:107E6000A2D0813461F49FD0082FAFD0023811F036
:107E7000013811F484E001C083E08DD089C08234E0
:107E800011F484E103C0853419F485E0A6D080C0E4
:107E9000853579F488D0E82EFF2485D0082F10E0AE
:107EA000102F00270E291F29000F111F8ED06801E7
:107EB0006FC0863521F484E090D080E0DECF843638
:107EC00009F040C070D06FD0082F6DD080E0C81688
:107ED00080E7D80618F4F601B7BEE895C0E0D1E017
:107EE00062D089930C17E1F7F0E0CF16F0E7DF06D8
:107EF00018F0F601B7BEE89568D007B600FCFDCFD4
:107F0000A601A0E0B1E02C9130E011968C91119780
:107F100090E0982F8827822B932B1296FA010C0160
:107F200087BEE89511244E5F5F4FF1E0A038BF0790
:107F300051F7F601A7BEE89507B600FCFDCF97BE46
:107F4000E89526C08437B1F42ED02DD0F82E2BD052
:107F50003CD0F601EF2C8F010F5F1F4F84911BD097
:107F6000EA94F801C1F70894C11CD11CFA94CF0C13
:107F7000D11C0EC0853739F428D08EE10CD085E9AC
:107F80000AD08FE07ACF813511F488E018D01DD067
:107F900080E101D065CF982F8091C00085FFFCCF94
:107FA0009093C60008958091C00087FFFCCF809118
:107FB000C00084FD01C0A8958091C6000895E0E648
:107FC000F0E098E1908380830895EDDF803219F02E
:107FD00088E0F5DFFFCF84E1DECF1F93182FE3DFCA
:107FE0001150E9F7F2DF1F91089580E0E8DFEE27F6
:047FF000FF270994CA
:027FFE00040479
:00000001FF
