:020000040000FA
:100000000C9435000C945D000C945D000C9424035A
:100010000C9464020C945D000C945D000C943D0201
:100020000C945D000C945D000C945D000C945D00DC
:100030000C945D000C945D000C945D000C945D00CC
:100040000C945D000C945D000C940B020C94E50183
:100050000C945D000C945D000C945D000C945D00AC
:100060000C945D000C945D00BF0311241FBECFEF04
:10007000D8E0DEBFCDBF11E0A0E0B1E0E0E1FCE000
:1000800002C005900D92A43EB107D9F722E0A4EE7C
:10009000B1E001C01D92A339B207E1F710E0C5E35A
:1000A000D0E004C02197FE010E940006C433D107AE
:1000B000C9F70E94EC030C9406060C940000AF9262
:1000C000BF92CF92DF92EF92FF920F931F93CF9345
:1000D000DF936C017B018B01040F151FEB015E01A7
:1000E000AE18BF08C017D10759F06991D601ED913C
:1000F000FC910190F081E02DC6010995892B79F7DB
:10010000C501DF91CF911F910F91FF90EF90DF908C
:10011000CF90BF90AF900895FC01538D448D252F53
:1001200030E0842F90E0821B930B541710F0CF9691
:10013000089501970895FC01918D828D981761F0C3
:10014000A28DAE0FBF2FB11D5D968C91928D9F5FDA
:100150009F73928F90E008958FEF9FEF0895FC01B9
:10016000918D828D981731F0828DE80FF11D858D6C
:1001700090E008958FEF9FEF0895FC01918D228DFF
:10018000892F90E0805C9F4F821B91098F73992784
:100190000895FC01A48DA80FB92FB11DA35ABF4F1C
:1001A0002C91848D90E001968F739927848FA68976
:1001B000B7892C93A089B1898C91837080648C93CA
:1001C000938D848D981306C00288F389E02D808179
:1001D0008F7D80830895EF92FF920F931F93CF93AB
:1001E000DF93EC0181E0888F9B8D8C8D98131AC072
:1001F000E889F989808185FF15C09FB7F894EE8959
:10020000FF896083E889F9898081837080648083B5
:100210009FBF81E090E0DF91CF911F910F91FF9000
:10022000EF900895F62E0B8D10E00F5F1F4F0F73A8
:100230001127E02E8C8D8E110CC00FB607FCFACF63
:10024000E889F989808185FFF5CFCE010E94C90038
:10025000F1CFEB8DEC0FFD2FF11DE35AFF4FF08234
:100260009FB7F8940B8FEA89FB8980818062CFCF9A
:10027000CF93DF93EC01888D8823B9F0AA89BB89DD
:10028000E889F9898C9185FD03C0808186FD0DC0C8
:100290000FB607FCF7CF8C9185FFF2CF808185FFE9
:1002A000EDCFCE010E94C900E9CFDF91CF91089533
:1002B0008091ED01893324F48F5F8093ED010895DF
:1002C00080E38093ED019091EE01993324F49F5FD8
:1002D0009093EE0108958093EE019091EF01953394
:1002E00024F49F5F9093EF0108958093EF01909124
:1002F000F001993324F49F5F9093F0010895809367
:10030000F0019091F101953324F49F5F9093F101F6
:1003100008958093F1019091F301903319F0913396
:1003200091F008958091F201982F9F77993324F4EA
:100330008F5F8093F201089580EB8093F20181E357
:100340008093F30108959091F201913324F49F5F1B
:100350009093F20108958093F201F2CF1092E6019A
:1003600081E08093E70180916B00806180936B0056
:100370008091E6018823E1F30895AC0148535F4F73
:10038000FC012191CF01222349F03091C00035FFBB
:10039000FCCF2093C6008417950791F7089530E0AD
:1003A00020E04091C00047FD0EC02F5F3F4FA89551
:1003B00021344FE134071CF0019730E020E0009732
:1003C00081F780E0089581E008951F920F920FB6A3
:1003D0000F9211242F933F934F935F936F937F93CB
:1003E0008F939F93AF93BF93EF93FF9386EF91E02B
:1003F0000E94C900FF91EF91BF91AF919F918F91A2
:100400007F916F915F914F913F912F910F900FBE10
:100410000F901F9018951F920F920FB60F921124F4
:100420002F938F939F93EF93FF93E0910602F091A8
:1004300007028081E0910C02F0910D0282FD1BC049
:10044000908180910F028F5F8F732091100282172D
:1004500041F0E0910F02F0E0EA50FE4F958F80935B
:100460000F02FF91EF919F918F912F910F900FBEEF
:100470000F901F9018958081F4CF1F920F920FB6A6
:100480000F9211248F938091B3008A598093B30007
:100490008091F5018F5F8093F5018091F4018F5F6A
:1004A0008093F4018091F401893041F48FEF8093BF
:1004B000F4018091B3008C5F8093B3008F910F9013
:1004C0000FBE0F901F9018951F920F920FB60F92AC
:1004D00011242F933F934F935F936F937F938F9349
:1004E0009F93AF93BF93EF93FF9335999CC02FE7F2
:1004F00088E391E0215080409040E1F700C0000087
:10050000A895359990C02FE782E392E02150804072
:100510009040E1F700C00000A8952FE782E392E049
:10052000215080409040E1F700C00000A8952FE7DF
:1005300082E392E0215080409040E1F700C000004B
:10054000A8952FE782E392E0215080409040E1F7A8
:1005500000C00000A8952FE782E392E02150804080
:100560009040E1F700C00000A895359B1FC08CEFBC
:1005700093E00E94EA05682F6B7F8CEF93E00E9466
:10058000F2058CEF93E00E94EA05682F6F7B8CEFF9
:1005900093E00E94F20588E199E00FB6F894A895DF
:1005A000809360000FBE90936000FFCF299A289A35
:1005B0002FE782E392E0215080409040E1F700C0B5
:1005C0000000A8952FE782E392E021508040904000
:1005D000E1F700C00000A8952FE782E392E02150E8
:1005E00080409040E1F700C00000A8952FE782E32B
:1005F00092E0215080409040E1F700C00000A895B3
:100600002FE782E392E0215080409040E1F700C064
:100610000000A8953599B5CF789487E48093E801D8
:100620000E94AE01AECFFF91EF91BF91AF919F912C
:100630008F917F916F915F914F913F912F910F908B
:100640000FBE0F901F9018951F920F920FB60F922A
:1006500011242F933F934F938F939F931C9983C0A3
:1006600080916B008F7E80936B008091E7018130D9
:1006700009F047C016BC17BC82E085BD8091EA0135
:100680009091EB0197FD01969595879587BDA99B64
:10069000FECF8FEF85BB2C9A87B59091EA01890F29
:1006A00087BDA99BFECF8FEF85BB249A87B590911C
:1006B000EA01890F87BDA99BFECF8FEF85BB27E09D
:1006C00030E04FEF8091E801082E000C990B022ECC
:1006D00002C0959587950A94E2F780FF4EC02C9A48
:1006E00087B59091EA01890F87BDA99BFECF45BBD5
:1006F0002150310938F724982C9881E08093E60145
:1007000015BC8091E701823071F516BC17BC85BD20
:100710008091EA019091EB0197FD0196959587955F
:1007200087BDA99BFECF8FEF85BB88E090E04FEFA0
:1007300027B53091EA01230F27BDA99BFECF45BB0A
:100740002091E501220F330B2093E5011C9B05C08E
:100750002091E50121602093E501019749F715BC3F
:1007600081E08093E4019F918F914F913F912F9170
:100770000F900FBE0F901F9018952C98B1CFE6EFF9
:10078000F1E01382128288EE93E0A0E0B0E084836F
:100790009583A683B78384E091E09183808385EC81
:1007A00090E09587848784EC90E09787868780EC3B
:1007B00090E0918B808B81EC90E0938B828B82EC2C
:1007C00090E0958B848B86EC90E0978B868B118ED6
:1007D000128E138E148E0895A89584B7877F84BFD8
:1007E0008091600088618093600010926000809129
:1007F0007C00806480937C0085B78F7E85BF14B8B1
:1008000017B81AB88FEF85B988B98BB98FEF93E015
:100810000E94EA05C82F80EF8C0F803E40F48EEFD7
:1008200093E00E94EA05C81302C0C093660086EFF9
:1008300093E00E94EA05C82F8F3C8CF082337CF451
:1008400087EF93E00E94EA05C81309C08C2FCC0FF4
:10085000990B88539F4F9093EB018093EA0180910D
:10086000680082608093680080916C008062809351
:100870006C008091680081608093680080916B00BB
:10088000806180936B002C9884B1836084B929982F
:10089000289878941092C1001092C50080E180934E
:1008A000C400D2E0D093C00088E18093C100C6E0CC
:1008B000C093C2008FE39CE90197F1F700C00000EC
:1008C0008CEF93E00E94EA05873F09F43DC040F4B5
:1008D0008D3BB9F18D3DD1F18D3A39F484E02EC0D4
:1008E0008E3F59F1C0F58D3F99F16FEF8CEF93E09A
:1008F0000E94F205A8958091600088618093600055
:100900008CE4809360008091E901873041F444E1F8
:1009100050E062E171E086EF91E00E945F0080911B
:10092000E9018630D1F44AE050E067E271E086EFF9
:1009300091E00E945F00A895FECF81E08093E901DD
:10094000D4CFD093E901D1CF83E0F8CF85E0F6CFC3
:10095000C093E901CACF87E0F1CF80E28093B6006F
:100960001092B2001092B0008091B1008360809329
:10097000B1001092B40082E391E00E94BD0189E6CB
:1009800091E00E94BD0188E290E00E94CF0188239F
:10099000B1F3C091C600C23711F0C23581F78DECBA
:1009A00091E00E94BD011092EC01C23509F0C8C06F
:1009B0001092ED011092EE011092EF011092F001F1
:1009C0001092F1011092F2011092F3018FE691E082
:1009D0000E94BD0182E390E00E94CF01811103C01B
:1009E00080ED91E0F5CF8091C6008093F3018AE419
:1009F0008093E8010E94AE01A8950CEE11E0D0E0D2
:100A0000C0E0F80181918F01C430D10531F0C630CA
:100A1000D10519F0C230D10509F480688093E8014E
:100A20000E94AE01A8952196C830D10551F72CEE51
:100A3000E22E21E0F22E10E000E030E3B32E4AE493
:100A4000A42E85E090E00E94CF018823D1F380910D
:100A5000C60004301105A9F58093EE01B092ED01B6
:100A6000B092EC01A092E8010E94AE01A8959CEE24
:100A7000C92E91E0D92ED0E0C0E0F60181916F013E
:100A8000C430D10531F0C630D10519F0C230D105DE
:100A900009F480688093E8010E94AE01A895219630
:100AA000C830D10551F70F5F1F4FF1E0EF1AF10881
:100AB0000530110531F68091C00087FD05C0A8956D
:100AC000FACFF7018683CECF8091C60083E680936C
:100AD000E8010E94AE012FEF80E792E021508040B4
:100AE0009040E1F700C000008AE48093E8010E9492
:100AF000AE01A8950CEE11E0D0E0C0E0F8018191C4
:100B00008F01C430D10531F0C630D10519F0C230A3
:100B1000D10509F480688093E8010E94AE01A89590
:100B20002196C830D10551F71092F50185ED91E07D
:100B30000E94BD018091C00087FD12C0A895FACF28
:100B400080E38093ED018093EE018093EF01809329
:100B5000F0018093F1018093F2018093F301C4CFFF
:100B60008091C6001092F4011092B20086E6809344
:100B7000B300809170008260809370008AE4F82E48
:100B80008091F5018230E4F31092F5010E94580142
:100B90000E945801F092E8010E94AE01A8950CEE67
:100BA00011E0D0E0C0E0F80181918F01C430D1059F
:100BB00031F0C630D10519F0C230D10509F4806892
:100BC0008093E8010E94AE01A8952196C830D10516
:100BD00051F7D6CFF999FECF92BD81BDF89A9927EA
:100BE00080B50895262FF999FECF1FBA92BD81BD19
:100BF00020BD0FB6F894FA9AF99A0FBE019608959F
:100C0000EE0FFF1F0590F491E02D0994F894FFCFAB
:100C100000000000EB005F008C003801BD009B006D
:100C2000AF000D0A50726F6772616D207265737448
:100C300061727465642E000D0A5744546F75740D0B
:100C40000A0050726573732027522720746F206545
:100C50006E7465722074696D65206F72202772272B
:100C600020746F2073746172742061742074696DD4
:100C700065207A65726F20200072202020200045B8
:100C80006E7465722073746172742074696D65206E
:100C9000486F7572732C204D696E75746573206191
:100CA0006E64205365636F6E64730D0A28313220C1
:100CB000686F757220636C6F636B2077697468204E
:100CC0006E6F20737061636573292E205465726D99
:100CD000696E61746520776974682063720D0A001B
:100CE000543F202000414B20746F20737461727454
:040CF0000D0A0000E9
:107E0000112484B714BE81FFF0D085E080938100F7
:107E100082E08093C00088E18093C10086E0809377
:107E2000C20080E18093C4008EE0C9D0259A86E02C
:107E300020E33CEF91E0309385002093840096BBD3
:107E4000B09BFECF1D9AA8958150A9F7CC24DD24C4
:107E500088248394B5E0AB2EA1E19A2EF3E0BF2EE7
:107E6000A2D0813461F49FD0082FAFD0023811F036
:107E7000013811F484E001C083E08DD089C08234E0
:107E800011F484E103C0853419F485E0A6D080C0E4
:107E9000853579F488D0E82EFF2485D0082F10E0AE
:107EA000102F00270E291F29000F111F8ED06801E7
:107EB0006FC0863521F484E090D080E0DECF843638
:107EC00009F040C070D06FD0082F6DD080E0C81688
:107ED00080E7D80618F4F601B7BEE895C0E0D1E017
:107EE00062D089930C17E1F7F0E0CF16F0E7DF06D8
:107EF00018F0F601B7BEE89568D007B600FCFDCFD4
:107F0000A601A0E0B1E02C9130E011968C91119780
:107F100090E0982F8827822B932B1296FA010C0160
:107F200087BEE89511244E5F5F4FF1E0A038BF0790
:107F300051F7F601A7BEE89507B600FCFDCF97BE46
:107F4000E89526C08437B1F42ED02DD0F82E2BD052
:107F50003CD0F601EF2C8F010F5F1F4F84911BD097
:107F6000EA94F801C1F70894C11CD11CFA94CF0C13
:107F7000D11C0EC0853739F428D08EE10CD085E9AC
:107F80000AD08FE07ACF813511F488E018D01DD067
:107F900080E101D065CF982F8091C00085FFFCCF94
:107FA0009093C60008958091C00087FFFCCF809118
:107FB000C00084FD01C0A8958091C6000895E0E648
:107FC000F0E098E1908380830895EDDF803219F02E
:107FD00088E0F5DFFFCF84E1DECF1F93182FE3DFCA
:107FE0001150E9F7F2DF1F91089580E0E8DFEE27F6
:047FF000FF270994CA
:027FFE00040479
:00000001FF
