:100000000C9434000C9451000C9451000C94AA01EF
:100010000C9447010C9451000C9451000C94510025
:100020000C9451000C9451000C9451000C9451000C
:100030000C9451000C9451000C9451000C945100FC
:100040000C9451000C9451000C9451000C945100EC
:100050000C9451000C9451000C9451000C945100DC
:100060000C9451000C94510011241FBECFEFD8E026
:10007000DEBFCDBF11E0A0E0B1E0EAEEF6E002C0E5
:1000800005900D92A432B107D9F721E0A4E2B1E0C6
:1000900001C01D92AB32B207E1F70E9445020C94F9
:1000A00073030C940000FC018091C00087FFFCCF1B
:1000B0008091C6008D3011F08193F6CF10820895A3
:1000C0001092260181E08093270180916B0080616E
:1000D00080936B00809126018823E1F30895AC01A1
:1000E00048535F4FFC012191CF01222349F0309109
:1000F000C00035FFFCCF2093C6008417950791F709
:10010000089530E020E042EB57E04093B200509376
:10011000B100B89BFECFB89A1092B1002F5F3F4F4D
:100120008217930791F708952F923F924F925F9213
:100130006F927F928F929F92AF92BF92CF92DF92F7
:10014000EF92FF920F931F93CF93DF936B017C018C
:1001500029013A0183E680932A010E94600080EB26
:10016000F801878380E091E00E946F00C7E0D0E053
:100170001801F8E02F0E311C4D9B76C0AAE0B0E0CC
:10018000A70196010E9459036B017C01DC01CB01A0
:10019000812C912C5401181619061A061B0654F4CA
:1001A00084199509A609B7092FEF821A920AA20AA3
:1001B000B20AF1CF892B8A2B8B2B29F081E0881A88
:1001C0009108A108B108A701960160E070E0CB0199
:1001D00012161306140615064CF42419350946099F
:1001E00057096F5F7F4F8F4F9F4FF2CF232B242BE9
:1001F000252B21F06150710981099109A301920118
:100200000E944903C61AD70AE80AF90AE0E38E0EEB
:100210008091C00085FFFCCF8092C6002097F9F046
:10022000F801EC0FFD1F319780822197F1E4F093E4
:100230002A010E9460005801F50181915F018093BD
:100240002A010E9460002A143B04B1F7F1E0F09308
:100250002A010E9460008CE090E00E94810086E00C
:1002600090E00E94810088CFDF91CF911F910F9184
:10027000FF90EF90DF90CF90BF90AF909F908F90C6
:100280007F906F905F904F903F902F9008951F92B6
:100290000F920FB60F9211242F933F934F935F93BA
:1002A0006F937F938F939F93AF93BF93EF93FF933E
:1002B00035993FC02FE788E391E02150804090407E
:1002C000E1F700C00000359934C02FE78CEF9AE0C9
:1002D000215080409040E1F700C00000359B15C0E0
:1002E0008CEF93E00E943303682F6D7F8CEF93E0D7
:1002F0000E943B0388E199E00FB6F894A89580939B
:1003000060000FBE90936000FFCF299A289A2FEFCC
:1003100084E39CE0215080409040E1F700C0000061
:100320003599E8CF789487E480932A010E94600091
:10033000E1CFFF91EF91BF91AF919F918F917F910D
:100340006F915F914F913F912F910F900FBE0F9042
:100350001F9018951F920F920FB60F9211242F9392
:100360003F934F938F939F931C9983C080916B0011
:100370008F7E80936B0080912701813009F047C008
:1003800016BC17BC82E085BD80912801909129019F
:1003900097FD01969595879587BDA99BFECF8FEF19
:1003A00085BB2C9A87B590912801890F87BDA99BA1
:1003B000FECF8FEF85BB249A87B590912801890FD6
:1003C00087BDA99BFECF8FEF85BB27E030E04FEFC5
:1003D00080912A01082E000C990B022E02C09595DF
:1003E00087950A94E2F780FF4EC02C9A87B59091CA
:1003F0002801890F87BDA99BFECF45BB215031093C
:1004000038F724982C9881E08093260115BC8091C0
:100410002701823071F516BC17BC85BD809128017B
:100420009091290197FD01969595879587BDA99B88
:10043000FECF8FEF85BB88E090E04FEF27B530917E
:100440002801230F27BDA99BFECF45BB2091250185
:10045000220F330B209325011C9B05C02091250101
:10046000216020932501019749F715BC81E0809315
:1004700024019F918F914F913F912F910F900FBE2B
:100480000F901F9018952C98B1CFCF93DF93CDB7D5
:10049000DEB728970FB6F894DEBF0FBECDBFA89584
:1004A00084B7877F84BF80916000886180936000FB
:1004B0001092600080917C00806480937C0085B7FE
:1004C0008F7E85BF14B817B81AB88FEF85B988B971
:1004D0008BB98FEF93E00E943303182F80EF810FC9
:1004E000803E40F48EEF93E00E943303181302C065
:1004F0001093660086EF93E00E943303182F8F3C21
:100500008CF082337CF487EF93E00E94330318135E
:1005100009C0812F110F990B88539F4F9093290188
:1005200080932801809168008260809368008091A8
:100530006C00806280936C00809168008160809381
:10054000680080916B00806180936B002C9884B16F
:10055000836084B92998289878941092C1001092E9
:10056000C50080E18093C40082E08093C00088E1F0
:100570008093C10086E08093C20083E6782E83E0FA
:1005800091E00E946F00CE0101960E9453008E01FF
:100590000F5F1F4FF801C12CD12C7601B190BB2009
:1005A000A9F0AAE0B0E0A70196010E945903CB2C64
:1005B000BB0CDD08EE08FF08C60ED71EE81EF91EAC
:1005C00080E3C81AD108E108F108E8CF8CE091E097
:1005D0000E946F00CE0101960E945300812C912C45
:1005E0005401D801ED918D01EE23A9F0AAE0B0E00D
:1005F000A50194010E9459038E2EEE0F9908AA08B6
:10060000BB08860E971EA81EB91EB0E38B1A910870
:10061000A108B108E6CF70922A010E9460001982F9
:100620001A821B821C821D821E821F82188685E10F
:1006300091E00E946F008E010F5F1F4F8C149D048C
:10064000AE04BF045CF4A7019601C501B4010E9489
:10065000940081E291E00E946F0091CFA501940186
:10066000C701B601F4CFF999FECF92BD81BDF89ACA
:10067000992780B50895262FF999FECF1FBA92BD0C
:1006800081BD20BD0FB6F894FA9AF99A0FBE019673
:100690000895DB018F939F930E945903BF91AF91FF
:1006A000A29F800D911DA39F900DB29F900D1124CC
:1006B00008950E946403A59F900DB49F900DA49F80
:1006C000800D911D11240895A29FB001B39FC00118
:1006D000A39F700D811D1124911DB29F700D811D6E
:0A06E0001124911D0895F894FFCF36
:1006EA00302E004E756D5F313F2020004E756D5FD4
:1006FA00323F202000416E73776572203D20202012
:04070A00000D0A00D4
:00000001FF
