:100000000C9434000C9446000C9446000C94F100BF
:100010000C948E000C9446000C9446000C94460000
:100020000C9446000C9446000C9446000C94460038
:100030000C9446000C9446000C9446000C94460028
:100040000C9446000C9446000C9446000C94460018
:100050000C9446000C9446000C9446000C94460008
:100060000C9446000C94460011241FBECFEFD8E03C
:10007000DEBFCDBF21E0A0E0B1E001C01D92A730FE
:10008000B207E1F70E948C010C94E2020C9400008C
:100090009091C00095FFFCCF8093C6000895109208
:1000A000020181E08093030180916B008061809365
:1000B0006B00809102018823E1F30895CF92DF92D3
:1000C000EF92FF926B017C0183E4809304010E9414
:1000D0004F008F2DBB2787FDB0959B2FAB2F8093B3
:1000E00004010E944F00C701BB2797FDB095AB2FBD
:1000F000809304010E944F00BB27F7FCBA95AF2DF7
:100100009E2D8D2D809304010E944F00C09204010A
:10011000FF90EF90DF90CF900C944F001F920F92C2
:100120000FB60F9211242F933F934F935F936F93CA
:100130007F938F939F93AF93BF93EF93FF933599E3
:100140003FC02FE788E391E0215080409040E1F7E5
:1001500000C00000359934C02FE78CEF9AE02150A1
:1001600080409040E1F700C00000359B15C08CEF47
:1001700093E00E947102682F6D7F8CEF93E00E94E4
:10018000790288E199E00FB6F894A8958093600011
:100190000FBE90936000FFCF299A289A2FEF84E337
:1001A0009CE0215080409040E1F700C0000035996C
:1001B000E8CF789487E4809304010E944F00E1CF58
:1001C000FF91EF91BF91AF919F918F917F916F912F
:1001D0005F914F913F912F910F900FBE0F901F9005
:1001E00018951F920F920FB60F9211242F933F93E1
:1001F0004F938F939F931C9983C080916B008F7E48
:1002000080936B0080910301813009F047C016BCD8
:1002100017BC82E085BD809105019091060197FD94
:1002200001969595879587BDA99BFECF8FEF85BBDE
:100230002C9A87B590910501890F87BDA99BFECFA8
:100240008FEF85BB249A87B590910501890F87BDF3
:10025000A99BFECF8FEF85BB27E030E04FEF809169
:100260000401082E000C990B022E02C0959587956B
:100270000A94E2F780FF4EC02C9A87B59091050151
:10028000890F87BDA99BFECF45BB2150310938F7A7
:1002900024982C9881E08093020115BC8091030181
:1002A000823071F516BC17BC85BD80910501909117
:1002B000060197FD01969595879587BDA99BFECF71
:1002C0008FEF85BB88E090E04FEF27B530910501B7
:1002D000230F27BDA99BFECF45BB20910101220F13
:1002E000330B209301011C9B05C02091010121606B
:1002F00020930101019749F715BC81E0809300012B
:100300009F918F914F913F912F910F900FBE0F9022
:100310001F9018952C98B1CFCF93DF93CDB7DEB750
:100320002C970FB6F894DEBF0FBECDBFA89584B74B
:10033000877F84BF80916000886180936000109205
:10034000600080917C00806480937C0085B78F7E04
:1003500085BF14B817B81AB88FEF85B988B98BB9AB
:100360008FEF93E00E947102182F80EF810F803E83
:1003700040F48EEF93E00E947102181302C01093B4
:10038000660086EF93E00E947102182F8F3C8CF07C
:1003900082337CF487EF93E00E947102181309C046
:1003A000812F110F990B88539F4F909306018093D3
:1003B00005018091680082608093680080916C00E4
:1003C000806280936C0080916800816080936800F7
:1003D00080916B00806180936B002C9884B1836066
:1003E00084B92998289878941092C1001092C50079
:1003F00080E18093C40082E08093C00088E1809314
:10040000C10086E08093C2008FE39CE90197F1F779
:1004100000C000008FE30E944800C12CD12C76015F
:100420008091C00087FFFCCFE091C600ED30C9F09D
:10043000AAE0B0E0A70196010E94A602CE2EEE0F20
:10044000DD08EE08FF08C60ED71EE81EF91E90E371
:10045000C91AD108E108F108C701B6010E945E007F
:10046000DFCFCC0CDD1CEE1CFF1CFE0131965F01C2
:100470004F01C701B60110E000E02AE0422E512CE6
:10048000612C712C0F5F1F4FA30192010E94870204
:10049000605DF40161934F01B901CA011616170698
:1004A000180619067CF30A0D1B1DF8011082F801CD
:1004B00082918F010E944800A016B106C1F780E228
:1004C0000E944800C701B6010E945E0088E199E0E1
:1004D0000FB6F894A895809360000FBE90936000CB
:1004E000FFCFF999FECF92BD81BDF89A992780B5CB
:1004F0000895262FF999FECF1FBA92BD81BD20BD68
:100500000FB6F894FA9AF99A0FBE01960895052E3F
:1005100097FB1EF400940E949E0257FD07D00E9494
:10052000B10207FC03D04EF40C949E025095409506
:10053000309521953F4F4F4F5F4F0895909580958F
:10054000709561957F4F8F4F9F4F08950E94D30202
:10055000A59F900DB49F900DA49F800D911D112417
:100560000895A1E21A2EAA1BBB1BFD010DC0AA1FF4
:10057000BB1FEE1FFF1FA217B307E407F50720F00C
:10058000A21BB30BE40BF50B661F771F881F991F87
:100590001A9469F760957095809590959B01AC01D0
:1005A000BD01CF010895A29FB001B39FC001A39FD9
:1005B000700D811D1124911DB29F700D811D11249C
:0805C000911D0895F894FFCF8E
:00000001FF
