:100000000C9434000C9451000C9451000C94300169
:100010000C94C1000C9451000C9451000C945100AC
:100020000C9451000C9451000C9451000C9451000C
:100030000C9451000C9451000C9451000C945100FC
:100040000C9451000C9451000C9451000C945100EC
:100050000C9451000C9451000C9451000C945100DC
:100060000C9451000C94510011241FBECFEFD8E026
:10007000DEBFCDBF11E0A0E0B1E0E2E9F6E002C0F2
:1000800005900D92A830B107D9F721E0A8E0B1E0C2
:1000900001C01D92AF30B207E1F70E94CB010C9472
:1000A00047030C9400009091C00095FFFCCF809313
:1000B000C60008958F929F92AF92BF92CF92DF9227
:1000C000EF92FF920F931F93CF93DF93CDB7DEB7DD
:1000D0002C970FB6F894DEBF0FBECDBF9E012F5FE9
:1000E0003F4F7901690110E000E02AE0822E912C57
:1000F000A12CB12C0F5F1F4FA50194010E94EC02AF
:10010000605DF60161936F01B901CA011616170609
:10011000180619067CF30E0D1F1DF8011082F80158
:1001200082918F010E9453000E151F05C1F780E2D6
:100130002C960FB6F894DEBF0FBECDBFDF91CF91E6
:100140001F910F91FF90EF90DF90CF90BF90AF90F5
:100150009F908F900C9453000F931F93CF93DF9336
:10016000EC018C0108531F4F8991882329F00E94CC
:100170005300C017D107C1F7DF91CF911F910F91A5
:1001800008951F920F920FB60F9211242F933F9351
:100190004F935F936F937F938F939F93AF93BF938F
:1001A000EF93FF9335994BC02FE788E391E02150FF
:1001B00080409040E1F700C00000359940C02FE733
:1001C0008CEF9AE0215080409040E1F700C00000A1
:1001D000359B15C08CEF93E00E94D602682F6D7F8F
:1001E0008CEF93E00E94DE0288E199E00FB6F8946C
:1001F000A895809360000FBE90936000FFCF299A6E
:10020000289A2FEF84E39CE0215080409040E1F752
:1002100000C000003599E8CF789487E480930C0102
:1002200010920B0181E080930A0180916B00806144
:1002300080936B0080910B018823E1F3D5CFFF9170
:10024000EF91BF91AF919F918F917F916F915F914E
:100250004F913F912F910F900FBE0F901F901895C7
:100260001F920F920FB60F9211242F933F934F932B
:100270008F939F931C9983C080916B008F7E809396
:100280006B0080910A01813009F047C016BC17BC91
:1002900082E085BD80910D0190910E0197FD019640
:1002A0009595879587BDA99BFECF8FEF85BB2C9A2F
:1002B00087B590910D01890F87BDA99BFECF8FEF68
:1002C00085BB249A87B590910D01890F87BDA99BA5
:1002D000FECF8FEF85BB27E030E04FEF80910C0120
:1002E000082E000C990B022E02C0959587950A9452
:1002F000E2F780FF4EC02C9A87B590910D01890FCF
:1003000087BDA99BFECF45BB2150310938F7249802
:100310002C9881E080930B0115BC80910A018230FA
:1003200071F516BC17BC85BD80910D0190910E0131
:1003300097FD01969595879587BDA99BFECF8FEF79
:1003400085BB88E090E04FEF27B530910D01230F7A
:1003500027BDA99BFECF45BB20910901220F330B7E
:10036000209309011C9B05C0209109012160209365
:100370000901019749F715BC81E0809308019F911D
:100380008F914F913F912F910F900FBE0F901F9023
:1003900018952C98B1CFCF93DF93CDB7DEB72D97BB
:1003A0000FB6F894DEBF0FBECDBFA89584B7877F88
:1003B00084BF80916000886180936000109260002B
:1003C00080917C00806480937C0085B78F7E85BFA0
:1003D00014B817B81AB88FEF85B988B98BB98FEFF1
:1003E00093E00E94D602182F80EF810F803E40F4E8
:1003F0008EEF93E00E94D602181302C0109366009D
:1004000086EF93E00E94D602182F8F3C8CF0823347
:100410007CF487EF93E00E94D602181309C0812F65
:10042000110F990B88539F4F90930E0180930D01EC
:100430008091680082608093680080916C00806287
:1004400080936C0080916800816080936800809147
:100450006B00806180936B002C9884B1836084B9B9
:100460002998289878941092C1001092C50080E1D4
:100470008093C40082E08093C00088E18093C10033
:1004800086E08093C2008FE39CE90197F1F700C0FA
:10049000000080E091E00E94AC0010E000E087E006
:1004A000682E712C812C912C97E39D87312C412C47
:1004B000512CFE0131962E2F9F2F8091C00087FF77
:1004C000FCCF8091C6008D3011F08193F6CF108261
:1004D000E22FF92FC12CD12C760121902220A9F0F6
:1004E000AAE0B0E0A70196010E940B03C22C220CE7
:1004F000DD08EE08FF08C60ED71EE81EF91E80E3D1
:10050000C81AD108E108F108E8CF01301105B1F1AE
:1005100002301105D1F18FE30E945300CD863D2CAE
:1005200027010F5F1F4F0330110519F66D85732DDD
:10053000C2019301A4010E94EC027B018C01CA015B
:10054000B9010E945A0084E091E00E94AC00A1141D
:10055000B104E9F0AAE0B0E09701A8010E940B0302
:100560009301A4010E94EC027B018C0191E0A91A85
:10057000B108CA01B9010E945A00E9CF80E091E0B8
:100580000E94AC0036014701CCCF5601CACF81E0B2
:1005900091E00E94AC0088E199E00FB6F894A8952C
:1005A000809360000FBE90936000FFCFF999FECF5B
:1005B00092BD81BDF89A992780B50895262FF999A3
:1005C000FECF1FBA92BD81BD20BD0FB6F894FA9A36
:1005D000F99A0FBE01960895052E97FB1EF400941C
:1005E0000E94030357FD07D00E94160307FC03D0A7
:1005F0004EF40C94030350954095309521953F4F50
:100600004F4F5F4F089590958095709561957F4FFE
:100610008F4F9F4F08950E943803A59F900DB49F60
:10062000900DA49F800D911D11240895A1E21A2E12
:10063000AA1BBB1BFD010DC0AA1FBB1FEE1FFF1F86
:10064000A217B307E407F50720F0A21BB30BE40BD6
:10065000F50B661F771F881F991F1A9469F760951D
:100660007095809590959B01AC01BD01CF010895D7
:10067000A29FB001B39FC001A39F700D811D1124E3
:10068000911DB29F700D811D1124911D0895F89444
:02069000FFCF9A
:080692003F0D0A002E200000BC
:00000001FF
