:020000040000FA
:100000000C9434000C9451000C9451000C94660133
:100010000C9403010C9451000C9451000C94E900D1
:100020000C9451000C94DF000C9451000C9451007E
:100030000C9451000C9451000C9451000C945100FC
:100040000C9451000C9451000C9451000C945100EC
:100050000C9451000C9451000C9451000C945100DC
:100060000C9451000C94510011241FBECFEFD8E026
:10007000DEBFCDBF11E0A0E0B1E0EEE4F7E002C0EA
:1000800005900D92A23BB107D9F721E0A2EBB1E0B8
:1000900001C01D92A23CB207E1F70E9401020C943C
:1000A000A5030C9400008091BA01893324F48F5F7A
:1000B0008093BA01089580E38093BA019091BB01C7
:1000C000993324F49F5F9093BB0108958093BB0103
:1000D0009091BC01953324F49F5F9093BC010895E7
:1000E0008093BC019091BD01993324F49F5F90935C
:1000F000BD0108958093BD019091BE01953324F414
:100100009F5F9093BE0108958093BE019091C001BE
:10011000903319F0913391F008958091BF01982F99
:100120009F77993324F48F5F8093BF01089580EB0C
:100130008093BF0181E38093C00108959091BF0136
:10014000913324F49F5F9093BF0108958093BF0182
:10015000F2CF1092B40181E08093B50180916B00E1
:10016000806180936B008091B4018823E1F308954E
:10017000AC0148535F4FFC012191CF01222349F08C
:100180003091C00035FFFCCF2093C600841795073F
:1001900091F7089530E020E04091C00047FD0DC088
:1001A0002F5F3F4F21344FE134071CF0019730E0BF
:1001B00020E0009789F780E0089581E008951F927C
:1001C0000F920FB60F9211240F900FBE0F901F9039
:1001D00018951F920F920FB60F9211248F93EF93E1
:1001E000FF93E3EBF0E080818A5980838091C10125
:1001F0008F5F8093C101FF91EF918F910F900FBEA0
:100200000F901F9018951F920F920FB60F92112406
:100210002F933F934F935F936F937F938F939F930E
:10022000AF93BF93EF93FF9335993FC02FE788E3D8
:1002300091E0215080409040E1F700C000003599E6
:1002400034C02FE78CEF9AE0215080409040E1F7D6
:1002500000C00000359B15C08CEF93E00E948F0317
:10026000682F6D7F8CEF93E00E94970388E199E0FF
:100270000FB6F894A895809360000FBE909360002D
:10028000FFCF299A289A2FEF84E39CE021508040E9
:100290009040E1F700C000003599E8CF789487E4FA
:1002A0008093B6010E94A900E1CFFF91EF91BF9129
:1002B000AF919F918F917F916F915F914F913F91FE
:1002C0002F910F900FBE0F901F9018951F920F92B5
:1002D0000FB60F9211242F933F934F938F939F93B9
:1002E0001C9983C080916B008F7E80936B008091FE
:1002F000B501813009F047C016BC17BC82E085BD4E
:100300008091B7019091B80197FD019695958795D9
:1003100087BDA99BFECF8FEF85BB2C9A87B59091A7
:10032000B701890F87BDA99BFECF8FEF85BB249AAC
:1003300087B59091B701890F87BDA99BFECF8FEF3D
:1003400085BB27E030E04FEF8091B601082E000C0E
:10035000990B022E02C0959587950A94E2F780FFCB
:100360004EC02C9A87B59091B701890F87BDA99B84
:10037000FECF45BB2150310938F724982C9881E0F5
:100380008093B40115BC8091B501823071F516BC23
:1003900017BC85BD8091B7019091B80197FD01967A
:1003A0009595879587BDA99BFECF8FEF85BB88E08C
:1003B00090E04FEF27B53091B701230F27BDA99BE0
:1003C000FECF45BB2091B301220F330B2093B30125
:1003D0001C9B05C02091B30121602093B3010197BC
:1003E00049F715BC81E08093B2019F918F914F91A5
:1003F0003F912F910F900FBE0F901F9018952C9842
:10040000B1CFA89584B7877F84BF80916000886151
:10041000809360001092600080917C0080648093E3
:100420007C0085B78F7E85BF14B817B81AB88FEFD8
:1004300085B988B98BB98FEF93E00E948F03C82FDD
:1004400080EF8C0F803E40F48EEF93E00E948F038C
:10045000C81302C0C093660086EF93E00E948F032A
:10046000C82F8F3C8CF082337CF487EF93E00E949E
:100470008F03C81309C08C2FCC0F990B88539F4F43
:100480009093B8018093B701809168008260809357
:10049000680080916C00806280936C00809168009D
:1004A00081608093680080916B00806180936B0015
:1004B0002C9884B1836084B92998289880E280932D
:1004C000B6001092B2001092B0008091B10083602B
:1004D0008093B1001092B400789480E091E00E9483
:1004E000B80087E391E00E94B80088E290E00E94A3
:1004F000CA008823B1F3C091C600C23711F0C235DB
:1005000081F78BE991E00E94B8001092B901C235E1
:1005100009F0F5C01092BA011092BB011092BC0113
:100520001092BD011092BE011092BF011092C00145
:100530008DE391E00E94B80082E390E00E94CA003F
:10054000811103C08EE991E0F5CF8091C6008093C0
:10055000C00181E48093B6010E94A90009EB11E07B
:10056000D0E0C0E0F80181918F01C430D10531F0B5
:10057000C630D10519F0C230D10509F480688093E6
:10058000B6010E94A9002196C830D10559F729EB80
:10059000E22E21E0F22E10E000E030E3A32E41E451
:1005A000B42E85E090E00E94CA008823D1F38091A8
:1005B000C6000430110509F09FC08093BB01A092D2
:1005C000BA011092B901B092B6010E94A90099EB4C
:1005D000C92E91E0D92ED0E0C0E0F60181916F01E3
:1005E000C430D10531F0C630D10519F0C230D10583
:1005F00009F480688093B6010E94A9002196C83052
:10060000D10559F70F5F1F4FF1E0EF1AF1080530E0
:10061000110539F68091C00087FFFCCF8091C6009C
:1006200083E68093B6010E94A9002FEF80E792E055
:10063000215080409040E1F700C0000081E48093A9
:10064000B6010E94A90009EB11E0D0E0C0E0F8017A
:1006500081918F01C430D10531F0C630D10519F038
:10066000C230D10509F480688093B6010E94A900C8
:100670002196C830D10559F71092C10183EA91E063
:100680000E94B8008091C00087FFFCCF8091C60017
:100690001092B20086E68093B30080917000826071
:1006A0008093700081E4F82E8091C1018230E4F3E0
:1006B0001092C1010E9453000E945300F092B601B3
:1006C0000E94A90009EB11E0D0E0C0E0F80181919F
:1006D0008F01C430D10531F0C630D10519F0C230D8
:1006E000D10509F480688093B6010E94A900219683
:1006F000C830D10559F7D8CFF701868364CF80E39E
:100700008093BA018093BB018093BC018093BD01AB
:100710008093BE018093BF018093C0018FCFF99970
:10072000FECF92BD81BDF89A992780B50895262FF6
:10073000F999FECF1FBA92BD81BD20BD0FB6F894C6
:10074000FA9AF99A0FBE01960895F894FFCF507265
:100750006573732027522720746F20656E7465724D
:100760002074696D65206F722027722720746F20B6
:1007700073746172742061742074696D65207A6588
:10078000726F202000722020202000456E74657258
:100790002073746172742074696D6520486F75727E
:1007A000732C204D696E7574657320616E642053DF
:1007B00065636F6E64730D0A28313220686F75723D
:1007C00020636C6F636B2077697468206E6F207391
:1007D0007061636573292E205465726D696E617452
:1007E0006520776974682063720D0A00543F2020E9
:1007F00000414B20746F2073746172740D0A000005
:107E0000112484B714BE81FFF0D085E080938100F7
:107E100082E08093C00088E18093C10086E0809377
:107E2000C20080E18093C4008EE0C9D0259A86E02C
:107E300020E33CEF91E0309385002093840096BBD3
:107E4000B09BFECF1D9AA8958150A9F7CC24DD24C4
:107E500088248394B5E0AB2EA1E19A2EF3E0BF2EE7
:107E6000A2D0813461F49FD0082FAFD0023811F036
:107E7000013811F484E001C083E08DD089C08234E0
:107E800011F484E103C0853419F485E0A6D080C0E4
:107E9000853579F488D0E82EFF2485D0082F10E0AE
:107EA000102F00270E291F29000F111F8ED06801E7
:107EB0006FC0863521F484E090D080E0DECF843638
:107EC00009F040C070D06FD0082F6DD080E0C81688
:107ED00080E7D80618F4F601B7BEE895C0E0D1E017
:107EE00062D089930C17E1F7F0E0CF16F0E7DF06D8
:107EF00018F0F601B7BEE89568D007B600FCFDCFD4
:107F0000A601A0E0B1E02C9130E011968C91119780
:107F100090E0982F8827822B932B1296FA010C0160
:107F200087BEE89511244E5F5F4FF1E0A038BF0790
:107F300051F7F601A7BEE89507B600FCFDCF97BE46
:107F4000E89526C08437B1F42ED02DD0F82E2BD052
:107F50003CD0F601EF2C8F010F5F1F4F84911BD097
:107F6000EA94F801C1F70894C11CD11CFA94CF0C13
:107F7000D11C0EC0853739F428D08EE10CD085E9AC
:107F80000AD08FE07ACF813511F488E018D01DD067
:107F900080E101D065CF982F8091C00085FFFCCF94
:107FA0009093C60008958091C00087FFFCCF809118
:107FB000C00084FD01C0A8958091C6000895E0E648
:107FC000F0E098E1908380830895EDDF803219F02E
:107FD00088E0F5DFFFCF84E1DECF1F93182FE3DFCA
:107FE0001150E9F7F2DF1F91089580E0E8DFEE27F6
:047FF000FF270994CA
:027FFE00040479
:00000001FF
