:020000040000FA
:100000000C9434000C9451000C9451000C94EC00AE
:100010000C9489000C9451000C9451000C945100E4
:100020000C9451000C9451000C9451000C9451000C
:100030000C9451000C9451000C9451000C945100FC
:100040000C9451000C9451000C9451000C945100EC
:100050000C9451000C9451000C9451000C945100DC
:100060000C9451000C94510011241FBECFEFD8E026
:10007000DEBFCDBF11E0A0E0B1E0EEEDF6E002C0E2
:1000800005900D92A23BB107D9F721E0A2EBB1E0B8
:1000900001C01D92A13CB207E1F70E9487010C94B8
:1000A0006D030C9400001092B40181E08093B501BF
:1000B00080916B00806180936B008091B4018823F4
:1000C000E1F30895AC0148535F4FFC012191CF014A
:1000D000222349F03091C00035FFFCCF2093C600A9
:1000E0008417950791F7089530E020E04091C00013
:1000F00047FD0DC02F5F3F4F21344FE134071CF007
:10010000019730E020E0009789F780E0089581E0D2
:1001100008951F920F920FB60F9211242F933F93C1
:100120004F935F936F937F938F939F93AF93BF93FF
:10013000EF93FF9335993FC02FE788E391E021507B
:1001400080409040E1F700C00000359934C02FE7AF
:100150008CEF9AE0215080409040E1F700C0000011
:10016000359B15C08CEF93E00E945703682F6D7F7D
:100170008CEF93E00E945F0388E199E00FB6F8945A
:10018000A895809360000FBE90936000FFCF299ADE
:10019000289A2FEF84E39CE0215080409040E1F7C3
:1001A00000C000003599E8CF789487E48093B601C9
:1001B0000E945300E1CFFF91EF91BF91AF919F91CA
:1001C0008F917F916F915F914F913F912F910F9000
:1001D0000FBE0F901F9018951F920F920FB60F929F
:1001E00011242F933F934F938F939F931C9983C018
:1001F00080916B008F7E80936B008091B501813080
:1002000009F047C016BC17BC82E085BD8091BF01D4
:100210009091C00197FD01969595879587BDA99B03
:10022000FECF8FEF85BB2C9A87B59091BF01890FC8
:1002300087BDA99BFECF8FEF85BB249A87B5909190
:10024000BF01890F87BDA99BFECF8FEF85BB27E03C
:1002500030E04FEF8091B601082E000C990B022E72
:1002600002C0959587950A94E2F780FF4EC02C9ABC
:1002700087B59091BF01890F87BDA99BFECF45BB74
:100280002150310938F724982C9881E08093B401EB
:1002900015BC8091B501823071F516BC17BC85BDC7
:1002A0008091BF019091C00197FD0196959587952A
:1002B00087BDA99BFECF8FEF85BB88E090E04FEF15
:1002C00027B53091BF01230F27BDA99BFECF45BBAA
:1002D0002091B301220F330B2093B3011C9B05C067
:1002E0002091B30121602093B301019749F715BC18
:1002F00081E08093B2019F918F914F913F912F9117
:100300000F900FBE0F901F9018952C98B1CFA89505
:1003100084B7877F84BF809160008861809360008C
:100320001092600080917C00806480937C0085B78F
:100330008F7E85BF14B817B81AB88FEF85B988B902
:100340008BB98FEF93E00E945703C82F80EF8C0F7B
:10035000803E40F48EEF93E00E945703C81302C022
:10036000C093660086EF93E00E945703C82F8F3C2E
:100370008CF082337CF487EF93E00E945703C8131C
:1003800009C08C2FCC0F990B88539F4F9093C001BD
:100390008093BF01809168008260809368008091A3
:1003A0006C00806280936C00809168008160809313
:1003B000680080916B00806180936B002C9884B101
:1003C000836084B929982898789480E091E00E940D
:1003D000620087E391E00E94620088E290E00E9460
:1003E00074008823B1F3C091C600C23711F0C23542
:1003F00081F78BE991E00E9462001092B701C2354B
:1004000009F0FCC01092B8011092B9011092BA0123
:100410001092BB011092BC011092BD011092BE015E
:100420008DE391E00E94620082E390E00E947400FC
:10043000811103C08EE991E0F5CF8091C6008093D1
:10044000BE0181E48093B6010E945300C7EBD1E066
:1004500010E000E089910430110531F006301105FB
:1004600019F00230110509F480688093B6010E94EA
:1004700053000F5F1F4F0830110561F767EBE62E41
:1004800061E0F62ED0E0C0E070E3A72EE1E4BE2EDE
:1004900085E090E00E9474008823D1F38091C6002B
:1004A000C430D10509F0A7C08093B901A092B8016A
:1004B0001092B701B092B6010E94530057EBC52EBF
:1004C00051E0D52E10E000E0F60181916F0104307B
:1004D000110531F00630110519F00230110509F44B
:1004E00080688093B6010E9453000F5F1F4F083051
:1004F000110551F72196F1E0EF1AF108C530D10549
:1005000039F68091C00087FFFCCF8091C60083E65A
:100510008093B6010E9453002FEF80E792E02150B4
:1005200080409040E1F700C0000081E48093B60174
:100530000E945300C7EBD1E010E000E08991043045
:10054000110531F00630110519F00230110509F4DA
:1005500080688093B6010E9453000F5F1F4F0830E0
:10056000110561F783EA91E00E9462008091C0006A
:1005700087FFFCCF8091C600D2EB97E0D92EC0E375
:1005800020EBC22E31E3B32E41E4A42E8AE090E0AA
:10059000D093B200D092B100B89BFECFB89A10921F
:1005A000B1000197A9F78091B8018933BCF58F5F3D
:1005B0008093B801A092B6010E94530087EBE82E09
:1005C00081E0F82E10E000E0F70181917F01043016
:1005D000110531F00630110519F00230110509F44A
:1005E00080688093B6010E9453000F5F1F4F083050
:1005F000110551F7CBCFF70186835CCF80E3809361
:10060000B8018093B9018093BA018093BB018093B4
:10061000BC018093BD018093BE0187CFC093B80118
:100620008091B901893324F48F5F8093B901C2CFDF
:10063000C093B9018091BA01853324F48F5F809310
:10064000BA01B8CFC093BA018091BB01893324F4B9
:100650008F5F8093BB01AECFC093BB018091BC0183
:10066000853324F48F5F8093BC01A4CFC093BC0179
:100670008091BE01803361F0813309F09BCF80917E
:10068000BD0181335CF0C093BD01C093BE0192CF28
:100690008091BD01982F9F77993324F48F5F8093C9
:1006A000BD0188CFC092BD01B092BE0183CFF99940
:1006B000FECF92BD81BDF89A992780B50895262F67
:1006C000F999FECF1FBA92BD81BD20BD0FB6F89437
:1006D000FA9AF99A0FBE01960895F894FFCF5072D6
:1006E0006573732027522720746F20656E746572BE
:1006F0002074696D65206F722027722720746F2027
:1007000073746172742061742074696D65207A65F8
:10071000726F202000722020202000456E746572C8
:100720002073746172742074696D6520486F7572EE
:10073000732C204D696E7574657320616E6420534F
:1007400065636F6E64730D0A28313220686F7572AD
:1007500020636C6F636B2077697468206E6F207301
:100760007061636573292E205465726D696E6174C2
:100770006520776974682063720D0A00543F202059
:1007800000414B20746F2073746172740D0A000075
:107E0000112484B714BE81FFF0D085E080938100F7
:107E100082E08093C00088E18093C10086E0809377
:107E2000C20080E18093C4008EE0C9D0259A86E02C
:107E300020E33CEF91E0309385002093840096BBD3
:107E4000B09BFECF1D9AA8958150A9F7CC24DD24C4
:107E500088248394B5E0AB2EA1E19A2EF3E0BF2EE7
:107E6000A2D0813461F49FD0082FAFD0023811F036
:107E7000013811F484E001C083E08DD089C08234E0
:107E800011F484E103C0853419F485E0A6D080C0E4
:107E9000853579F488D0E82EFF2485D0082F10E0AE
:107EA000102F00270E291F29000F111F8ED06801E7
:107EB0006FC0863521F484E090D080E0DECF843638
:107EC00009F040C070D06FD0082F6DD080E0C81688
:107ED00080E7D80618F4F601B7BEE895C0E0D1E017
:107EE00062D089930C17E1F7F0E0CF16F0E7DF06D8
:107EF00018F0F601B7BEE89568D007B600FCFDCFD4
:107F0000A601A0E0B1E02C9130E011968C91119780
:107F100090E0982F8827822B932B1296FA010C0160
:107F200087BEE89511244E5F5F4FF1E0A038BF0790
:107F300051F7F601A7BEE89507B600FCFDCF97BE46
:107F4000E89526C08437B1F42ED02DD0F82E2BD052
:107F50003CD0F601EF2C8F010F5F1F4F84911BD097
:107F6000EA94F801C1F70894C11CD11CFA94CF0C13
:107F7000D11C0EC0853739F428D08EE10CD085E9AC
:107F80000AD08FE07ACF813511F488E018D01DD067
:107F900080E101D065CF982F8091C00085FFFCCF94
:107FA0009093C60008958091C00087FFFCCF809118
:107FB000C00084FD01C0A8958091C6000895E0E648
:107FC000F0E098E1908380830895EDDF803219F02E
:107FD00088E0F5DFFFCF84E1DECF1F93182FE3DFCA
:107FE0001150E9F7F2DF1F91089580E0E8DFEE27F6
:047FF000FF270994CA
:027FFE00040479
:00000001FF
