:107000000C9434380C9451380C9451380C945138F9
:107010000C9451380C9451380C9451380C945138CC
:107020000C9451380C9451380C9451380C945138BC
:107030000C9451380C9451380C9451380C945138AC
:107040000C94863A0C9451380C94623F0C9451384D
:107050000C9451380C9451380C9451380C9451388C
:107060000C9451380C94513811241FBECFEFD8E046
:10707000DEBFCDBF11E0A0E0B1E0E4ECFFE702C06D
:1070800005900D92A032B107D9F721E0A0E2B1E05E
:1070900001C01D92A839B207E1F70E94C53C0C94CB
:1070A000E03F0C9400380F92FF93EF93F09128018A
:1070B000E0918801049000928F01EF91FF910F9071
:1070C00008954F9341E10E949F384F9108954F9347
:1070D000FF93EF93F0912801E091880143E00E9433
:1070E0009F38EF91FF914F9108950F921F924F9308
:1070F000DF93CF93FF93EF93D0917E01C091720104
:10710000F0912801E09188010990188041E00E94E7
:107110009F38EF91FF91CF91DF914F911F900F908A
:1071200008954F93FF93EF9345E0F0912801E0918C
:1071300088010E949F38EF91FF914F9108950F931E
:107140000091570000FDFCCFF89440935700E8955C
:1071500078940F91089566BD85BDA89BFECFA89A2F
:1071600015BC0895EEE6F0E090819160908366BDD5
:1071700085BD089520917F01309180018091240187
:107180009091250128173907A9F3E0917F01F0912B
:107190008001EE0FFF1FE75DFE4F8081809383012A
:1071A00020917F01309180012F5F3F4F309380010C
:1071B00020937F0120917F01309180012F7133272F
:1071C0003093800120937F01982F87FF02C091E0C8
:1071D000980F95959093200190918C0190311CF41B
:1071E00091E090938D0180938C0120917F013091EB
:1071F0008001809124019091250128173907A9F376
:10720000E0917F01F0918001EE0FFF1FE75DFE4FDF
:107210003081218180917F0190918001019690932E
:10722000800180937F0180917F01909180018F7117
:1072300099279093800180937F01832F922F97FD50
:10724000019695958795909376018093750140916D
:10725000790150917A014F5F5F4F50937A014093CB
:10726000790120912101309122018217930751F178
:10727000009751F120912601309127018223932319
:107280006091900170919101209192013091930150
:10729000260F371F2817390734F421E020936A019D
:1072A0001092890108C08217930729F410926A018D
:1072B00021E0209389018617970731F410926A0123
:1072C000109289011092810142FF02C0289A08950C
:1072D00028980895809175019091760190932201EC
:1072E0008093210120912601309127012823392301
:1072F0003093910120939001AC01421B530B5093AA
:107300008B0140938A0120918A0130918B01209357
:107310007701877080936B0180919201821B80932B
:107320002301089520917F013091800180912401F3
:107330009091250128173907A9F3E0917F01F09179
:107340008001EE0FFF1FE75DFE4F808191819093DA
:107350006D0180936C0180917F0190918001019675
:107360009093800180937F0180917F0190918001B3
:107370008F7199279093800180937F010895CF9317
:10738000DF93CCE6D1E00E94923980918A019091FE
:107390008B01880F991F9093280180918A01909109
:1073A0008B01880F80938801D0937E01C093720176
:1073B000DF91CF910C9475389C01220F331F3093CD
:1073C0002801880F809388010E9467380E949138B5
:1073D00010928E010895CF93C1E0809120018823FF
:1073E00009F447C080912001815080932001C0930F
:1073F0008E010E94BF3980918A0190918B01019684
:1074000090938B0180938A018091210190912201B8
:107410000196909322018093210180912301815054
:107420008093230120918A0130918B0180919201F8
:10743000909193012817390781F6809190019091DE
:1074400091010E94DC3910928E0110928B011092F2
:107450008A01809192018093230180916B01809336
:10746000770180916B01882309F4B7CFC093810124
:10747000B4CFCF910895CF93DF93D82FC62F64E672
:1074800085E00E94AB38E1ECF0E01082D093C500BB
:10749000C093C40082E08093C00088E1808386E0CE
:1074A0008093C200DF91CF91089520E030E04091B9
:1074B000C00047FD0DC02F5F3F4F213A4FE034071A
:1074C0001CF0019720E030E0009789F780E00895F4
:1074D00081E008959091C00095FFFCCF8093C60095
:1074E00008950F931F93CF93DF93EC018C01085302
:1074F0001F4F8991882329F00E946A3AC017D1074B
:10750000C1F7DF91CF911F910F9108951F920F92B4
:107510000FB60F9211248F939F93EF93FF93809157
:107520008201833009F045C080917B0181508093B6
:107530007B0115BC80916E008E7F80936E008091E0
:1075400024019091250101969093250180932401B7
:1075500080912401909125018F71992790932501A5
:1075600080932401E0912401F0912501EE0FFF1F8B
:10757000E75DFE4F118210828091240190912501D8
:10758000019690932501809324018091240190918C
:1075900025018F7199279093250180932401E09113
:1075A0002401F0912501EE0FFF1FE75DFE4F1182D0
:1075B0001082FF91EF919F918F910F900FBE0F90CE
:1075C0001F901895CF93DF931092250110922401FC
:1075D0001092800110927F011092820183E08093CB
:1075E0007B01109271011092700180E38093690118
:1075F00080E091E00E94713A60E085E00E94B2383C
:107600008091C10080688093C10078948EEF9FE5DF
:107610009093870180938601CEEFDFE520917F0173
:10762000309180018091240190912501281739071C
:10763000A9F380917B01833029F080917B018150F7
:1076400080937B0180917F0190918001880F991F29
:10765000875D9E4F909397018093960190937E0152
:107660008093720180918601909187019093280107
:10767000809388010E9475388091860190918701DE
:10768000AC01425051095093870140938601E0912B
:107690007F01F0918001EE0FFF1FE75DFE4F118229
:1076A000108220917F01309180012F5F3F4F3093F6
:1076B000800120937F0120917F01309180012F7103
:1076C00033273093800120937F019E01241B350BCB
:1076D0002F773327232BA9F490938701809386017A
:1076E00090932801809388010E9467380E94913806
:1076F00080918601909187010297909387018093F2
:10770000860180917B01811189CF20918601309182
:1077100087018EEF9FE5821B930BAC014F775527B6
:10772000452BA1F060E870E00E94A23F8E579109BE
:10773000820F931F90938701809386019093280175
:10774000809388010E9467380E9491388091C1001F
:107750008F778093C100F8940E94613885B18C7F47
:1077600085B9DF91CF9108950F931F93CF93DF9346
:1077700080E490E0909393018093920180EC9FE3EA
:10778000909327018093260110927A01109279013B
:1077900010928C0110928E01109222011092210100
:1077A00010926A0110928101109225011092240119
:1077B0001092800110927F0110928D0110927D0134
:1077C00010927C018CE091E00E94713A8091C1009E
:1077D00080688093C10078940E94BA380E946A3908
:1077E0000E94EB39C0E0D0E00AE010E00E94BA3815
:1077F00080918301882309F485C08091750190915F
:10780000760120912101309122018217930739F5E9
:1078100020918D01222339F0213009F50E946A3927
:1078200010928D011CC060916B0140912301042EC8
:10783000000C550B2091920130919301261B3109C8
:1078400067FD33954217530751F42091260130917B
:10785000270182239323909391018093900120919B
:1078600075013091760180912101909122012817B4
:107870003907D1F180916A018823F1F080918E015E
:10788000882351F080918101811106C0809190017F
:10789000909191010E94DC3980918101882361F0EF
:1078A00020919001309191018091920190919301EA
:1078B000820F931F0E94DC3980918901882381F017
:1078C00080918E01882351F080918101811106C041
:1078D00080919001909191010E94DC391092810178
:1078E0000E946A3910928D010E94EB392196CE01D7
:1078F000B8010E94A23F892B09F078CF8AE20E944A
:107900006A3A74CF8091C1008F778093C100F89458
:1079100085B18C7F85B985E090E00E94553A813031
:1079200019F48091C600F7CF80918E01882351F021
:1079300080918101811106C0809190019091910107
:107940000E94DC3980918101882361F020919001AF
:10795000309191018091920190919301820F931F38
:107960000E94DC39F8940E94613860917D0189EFB2
:1079700093E00E94D23F60917C0188EF93E0DF9119
:10798000CF911F910F910C94D23F04B603FE0AC011
:107990008CEF93E00E94CA3F682F6D7F8CEF93E0DD
:1079A0000E94D23FA89584B7877F84BF80916000F2
:1079B0008861809360001092600085B78F7E85BFDC
:1079C00014B817B81AB88FEF85B988B98BB984B1D4
:1079D000836084B92998289880917C008064809382
:1079E0007C0060E180E00E943B3A04B600FE24C0C7
:1079F00014BE6EEF8CEF93E00E94D23F359B12C015
:107A000081E085BF15BE10922801109288010E9466
:107A1000533880918F018F3F19F40C94003002C0CD
:107A20000C9400008CEF93E00E94CA3F682F6B7F9C
:107A30008CEF93E00E94D23F8CEF93E00E94CA3F0C
:107A400081FD11C082FF0FC01092280110928801A1
:107A50000E94533880918F018F3F19F40C940030AD
:107A600002C00C940000609166008DEF93E00E94CC
:107A7000D23F8EEF93E00E94CA3FC82F80EF8C0F59
:107A8000803E40F48FEF93E00E94CA3FC81302C0CB
:107A9000C093660081E085BF82E085BFC4E7D6E081
:107AA00018E685E191E00E94713A84E690E00E9438
:107AB000553A8823B1F38091C600843509F443C058
:107AC00028F4843441F1853471F0EBCF823759F1D9
:107AD000843709F43DC0803721F7109378010E9464
:107AE000B43B0C9440348DEE93E00E94CA3F8E5F0D
:107AF0006D2F0E94963F692F8DEE93E00E94D23F3A
:107B000084E42FEF30E792E0215030409040E1F7DD
:107B100000C00000D2CF10922801109288010E946C
:107B2000673882E7EECF67EF8CEF93E00E94D23F99
:107B300098E088E10FB6F894A895809360000FBE96
:107B400090936000FFCFC09378010E94E23AA9CFE2
:107B50000C944032A6CF909182018A3219F0911193
:107B60000CC00895911104C081E0809382010895B2
:107B700090918201913009F477C090918201913007
:107B800019F492E09093820190918201923031F445
:107B90008D3009F469C08A3009F466C093E090938F
:107BA00082018D3011F08A3031F48091690188238F
:107BB00009F45AC080E016BC4091700150917101E7
:107BC000282F30E0E0912401F0912501EE0FFF1FF6
:107BD000E75DFE4F40FD16C031832083E091240114
:107BE000F0912501A0912401B0912501EE0FFF1F16
:107BF000E75DFE4FAA0FBB1FA75DBE4F9C91108291
:107C000091831AC040815181240F351F3183208315
:107C100020912401309125012F5F3F4F30932501A2
:107C20002093240120912401309125012F713327C5
:107C3000309325012093240120917001309171012E
:107C40002F5F3F4F30937101209370018093690142
:107C5000809170019091710187FF03C085B18360AD
:107C600002C085B18C7F85B908958A3331F41092B2
:107C700085011092840180E005C08A3310F480539E
:107C800001C0875320918401309185012330310553
:107C9000B9F1F4F42130310571F12230310509F0E8
:107CA00069C02091940130919501280F311D3093C6
:107CB0009501209394012091940130919501220F18
:107CC000331F275F3F4F30936F0120936E013CC0FD
:107CD0002530310579F1ECF02630310509F04AC044
:107CE0002091940130919501280F311D3093950119
:107CF0002093940129C040E1849F9001112404C085
:107D000050E1859F900111243093950120939401B7
:107D100031C02091940130919501280F311D30938D
:107D20009501209394012091940130919501322F77
:107D30002227EACF209194013091950190E1899F0B
:107D4000200D311D1124E0CF209124013091250117
:107D5000A9014F5F5F4F509325014093240140914B
:107D6000940150919501220F331FF901E75DFE4FF9
:107D70005183408320918401309185012930310560
:107D80000CF48CC0409184015091850120916E01CA
:107D900030916F01421753070CF080C0209184018D
:107DA00030918501237033272130310541F440E1C2
:107DB000849F900111243093950120939401209188
:107DC000840130918501237033272230310551F42D
:107DD0002091940130919501280F311D3093950128
:107DE00020939401209184013091850123703327E1
:107DF0002330310541F450E1859F900111243093E7
:107E000074012093730120918401309185012370C6
:107E10003327232B09F042C0209173013091740164
:107E2000A901480F511D5093740140937301809133
:107E3000730190917401982F882790937401809317
:107E4000730120917301309174018091940190919C
:107E50009501820F931F90939501809394018091D7
:107E60002401909125019C012F5F3F4F3093250104
:107E7000209324012091940130919501880F991F3E
:107E8000FC01E75DFE4F3183208380917C0190915E
:107E90007D01019690937D0180937C018091840106
:107EA0009091850101969093850180938401809142
:107EB0002401909125018F7199279093250180933A
:107EC000240108951F920F920FB60F9211242F9341
:107ED0003F934F935F936F937F938F939F93AF9352
:107EE000BF93CF93EF93FF93C091C6008091780129
:107EF000843719F48C2F0E94AB3D8091780188362D
:107F000019F48C2F0E94353EFF91EF91CF91BF91D4
:107F1000AF919F918F917F916F915F914F913F9121
:107F20002F910F900FBE0F901F901895991B79E01D
:107F300004C0991F961708F0961B881F7A95C9F7F9
:107F40008095089597FB072E16F4009407D077FDCF
:107F500009D00E94B63F07FC05D03EF4909581956C
:107F60009F4F0895709561957F4F0895AA1BBB1B85
:107F700051E107C0AA1FBB1FA617B70710F0A61B29
:107F8000B70B881F991F5A95A9F780959095BC014A
:107F9000CD010895F999FECF92BD81BDF89A992738
:107FA00080B50895262FF999FECF1FBA92BD81BDE5
:107FB00020BD0FB6F894FA9AF99A0FBE019608956B
:047FC000F894FFCF63
:107FC4000D0A546578745F463F0D0A000D0A486532
:107FD400785F463F00702F722F742F4420200000DA
:040000030000700089
:00000001FF
