:100000000C9434000C9451000C9451000C949A01FF
:100010000C94DA000C94A5000C9451000C9451003F
:100020000C9451000C9451000C9451000C9451000C
:100030000C9451000C9451000C9451000C945100FC
:100040000C9451000C9451000C9451000C945100EC
:100050000C9451000C9451000C9451000C945100DC
:100060000C9451000C94510011241FBECFEFD8E026
:10007000DEBFCDBF11E0A0E0B1E0ECE1F7E002C0EF
:1000800005900D92A032B107D9F721E0A0E2B1E0CE
:1000900001C01D92AE32B207E1F70E9447020C94F4
:1000A0008C030C94000030E020E042EB57E04093DA
:1000B000B2005093B100B89BFECFB89A1092B10035
:1000C000A8952F5F3F4F8217930789F708951092E5
:1000D000220181E08093230180916B0080618093F5
:1000E0006B00809122018823E1F30895EF92FF9243
:1000F0000F931F93CF93DF93E82E092FF62E172F20
:10010000C8E6D0E088818D7F888381E680932401D2
:100110000E946700E09224010E946700F09224018F
:100120000E946700A895009324010E946700109325
:1001300024010E946700888182608883DF91CF91CB
:100140001F910F91FF90EF9008951F920F920FB69D
:100150000F9211242F933F938F939F934D9921C01A
:1001600080912D0181111DC020912B0130912C0116
:100170008091290190912A0128233923232B71F0A2
:1001800020912B0130912C0180959095822393230F
:1001900090932C0180932B011092280181E0809391
:1001A0002D019F918F913F912F910F900FBE0F9036
:1001B0001F9018951F920F920FB60F9211242F9334
:1001C0003F934F935F936F937F938F939F93AF93DF
:1001D000BF93EF93FF9335999CC02FE788E391E09D
:1001E000215080409040E1F700C00000A89535996B
:1001F00090C02FE782E392E0215080409040E1F7E9
:1002000000C00000A8952FE782E392E021508040D3
:100210009040E1F700C00000A8952FE782E392E04C
:10022000215080409040E1F700C00000A8952FE7E2
:1002300082E392E0215080409040E1F700C000004E
:10024000A8952FE782E392E0215080409040E1F7AB
:1002500000C00000A895359B1FC08CEF93E00E9462
:100260007603682F6B7F8CEF93E00E947E038CEF08
:1002700093E00E947603682F6F7B8CEF93E00E94DF
:100280007E0388E199E00FB6F894A895809360000A
:100290000FBE90936000FFCF299A289A2FE782E340
:1002A00092E0215080409040E1F700C00000A89506
:1002B0002FE782E392E0215080409040E1F700C0B8
:1002C0000000A8952FE782E392E021508040904003
:1002D000E1F700C00000A8952FE782E392E02150EB
:1002E00080409040E1F700C00000A8952FE782E32E
:1002F00092E0215080409040E1F700C00000A895B6
:100300003599B5CF789487E4809324010E946700E3
:10031000AECFFF91EF91BF91AF919F918F917F9160
:100320006F915F914F913F912F910F900FBE0F9062
:100330001F9018951F920F920FB60F9211242F93B2
:100340003F934F938F939F931C9983C080916B0031
:100350008F7E80936B0080912301813009F047C02C
:1003600016BC17BC82E085BD8091260190912701C3
:1003700097FD01969595879587BDA99BFECF8FEF39
:1003800085BB2C9A87B590912601890F87BDA99BC3
:10039000FECF8FEF85BB249A87B590912601890FF8
:1003A00087BDA99BFECF8FEF85BB27E030E04FEFE5
:1003B00080912401082E000C990B022E02C0959505
:1003C00087950A94E2F780FF4EC02C9A87B59091EA
:1003D0002601890F87BDA99BFECF45BB215031095E
:1003E00038F724982C9881E08093220115BC8091E5
:1003F0002301823071F516BC17BC85BD80912601A2
:100400009091270197FD01969595879587BDA99BAA
:10041000FECF8FEF85BB88E090E04FEF27B530919E
:100420002601230F27BDA99BFECF45BB20912101AB
:10043000220F330B209321011C9B05C02091210129
:10044000216020932101019749F715BC81E0809339
:1004500020019F918F914F913F912F910F900FBE4F
:100460000F901F9018952C98B1CFAC0148535F4F57
:10047000FC012191CF01222349F03091C00035FFCA
:10048000FCCF2093C6008417950791F70895A8958F
:1004900084B7877F84BF809160008861809360000B
:1004A0001092600080917C00806480937C0085B70E
:1004B0008F7E85BF14B817B81AB88FEF85B988B981
:1004C0008BB98FEF93E00E947603C82F80EF8C0FDB
:1004D000803E40F48EEF93E00E947603C81302C082
:1004E000C093660086EF93E00E947603C82F8F3C8E
:1004F0008CF082337CF487EF93E00E947603C8137C
:1005000009C08C2FCC0F990B88539F4F90932701D4
:1005100080932601809168008260809368008091BA
:100520006C00806280936C00809168008160809391
:10053000680080916B00806180936B002C9884B17F
:10054000836084B92998289878941092C1001092F9
:10055000C50080E18093C400D2E0D093C00088E160
:100560008093C100C6E0C093C2008FE39CE901976D
:10057000F1F700C000008CEF93E00E947603873F04
:1005800009F47CC050F48D3B09F475C08D3D09F42D
:1005900077C08D3A51F484E06BC08E3F09F467C098
:1005A00008F073C08D3F09F46DC06FEF8CEF93E0DE
:1005B0000E947E03A895809160008861809360000E
:1005C0008BE48093600080912501873009F05FC043
:1005D00080E091E00E943502809168008460809301
:1005E000680080916D00806280936D008FEF9FEFB7
:1005F00090932C0180932B01FF24F39401E010E0F1
:1006000080912B0190912C01892B09F450C085E039
:1006100090E00E945300F092280110932A01009369
:10062000290180912801882359F3C0912901D09193
:100630002A01C130D10511F410922D0160912B01D6
:1006400070912C0180912B0190912C0160957095F7
:100650006C277D278C239D230E94760082E090E00A
:100660000E945300D7FF1CC010922801DACF81E00E
:10067000809325019ACFD093250197CF83E0F8CFBF
:1006800085E0F6CFC093250190CF87E0F1CF86308B
:1006900009F0A2CF85E191E00E943502A895FECF36
:1006A000CC0FDD1FD0932A01C0932901BACF6FEF81
:1006B0007FEF90E080E00E94760088EC90E00E945E
:1006C00053008CEF93E00E947603682F6F7B8CEFD2
:1006D00093E00E947E0388E199E00FB6F894A89514
:1006E000809360000FBE90936000FFCFF999FECF1A
:1006F00092BD81BDF89A992780B50895262FF99962
:10070000FECF1FBA92BD81BD20BD0FB6F894FA9AF4
:0C071000F99A0FBE01960895F894FFCFEF
:10071C000D0A50726F6772616D207265737461722D
:10072C007465642E000D0A5744546F75740D0A00DD
:00000001FF
